:100000000C949E000C94C6000C94C6000C94C60080
:100010000C94C6000C94C6000C94C6000C94C60048
:100020000C94C6000C94C6000C94C6000C94120AE2
:100030000C94C6000C94C6000C94C6000C94C60028
:100040000C9412020C94C6000C9481040C94B3041A
:100050000C94C6000C94C6000C94C6000C94C60008
:100060000C94C6000C94C60007634236B79BD8A711
:100070001A39685618AEBAAB558C1D3CB7CC5763CD
:10008000BD6DEDFD753EF6177231BF000000803F7B
:1000900008000000BE922449123EABAAAA2ABECD97
:1000A000CCCC4C3E00000080BEABAAAAAA3E000009
:1000B0000000BF000000803F000000000008417801
:1000C000D3BB4387D1133D190E3CC3BD4282AD2B38
:1000D0003E68EC8276BED98FE1A93E4C80EFFFBE30
:1000E00001C4FF7F3F000000000000000008000284
:1000F00001000003040700000000000000000102EE
:1001000004081020408001020408102001020408A5
:100110001020040404040404040402020202020283
:1001200003030303030300000000250028002B0045
:1001300000000000240027002A00E30411241FBE51
:10014000CFEFD8E0DEBFCDBF11E0A0E0B1E0EAEC38
:10015000FFE102C005900D92A03FB107D9F722E060
:10016000A0EFB1E001C01D92AD3AB207E1F710E097
:10017000CEE9D0E004C02197FE010E94DD0FCD3909
:10018000D107C9F70E9491010C94E30F0C940E0A59
:100190002F923F924F925F926F927F928F929F9297
:1001A000AF92BF92CF92DF92EF92FF920F931F9385
:1001B000CF93DF93E42FF52F419050804F925F92C1
:1001C000E42FF52F4DB65EB6419250820C94E800B4
:1001D000E62FF72F419050804DBE5EBE5F904F904E
:1001E000E62FF72F41925082DF91CF911F910F910F
:1001F000FF90EF90DF90CF90BF90AF909F908F9047
:100200007F906F905F904F903F902F900C94C40719
:10021000E62FF72F419150814DBF5EBF0C94C5076B
:100220002F923F924F925F926F927F928F929F9206
:10023000AF92BF92CF92DF92EF92FF920F931F93F4
:10024000CF93DF93E42FF52F419050804F925F9230
:10025000E42FF52F4DB65EB6419250820C94080102
:10026000E82FF92F419150814DBF5EBFE62FF72F48
:10027000099400000F931F93CF93DF9300D0CDB765
:10028000DEB78DB79EB79A8389838091F0019091F4
:10029000F101892BA9F489819A819093F1018093CE
:1002A000F001F89482E893E0892B11F00E94820318
:1002B00078940F900F90DF91CF911F910F91089537
:1002C0002091F0013091F10189819A812817390735
:1002D00041F3F89487E291E00E949B0102E813E069
:1002E00001151105E9F30E948203FACF60E083E172
:1002F0000E94C00261E087E00E94C00260E087E0E7
:100300000E94FC0226E040E052EC61E070E083E0F5
:1003100092E00E941F0462E471E083E092E00C949A
:1003200057050E945C020E94760180E00E94C3068D
:1003300090E080E00895F894FC0101900020E9F736
:100340003197AF01481B590BBC0183E092E00E943A
:10035000100578940895CF92DF92EF92FF9283E197
:100360000E942A039093F9018093F801BC01990F30
:10037000880B990B0E940F0D20E030EC4FE754E4FE
:100380000E946C0C20E030E040EA50E40E94C40D72
:100390006B017C01AC019B0160E070E080EA90E4BD
:1003A0000E94FA0BA70196010E946C0C20E030E439
:1003B0004CE955E40E94C40D22EC3FE245E95FEBB5
:1003C0000E94310E2EE138E449E559E40E94C40D43
:1003D000AB01BC014093F4015093F5016093F60129
:1003E0007093F70122E030E083E092E00E94B106D2
:1003F00020E030E048E453E46091F4017091F501AD
:100400008091F6019091F7010E94670C61E087FFEF
:1004100060E087E00E94FC02FF90EF90DF90CF90B9
:100420000C949D071F920F920FB60F9211242F93D9
:100430003F938F939F93AF93BF938091FB019091D4
:10044000FC01A091FD01B091FE013091FA0123E081
:10045000230F2D3758F50196A11DB11D2093FA01E8
:100460008093FB019093FC01A093FD01B093FE01EA
:100470008091FF0190910002A0910102B0910202CF
:100480000196A11DB11D8093FF0190930002A093DE
:100490000102B0930202BF91AF919F918F913F9162
:1004A0002F910F900FBE0F901F90189526E8230FE5
:1004B0000296A11DB11DD2CF789484B5826084BD0F
:1004C00084B5816084BD85B5826085BD85B5816058
:1004D00085BDEEE6F0E0808181608083E1E8F0E0B8
:1004E0001082808182608083808181608083E0E8E7
:1004F000F0E0808181608083E1EBF0E080818460C6
:100500008083E0EBF0E0808181608083EAE7F0E0C7
:10051000808184608083808182608083808181602B
:1005200080838081806880831092C1000895833029
:1005300081F028F4813099F08230A9F00895873055
:10054000A9F08830C9F08430B1F4809180008F7DAB
:1005500003C0809180008F7780938000089584B5D8
:100560008F7784BD089584B58F7DFBCF8091B000D7
:100570008F778093B00008958091B0008F7DF9CF80
:10058000CF93DF9390E0FC01E250FF4F24918E5E09
:100590009E4FFC0184918823C9F090E0880F991F39
:1005A000FC01E05DFE4FA591B491FC01EA5DFE4FB8
:1005B000C591D49161110DC09FB7F8948C9120958D
:1005C00082238C938881282328839FBFDF91CF913A
:1005D0000895623051F49FB7F8943C91822F809532
:1005E00083238C93E8812E2BEFCF8FB7F894EC9177
:1005F0002E2B2C938FBFEACF1F93CF93DF93282FFF
:1006000030E0F901E651FF4F8491F901E250FF4FCC
:10061000D491F901EE5EFE4FC491CC23A9F0162FC0
:1006200081110E949702EC2FF0E0EE0FFF1FEA5DB0
:10063000FE4FA591B4918FB7F894EC91111108C0B9
:10064000D095DE23DC938FBFDF91CF911F9108956A
:10065000DE2BF8CF8E3008F08E502091260190E4EA
:10066000299F900111248770822B80937C008091B8
:100670007A00806480937A0080917A0086FDFCCFB6
:1006800080917800909179000895FC01918D228DE0
:10069000892F90E0805C9F4F821B91098F7399276F
:1006A0000895FC01918D828D981731F0828DE80FAD
:1006B000F11D858D90E008958FEF9FEF0895FC0167
:1006C000918D828D981761F0A28DAE0FBF2FB11D55
:1006D0005D968C91928D9F5F9F73928F90E00895AD
:1006E0008FEF9FEF0895FC01538D448D252F30E04F
:1006F000842F90E0821B930B541710F0CF9608952F
:100700000197089589ED94E0892B49F080E090E00D
:10071000892B29F00E94D90481110C9400000895BE
:10072000FC01A48DA80FB92FB11DA35ABF4F2C9166
:10073000848D90E001968F739927848FA689B7895D
:100740002C93A089B1898C91837080648C93938D54
:10075000848D981306C00288F389E02D80818F7DF7
:1007600080830895CF93DF93EC01888D8823B9F0BF
:10077000AA89BB89E889F9898C9185FD03C08081AC
:1007800086FD0DC00FB607FCF7CF8C9185FFF2CF29
:10079000808185FFEDCFCE010E949003E9CFDF91EC
:1007A000CF910895EF92FF920F931F93CF93DF9312
:1007B000EC0181E0888F9B8D8C8D98131AC0E8899D
:1007C000F989808185FF15C09FB7F894EE89FF896C
:1007D0006083E889F98980818370806480839FBF0A
:1007E00081E090E0DF91CF911F910F91FF90EF900A
:1007F0000895F62E0B8D10E00F5F1F4F0F7311271A
:10080000E02E8C8D8E110CC00FB607FCFACFE88954
:10081000F989808185FFF5CFCE010E949003F1CF49
:10082000EB8DEC0FFD2FF11DE35AFF4FF0829FB7C8
:10083000F8940B8FEA89FB8980818062CFCFCF92B9
:10084000DF92EF92FF921F93CF93DF93EC016A0147
:100850007B01122FE889F98982E08083C11481EE3F
:10086000D806E104F104A1F060E079E08DE390E0C6
:10087000A70196010E94BB0F21503109410951097E
:100880005695479537952795211580E1380798F0BB
:10089000E889F989108260E874E88EE190E0A701A8
:1008A00096010E94BB0F215031094109510956950B
:1008B000479537952795EC85FD853083EE85FF8537
:1008C0002083188EEC89FD891083EA89FB89808159
:1008D00080618083EA89FB89808188608083EA89DE
:1008E000FB89808180688083EA89FB8980818F7D94
:1008F0008083DF91CF911F91FF90EF90DF90CF9099
:1009000008951F920F920FB60F9211242F938F9379
:100910009F93EF93FF93E0911302F0911402808173
:10092000E0911902F0911A0282FD1BC09081809122
:100930001C028F5F8F7320911D02821741F0E0919E
:100940001C02F0E0ED5FFD4F958F80931C02FF913C
:10095000EF919F918F912F910F900FBE0F901F904D
:1009600018958081F4CF1F920F920FB60F92112429
:100970002F933F934F935F936F937F938F939F93A7
:10098000AF93BF93EF93FF9383E092E00E949003B5
:10099000FF91EF91BF91AF919F918F917F916F9157
:1009A0005F914F913F912F910F900FBE0F901F902D
:1009B000189583E092E00E94450321E0892B09F419
:1009C00020E0822F0895E3E0F2E01382128288EEA5
:1009D00093E0A0E0B0E084839583A683B78386ED9F
:1009E00091E09183808385EC90E09587848784EC07
:1009F00090E09787868780EC90E0918B808B81ECEC
:100A000090E0938B828B82EC90E0958B848B86ECCC
:100A100090E0978B868B118E128E138E148E089514
:100A2000AF92BF92CF92DF92EF92FF920F931F93FC
:100A3000CF93DF936C017B018B01040F151FEB013A
:100A40005E01AE18BF08C017D10759F06991D601F1
:100A5000ED91FC910190F081E02DC6010995892B63
:100A600079F7C501DF91CF911F910F91FF90EF9022
:100A7000DF90CF90BF90AF900895FB0101900020D0
:100A8000E9F73197AF01461B570BDC01ED91FC9163
:100A90000280F381E02D0994DC01ED91FC9101903D
:100AA000F081E02D09946FE371E00C943D050F9304
:100AB0001F93CF93DF938C01D0E0C0E061157105E7
:100AC00019F00E943D05EC01C8010E9453058C0FEE
:100AD0009D1FDF91CF911F910F9108958F929F924B
:100AE000AF92BF92EF92FF920F931F93CF93DF933A
:100AF000CDB7DEB7A1970FB6F894DEBF0FBECDBF5E
:100B00007C01FA01CB0119A2223008F42AE08E01FF
:100B10000F5D1F4F822E912CB12CA12CBF01A5017E
:100B200094010E94BB0FF901CA016A300CF5605DA7
:100B3000D8016E938D01232B242B252B79F790E080
:100B400080E0109721F0BD01C7010E943D05A196EC
:100B50000FB6F894DEBF0FBECDBFDF91CF911F91CE
:100B60000F91FF90EF90BF90AF909F908F9008955E
:100B7000695CDECF2115310541F4DC01ED91FC917A
:100B80000190F081E02D642F09940C946E059A0178
:100B9000AB0170E060E00C94BA052F923F924F9247
:100BA0005F926F927F928F929F92AF92BF92CF92FD
:100BB000DF92EF92FF921F93CF93DF93EC016A01D4
:100BC0007B01722EAB019601CB01B6010E94810E12
:100BD00064EE71E0811126C046015701E894B7F830
:100BE0002FEF3FEF4FE75FE7C501B4010E94810E91
:100BF00081110CC02FEF3FEF4FE75FE7C501B40154
:100C00000E94670C68EE71E0181664F02FEF3FEF5A
:100C10004FE75FE4C701B6010E94BF0D1816B4F498
:100C20006CEE71E0CE01DF91CF911F91FF90EF90BC
:100C3000DF90CF90BF90AF909F908F907F906F90FC
:100C40005F904F903F902F900C943D052FEF3FEF1A
:100C50004FE75FECC701B6010E94670C87FDE0CF4C
:100C600020E030E0A901C701B6010E94670C312CD9
:100C7000212C87FF09C06DE2CE010E944C051C01AA
:100C8000F7FAF094F7F8F09410E060E070E080E09C
:100C90009FE3711641F020E030E040E251E40E9411
:100CA0006C0C1F5FF6CFA70196010E94FB0B2B0176
:100CB0003C010E94DE0C4B015C012AE0BC01A40156
:100CC000CE010E946E057C01E20CF31C1123B1F1F0
:100CD000C501B4010E940D0D9B01AC01C301B2011D
:100CE0000E94FA0B4B015C016EE2CE010E944C05A2
:100CF000E80EF91E115010F120E030E040E251E41E
:100D0000C501B4010E94C40D2B013C010E94DE0C00
:100D10004B014AE050E0CE010E94C705E80EF91EE3
:100D2000B40190E080E00E940D0D9B01AC01C30175
:100D3000B2010E94FA0B4B015C01DCCFC701DF91CD
:100D4000CF911F91FF90EF90DF90CF90BF90AF9029
:100D50009F908F907F906F905F904F903F902F90DB
:100D600008950F931F93CF93DF93EC010E94CD055D
:100D70008C01CE010E945305800F911FDF91CF910E
:100D80001F910F9108954F925F926F927F928F9271
:100D90009F92AF92BF92CF92DF92EF92FF920F930A
:100DA0001F93CF93DF9300D0CDB7DEB700916801DA
:100DB000109169019FB7F894D80118962D913C9134
:100DC000232B09F0A4C0882E80E19AE09A838983BE
:100DD0000E94500AA0906C01B0906D0181E090E0FB
:100DE000F801918780878286E0907401F090750108
:100DF000D12CC12CF4E08F9E40011124E80CF91C89
:100E0000370182E0680E711C46E0542EF3018081A8
:100E10009181C816D906E0F1E0907001F09071015F
:100E20003801F2E06F0E711CD12CC12CE80CF91CBA
:100E3000270182E0480E511C88248394912CF201F2
:100E400080819181C816D906E8F1D80118968D9154
:100E50009C911997019731F482E090E019969C9348
:100E60008E931897F80180859185029741F4D501FA
:100E700012966D917C91AB01C5010E941001F801A1
:100E800080859185029709F4789490E080E042C0D3
:100E9000D701ED91FC915C9CC0015D9C900D1124EB
:100EA000E80FF91FA081B1812481358142815381EE
:100EB000BD0112968D919C910E94FD09BFEFCB1A46
:100EC000DB0AA4CFD701ED91FC91C601880F991FD1
:100ED000E80FF91F40815181DA011496ED91FC91E0
:100EE00080818F5F808393828282F8016481758123
:100EF000DB018D919C911197958384831D921C92A7
:100F0000C3010E94AD08BFEFCB1ADB0A98CF9FBF89
:100F100081E090E00F900F90DF91CF911F910F91A2
:100F2000FF90EF90DF90CF90BF90AF909F908F9009
:100F30007F906F905F904F900895E0916801F091DD
:100F400069010190F081E02D8FB7F8946CEA77E0A9
:100F5000828193810E943001CF93DF9300D0CDB77F
:100F6000DEB7AE014F5F5F4F68E671E086E591E066
:100F70000E944409BC0189819A810E94770A0F90DE
:100F80000F90DF91CF9108950895EC01EC81FD81E0
:100F900081818F3F09F07894E985FA8509958FB7AB
:100FA000F8946CEA77E08A819B810E9430010F936C
:100FB0001F93CF93DF93CFB7F89468E671E086E58F
:100FC00091E00E94BC09CFBF0091680110916901B6
:100FD000C0916A01D0916B01F801808591858230C2
:100FE000910551F080916C0190916D01DF91CF914D
:100FF0001F910F910C948D0A209789F3FE0109959A
:10100000EBCF0F931F93CF93DF93EC01A881B981AE
:10101000EB01E881F9811696CD91DC911797209725
:10102000C1F18A819B81309709F43FC0EC010C81AA
:101030001D8122813381E9014C815D81E801398183
:10104000EA012981321788F522E030E0E8013B838C
:101050002A8320813181EB0139832883C281D381A6
:101060002C813D8116964D915C9117975183408359
:101070001796FC93EE931697CD93DC934C85F9016C
:101080005181541708F44183DF91CF911F910F9143
:101090000895309751F0EC018C819D81EC014C81D9
:1010A0005D8122E030E0EA01D2CF90E080E0ECCF39
:1010B000CF92DF92EF92FF920F931F93CF93DF9324
:1010C000EB01AA81BB811496ED91FC911597411516
:1010D000510501F12281338122303105D8F01B9670
:1010E0002C91DC01ED91FC91B0E0A0E03097A1F4EF
:1010F000109769F16D937C9390E080E0EB01F983A8
:10110000E883DF91CF911F910F91FF90EF90DF90D7
:10111000CF9008952181E5CF02811381E801CC8031
:10112000DD804115510581F0E601EA80FB80D2E0C7
:10113000ED16F10448F0E8013B853217C8F2DF01F3
:101140000190F081E02DD2CFE6013981F6CFDC01AC
:101150006D937C9381E090E0D1CFFB015383428378
:1011600041E050E00C945808EF92FF920F931F93C8
:10117000CF93DF938C01FC01C081D181EE80FF8091
:10118000F701808191819F838E83C8010E940108AD
:10119000892B41F4EE81FF81309761F08281938148
:1011A00099838883C701DF91CF911F910F91FF90A1
:1011B000EF900895F80184819581F2CFCF92DF926C
:1011C000EF92FF920F931F93CF93DF93DA01149660
:1011D000CD90DC901597E60198811D968C9198171B
:1011E00008F04FC0DB01ED91FC9100811181E80115
:1011F000EC80FD809F5FD6019C93A481B5816D91A9
:101200007C911197232B49F1E7019981E6018981AE
:10121000981718F57583648382E090E0E7019B835B
:101220008A8313965C934E931297868197811196C9
:101230009C938E93B783A68351834083BA01C801E0
:101240000E945C0A90E080E0DF91CF911F910F91A6
:10125000FF90EF90DF90CF900895E6018A819B8107
:10126000892B21F481E090E09B838A8375836483DA
:1012700011961C921E92BD01CF0102960E94AD08EC
:10128000E1CF84E090E0E0CFAF92BF92CF92DF92C7
:10129000EF92FF920F931F93CF93DF935B01DB01DC
:1012A000CD91DC91FE01019111917F01D80114963D
:1012B000CD90DC90FA0111830083D60112968D91B6
:1012C0009C910497A9F5B701C5010E94B408AC012F
:1012D000888199810817190731F1D8011496ED9189
:1012E000FC9115971B962C912183208121502083FE
:1012F000211114C0138212822C813D81DA012D93B9
:101300003C935D834C83DF91CF911F910F91FF90B0
:10131000EF90DF90CF90BF90AF90089521E030E044
:1013200033832283E9CFF601208121502083E4CF4B
:101330006E817F81FB01808191819F838E83D801A3
:101340001B968C91F601818381E090E093838283E8
:10135000A801C7010E94AD08B701C5010E9401089C
:10136000892B39F4EE81FF8182819381998388836F
:10137000CACF88819981C7CFCF93DF93CB01FB017F
:10138000C081D181BE016E5F7F4F0E94010800972E
:1013900049F0688179810E945C0A81E090E0DF91E8
:1013A000CF91089590E080E0FACFCF93DF93DB01F7
:1013B000ED91FC918081918126813781EC01AC8196
:1013C000BD8162E070E013967C936E931297518317
:1013D0004083A481B5816D917C911197758364835D
:1013E000B783A68313965C934E9312972D933C93E9
:1013F000BA01DF91CF910C945C0ADB01ED91FC9175
:10140000A481B581AB2B39F4378326830E94F30A7C
:1014100090E080E0089587E090E00895F894FFCF91
:10142000ECE108958F939F9380E00E941A0A9F91A8
:101430008F9118951F920F920FB60F9211242F9330
:101440003F934F935F936F937F93AF93BF93EF93CC
:10145000FF93E0915801F091590190E0880F991F96
:10146000E80FF91F40815181DA011496ED91FC914A
:1014700080818F5F808368E671E086E591E00E945D
:10148000D509FF91EF91BF91AF917F916F915F91DE
:101490004F913F912F910F900FBE0F901F90089585
:1014A00068EE73E080E090E00C949C0B80916E01FC
:1014B00090916F010C94130BFB01A481B5811296DE
:1014C0002D913C91139744E050E013965C934E931A
:1014D0001297DC0112964D915C9162817381CF016C
:1014E0002230310511F40C94C8000C941001CB018A
:1014F000DB011496ED91FC9115972281338144E034
:1015000050E05383428312966D917C9122303105D5
:1015100011F40C94E8000C940801DC0112966D9112
:101520007C911397ED91FC9140815181DB01ED910C
:10153000FC91228933892115310519F0421753078F
:1015400029F4DB01ED93FC930C94E800F901F1CF51
:10155000EF92FF920F931F93CF93DF93DC018D9156
:101560009C91DC01ED91FC91119712960D911C91CB
:10157000DB01CD91DC9121E030E03D832C835B8366
:101580004A8330E020E03097E1F0A081B1811296EB
:10159000ED90FC9013970E151F0568F44E155F052E
:1015A00018F40417150768F0FC901196AC919F0190
:1015B000EF2DFA2FE8CF0417150718F04E155F0529
:1015C00098F72115310519F0D9018D919C91DC0115
:1015D0006D937C93F983E883DF91CF911F910F91F5
:1015E000FF90EF900895CF93DF93DC011296ED9179
:1015F000FC9113970D90BC91A02D12962D913C91CA
:10160000DF01A41BB50BA217B30730F0420F531F25
:10161000DF91CF910C94A80A41505109420F531FFA
:101620004E1B5F0BF5CFAF92BF92CF92DF92EF923E
:10163000FF920F931F93CF93DF93DC010D911C91C9
:101640001197F8012281338112964D915C912417F4
:10165000350708F45FC01382128230E020E0F80101
:10166000C081D181209709F44AC0A881B98112961E
:101670004D915C914217530709F041C0DE012D9155
:101680003C91F901A081B181109749F06D917C9155
:101690001197FB01628173814617570781F37C0123
:1016A000F90111821082F801B183A08308811981A8
:1016B000D801AC901196BC9011971696CD90DC9005
:1016C0002A853B852230310551F12330310561F106
:1016D000232B51F44E815F8130E020E068E671E019
:1016E00086E591E00E94DE08C114D10409F1A6014B
:1016F000BE01C7010E94F30AE5012097B9F6DF9108
:10170000CF911F910F91FF90EF90DF90CF90BF90FE
:10171000AF9008952F5F3F4F33832283A0CF8885FA
:1017200099850E94130BE0CFEC81FD810995DCCFF8
:10173000F80115821482E0CF10928100109280008F
:10174000109282001092850010928400611520E1B1
:10175000720781059105A0F4E4E0660F771FEA9512
:10176000E1F76150710981E092E096BB90936F00C0
:101770007093890060938800886080938100089549
:10178000611520E872078105910530F4660F771F17
:101790006150710982E0E8CF6C3F2FEF720723E0C0
:1017A0008207910558F442E096958795779567955D
:1017B0004A95D1F76150710983E0D6CF6115710563
:1017C00020E18207910558F434E096958795779546
:1017D00067953A95D1F76150710984E0C5CF26E04D
:1017E00096958795779567952A95D1F761507109F8
:1017F00085E0BACF5058BB27AA270E94120C0C9440
:10180000850D0E94770D38F00E947E0D20F039F48E
:101810009F3F19F426F40C94740D0EF4E095E7FB49
:101820000C946E0DE92F0E94960D58F3BA176207BB
:1018300073078407950720F079F4A6F50C94B80D8A
:101840000EF4E0950B2EBA2FA02D0B01B9019001DB
:101850000C01CA01A0011124FF27591B99F0593F1F
:1018600050F4503E68F11A16F040A22F232F342F67
:101870004427585FF3CF469537952795A795F040B5
:101880005395C9F77EF41F16BA0B620B730B840BCA
:10189000BAF09150A1F0FF0FBB1F661F771F881F82
:1018A000C2F70EC0BA0F621F731F841F48F48795DA
:1018B00077956795B795F7959E3F08F0B0CF9395CC
:1018C000880F08F09927EE0F9795879508950E9445
:1018D0004A0D08F481E008950E94800C0C94850D57
:1018E0000E947E0D58F00E94770D40F029F45F3F72
:1018F00029F00C946E0D51110C94B90D0C94740DCB
:101900000E94960D68F39923B1F3552391F3951B2B
:10191000550BBB27AA2762177307840738F09F5F10
:101920005F4F220F331F441FAA1FA9F335D00E2E7D
:101930003AF0E0E832D091505040E695001CCAF7EA
:101940002BD0FE2F29D0660F771F881FBB1F2617AD
:1019500037074807AB07B0E809F0BB0B802DBF0184
:10196000FF2793585F4F3AF09E3F510578F00C9453
:101970006E0D0C94B90D5F3FE4F3983ED4F3869559
:1019800077956795B795F7959F5FC9F7880F911D74
:101990009695879597F90895E1E0660F771F881F60
:1019A000BB1F621773078407BA0720F0621B730B13
:1019B000840BBA0BEE1F88F7E09508950E949E0DE8
:1019C00088F09F5798F0B92F9927B751B0F0E1F000
:1019D000660F771F881F991F1AF0BA95C9F714C0B0
:1019E000B13091F00E94B80DB1E008950C94B80D9B
:1019F000672F782F8827B85F39F0B93FCCF38695E9
:101A000077956795B395D9F73EF490958095709545
:101A100061957F4F8F4F9F4F0895E89409C097FBC2
:101A20003EF490958095709561957F4F8F4F9F4FB5
:101A30009923A9F0F92F96E9BB279395F6958795F9
:101A400077956795B795F111F8CFFAF4BB0F11F4BC
:101A500060FF1BC06F5F7F4F8F4F9F4F16C0882363
:101A600011F096E911C0772321F09EE8872F762F99
:101A700005C0662371F096E8862F70E060E02AF0DA
:101A80009A95660F771F881FDAF7880F96958795C6
:101A900097F90895990F0008550FAA0BE0E8FEEF9B
:101AA00016161706E807F907C0F012161306E40722
:101AB000F50798F0621B730B840B950B39F40A261B
:101AC00061F0232B242B252B21F408950A2609F4F9
:101AD000A140A6958FEF811D811D089597F99F67FD
:101AE00080E870E060E008959FEF80EC08950024A6
:101AF0000A941616170618060906089500240A9473
:101B000012161306140605060895092E0394000CF8
:101B100011F4882352F0BB0F40F4BF2B11F460FF87
:101B200004C06F5F7F4F8F4F9F4F089557FD9058B0
:101B3000440F551F59F05F3F71F04795880F97FB91
:101B4000991F61F09F3F79F087950895121613064B
:101B50001406551FF2CF4695F1DF08C0161617067A
:101B60001806991FF1CF86957105610508940895AF
:101B7000E894BB2766277727CB0197F908950E9441
:101B80004A0D08F48FEF08950E94D70D0C94850D2F
:101B90000E94770D38F00E947E0D20F0952311F001
:101BA0000C946E0D0C94740D11240C94B90D0E94BC
:101BB000960D70F3959FC1F3950F50E0551F629FEE
:101BC000F001729FBB27F00DB11D639FAA27F00D96
:101BD000B11DAA1F649F6627B00DA11D661F829FBD
:101BE0002227B00DA11D621F739FB00DA11D621FA2
:101BF000839FA00D611D221F749F3327A00D611DBF
:101C0000231F849F600D211D822F762F6A2F1124A0
:101C10009F5750409AF0F1F088234AF0EE0FFF1FD3
:101C2000BB1F661F771F881F91505040A9F79E3F2A
:101C3000510580F00C946E0D0C94B90D5F3FE4F3E8
:101C4000983ED4F3869577956795B795F795E79580
:101C50009F5FC1F7FE2B880F911D9695879597F989
:101C60000895FA01EE0FFF1F309621053105A1F10D
:101C70006115710561F48038BFE39B0749F16894F1
:101C80009038810561F08038BFEF9B0741F09923C0
:101C90004AF5FF3FE1053105210519F1E894089463
:101CA000E795D901AA2329F4AB2FBE2FF85FD0F313
:101CB00010C0FF5F70F4A695E0F7F73950F019F007
:101CC000FF3A38F49F779F930DD00F9007FC905800
:101CD000089546F00C94740D60E070E080E89FE396
:101CE00008954FE79F775F934F933F932F930E9401
:101CF000310F2F913F914F915F910E94C40D0C9431
:101D00008E0E0E944A0D880B990B089529F416F047
:101D10000C946E0D0C94B80D0C94740D0E949E0DD5
:101D2000A8F39638A0F707F80F92E8942BE33AEA65
:101D300048EB5FE70E94DA0D0F920F920F924DB7BA
:101D40005EB70F920E94790FE8E6F0E00E94C00EA5
:101D50004F915F91EF91FF91E595EE1FFF1F49F0C5
:101D6000FE57E0684427EE0F441FFA95E1F74195CE
:101D7000550B0E94F30E0F9007FE0C94E70E08958A
:101D8000DF93CF931F930F93FF92EF92DF927B012C
:101D90008C01689406C0DA2EEF010E94D70DFE0177
:101DA000E894A5912591359145915591A6F3EF01C0
:101DB0000E94120CFE019701A801DA9469F7DF90E6
:101DC000EF90FF900F911F91CF91DF9108959B01AC
:101DD000AC0160E070E080E89FE30C946C0C0C9424
:101DE0006E0D0C94AD0F0E949E0DD8F39923C9F38C
:101DF000940F511DA3F39150504094F059F0882353
:101E000032F0660F771F881F91505040C1F79E3FF8
:101E100051052CF7880F911D9695879597F9089590
:101E20005F3FACF0983E9CF0BB2786957795679511
:101E3000B79508F4B1609395C1F7BB0F58F711F44B
:101E400060FFE8CF6F5F7F4F8F4F9F4FE3CF0C94C2
:101E5000B90D16F00C94AD0F0C94740D68940C949D
:101E60006E0D0E949E0DA8F39923C1F3AEF3DF938C
:101E7000CF931F930F93FF92C92FDD2788232AF05A
:101E80002197660F771F881FDAF720E030E040E8DF
:101E90005FEB9FE3883920F0803E38F021968F7702
:101EA0000E94FB0BE0E9F0E004C00E94FB0BEDEBAD
:101EB000F0E00E94C00E8B01BE01EC01FB2E6F57BB
:101EC00071097595771F880B990B0E940F0D28E1FA
:101ED00032E741E35FE30E94D70DAF2D9801AE01D9
:101EE000FF900F911F91CF91DF910E94120C0C94E3
:101EF000850DFA01DC01AA0FBB1F9B01AC01BF5786
:101F000028F4222733274427507820C0B75190F473
:101F1000AB2F0024469537952795011CA395D2F346
:101F2000002071F0220F331F441FB395DAF30ED057
:101F30000C94FA0B61307105A0E88A07B94630F4B9
:101F40009B01AC016627772788279078309621F08F
:101F5000208331834283538308959F3F31F0915012
:101F600020F4879577956795B795880F911D96957D
:101F7000879597F90895A1E21A2EAA1BBB1BFD01B4
:101F80000DC0AA1FBB1FEE1FFF1FA217B307E40758
:101F9000F50720F0A21BB30BE40BF50B661F771FB0
:101FA000881F991F1A9469F7609570958095909590
:101FB0009B01AC01BD01CF010895EE0FFF1F0590FD
:0A1FC000F491E02D0994F894FFCF8E
:101FCA00C0010000120100000000FF000000000034
:101FDA00000016010000000000000080000000015F
:101FEA000000010004000154657374204661696CA5
:101FFA0065642121212C206C696E653A3930200DE7
:10200A000A0048656C6C6F204F53454B2D41726432
:10201A0075696E6F2100A0029E0112010300020081
:10202A00900101008201010000013A01C001920100
:10203A0098010100780101007C010100840101007E
:10204A00F4018401A10292010000B2010000000023
:10205A009201A902FFFF01009C010100B201A40143
:10206A00B201C001CE01F2011A01000200560A8033
:10207A00FF01CE01F2011E01010000AB01010101C5
:10208A00CE01F2012201020300D70700000100007D
:10209A00000000000000D20310057303B2034503D9
:1020AA005F0351036E616E00696E66006F766600AB
:00000001FF
