S00F000061726475696E6F2E7372656323
S11300000C945D000C94550D0C9485000C948500A3
S11300100C9485000C9485000C9485000C94850048
S11300200C9485000C9485000C9485000C945D0D53
S11300300C9485000C9485000C9485000C94850028
S11300400C9490020C9485000C9442050C94740555
S11300500C9485000C9485000C9485000C94850008
S11300600C9485000C948500000000080002010037
S1130070000304070000000000000000010204085F
S113008010204080010204081020010204081020FE
S1130090040404040404040402020202020203032A
S11300A00303030300000000250028002B000000C8
S11300B00000240027002A00A40511241FBECFEF4E
S11300C0D8E0DEBFCDBF12E0A0E0B1E0EEE3F0E2A5
S11300D002C005900D92AE3AB107D9F723E0AEEA1B
S11300E0B2E001C01D92A13FB207E1F710E0CDE5F7
S11300F0D0E004C02197FE010E941710CC35D1072F
S1130100C9F70E9425020C941D100C94510D000097
S11301102F923F924F925F926F927F928F929F9213
S1130120AF92BF92CF92DF92EF92FF920F931F9301
S1130130CF93DF93E42FF52F419050804F925F923D
S1130140E42FF52F4DB65EB6419250820C94A80070
S1130150E62FF72F419050804DBE5EBE5F904F90CA
S1130160E62FF72F41925082DF91CF911F910F918B
S1130170FF90EF90DF90CF90BF90AF909F908F90C3
S11301807F906F905F904F903F902F900C94900AC7
S1130190E62FF72F419150814DBF5EBF0C94A60A04
S11301A02F923F924F925F926F927F928F929F9283
S11301B0AF92BF92CF92DF92EF92FF920F931F9371
S11301C0CF93DF93E42FF52F419050804F925F92AD
S11301D0E42FF52F4DB65EB6419250820C94C800C0
S11301E0E82FF92F419150814DBF5EBFE62FF72FC5
S11301F00994000061E084E00E949C0360E084E0D4
S11302000E94D80361E085E00E949C0360E085E0E1
S11302100E94D80361E086E00E949C0360E086E0CF
S11302200E94D80361E087E00E949C0360E087E0BD
S11302300E94D80361E083E00E949C0360E083E0B5
S11302400E94D80360E082E00E949C03E9E6F0E0AB
S1130250808182608083E89A26E040E052EC61E08D
S113026070E08AEB92E00C94E00461E084E00E9488
S1130270D80361E085E00E94D80361E086E00E9433
S1130280D80361E087E00E94D80361E083E00E9424
S1130290D8036AEF70E080E090E00E94FF0260E023
S11302A084E00E94D80360E085E00E94D80360E007
S11302B086E00E94D80360E087E00E94D80360E0F3
S11302C083E00E94D80369E170E080E090E00C9440
S11302D0FF020F931F93CF93DF93EC010E94710AE7
S11302E08C01C430D10509F453C0E8F4C130D10500
S11302F0A1F1C330D105E9F14AE050E0BE018AEB37
S113030092E00E94CB0669E671E08AEB92E00E94DB
S11303100D060E94710A4AE050E0BC018AEB92E0AB
S11303200E94D2063BC0C730D105F1F1CE30D105D1
S113033019F76AE971E08AEB92E00E940D06063231
S1130340110509F041C06EEA71E08AEB92E0DF9199
S1130350CF911F910F910C9420064AE050E061E088
S113036070E08AEB92E0DF91CF911F910F910C9492
S1130370D20662E671E08AEB92E00E940D064AE042
S113038050E0B8018AEB92E00E94D2060E94350147
S11303906BE671E08AEB92E00E940D06DF91CF914B
S11303A01F910F910C94350166E771E08AEB92E09E
S11303B00E940D060832110589F762E871E08AEBA4
S11303C092E00E942006EACFDF91CF911F910F9116
S11303D008950F931F93CF93DF9300D0CDB7DEB76B
S11303E08DB79EB79A8389838091AE029091AF02B4
S11303F0892BA9F489819A819093AF028093AE02EC
S1130400F89483E494E0892B11F00E9443047894D7
S11304100F900F90DF91CF911F910F91089520912C
S1130420AE023091AF0289819A812817390741F3CE
S1130430F89483EC91E00E942E0203E414E0011589
S11304401105E9F30E944304FACF0E943803809116
S1130450B0020E94110790E080E00895F894FC0136
S113046001900020E9F73197AF01481B590BBC01FB
S11304708AEB92E00E94D1057894089550E040E020
S113048068EE73E081E00E94360861E070E082E08B
S11304900C942209CF93C82FF89461E00E94D803EA
S11304A0789464EF71E080E090E00E94FF02F89499
S11304B060E08C2F0E94D803789464EF71E080E0B0
S11304C090E0CF910C94FF02CF93DF9300D0CDB78F
S11304D0DEB783E090E00E949B08BE016F5F7F4F10
S11304E082E00E94B609898180FF08C084E090E020
S11304F00E944A0282E090E00E942B0A898180FFD8
S1130500E8CF87E090E00E944A0281E090E00E94F8
S11305102B0ADFCF83E090E00E944A020C94040887
S11305201F920F920FB60F9211242F933F938F9324
S11305309F93AF93BF938091B2029091B302A09125
S1130540B402B091B5023091B10223E0230F2D37EC
S113055058F50196A11DB11D2093B1028093B202FA
S11305609093B302A093B402B093B5028091B60203
S11305709091B702A091B802B091B9020196A11D61
S1130580B11D8093B6029093B702A093B802B093C2
S1130590B902BF91AF919F918F913F912F910F908D
S11305A00FBE0F901F90189526E8230F0296A11DE9
S11305B0B11DD2CF3FB7F8948091B6029091B702A3
S11305C0A091B802B091B90226B5A89B05C02F3FEF
S11305D019F00196A11DB11D3FBFBA2FA92F982F65
S11305E08827BC01CD01620F711D811D911D42E060
S11305F0660F771F881F991F4A95D1F708958F9228
S11306009F92AF92BF92CF92DF92EF92FF926B01D3
S11306107C010E94DA024B015C01C114D104E104A3
S1130620F104E9F00E94E4060E94DA0268197909EB
S11306308A099B09683E73408105910570F321E0A6
S1130640C21AD108E108F10888EE880E83E0981EEA
S1130650A11CB11CC114D104E104F10429F7FF90D9
S1130660EF90DF90CF90BF90AF909F908F900895C0
S1130670789484B5826084BD84B5816084BD85B579
S1130680826085BD85B5816085BDEEE6F0E0808140
S113069081608083E1E8F0E0108280818260808361
S11306A0808181608083E0E8F0E0808181608083E4
S11306B0E1EBF0E0808184608083E0EBF0E0808116
S11306C081608083EAE7F0E08081846080838081B8
S11306D08260808380818160808380818068808360
S11306E01092C1000895833081F028F4813099F08C
S11306F08230A9F008958730A9F08830C9F0843099
S1130700B1F4809180008F7D03C0809180008F7749
S113071080938000089584B58F7784BD089584B54F
S11307208F7DFBCF8091B0008F778093B0000895C8
S11307308091B0008F7DF9CFCF93DF9390E0FC01DF
S1130740E458FF4F249180579F4FFC0184918823E4
S1130750C9F090E0880F991FFC01E255FF4FA59165
S1130760B491FC01EC55FF4FC591D49161110DC0BA
S11307709FB7F8948C91209582238C9388812823A9
S113078028839FBFDF91CF910895623051F49FB7C2
S1130790F8943C91822F809583238C93E8812E2BAF
S11307A0EFCF8FB7F894EC912E2B2C938FBFEACF19
S11307B01F93CF93DF93282F30E0F901E859FF4FBF
S11307C08491F901E458FF4FD491F901E057FF4FA8
S11307D0C491CC23A9F0162F81110E947303EC2F2E
S11307E0F0E0EE0FFF1FEC55FF4FA591B4918FB7CA
S11307F0F894EC91111108C0D095DE23DC938FBFDF
S1130800DF91CF911F910895DE2BF8CFFC01918DDC
S1130810228D892F90E0805C9F4F821B91098F73FA
S113082099270895FC01918D828D981731F0828D5E
S1130830E80FF11D858D90E008958FEF9FEF0895E7
S1130840FC01918D828D981761F0A28DAE0FBF2FA0
S1130850B11D5D968C91928D9F5F9F73928F90E0F6
S113086008958FEF9FEF0895FC01538D448D252F3C
S113087030E0842F90E0821B930B541710F0CF9636
S11308800895019708958AE995E0892B49F080E05D
S113089090E0892B29F00E949A0581110C940000A4
S11308A00895FC01A48DA80FB92FB11DA35ABF4F01
S11308B02C91848D90E001968F739927848FA6895B
S11308C0B7892C93A089B1898C91837080648C93AF
S11308D0938D848D981306C00288F389E02D80815E
S11308E08F7D80830895CF93DF93EC01888D8823D7
S11308F0B9F0AA89BB89E889F9898C9185FD03C07F
S1130900808186FD0DC00FB607FCF7CF8C9185FF63
S1130910F2CF808185FFEDCFCE010E945104E9CF53
S1130920DF91CF910895EF92FF920F931F93CF938E
S1130930DF93EC0181E0888F9B8D8C8D98131AC016
S1130940E889F989808185FF15C09FB7F894EE89FD
S1130950FF896083E889F98980818370806480835A
S11309609FBF81E090E0DF91CF911F910F91FF90A5
S1130970EF900895F62E0B8D10E00F5F1F4F0F734D
S11309801127E02E8C8D8E110CC00FB607FCFACF08
S1130990E889F989808185FFF5CFCE010E94510451
S11309A0F1CFEB8DEC0FFD2FF11DE35AFF4FF082D9
S11309B09FB7F8940B8FEA89FB8980818062CFCF3F
S11309C0CF92DF92EF92FF921F93CF93DF93EC01CC
S11309D06A017B01122FE889F98982E08083C114BE
S11309E081EED806E104F104A1F060E079E08DE342
S11309F090E0A70196010E94F50F215031094109A9
S1130A0051095695479537952795211580E1380763
S1130A1098F0E889F989108260E874E88EE190E042
S1130A20A70196010E94F50F21503109410951098E
S1130A305695479537952795EC85FD853083EE854A
S1130A40FF852083188EEC89FD891083EA89FB8950
S1130A50808180618083EA89FB89808188608083CA
S1130A60EA89FB89808180688083EA89FB898081A7
S1130A708F7D8083DF91CF911F91FF90EF90DF9066
S1130A80CF9008951F920F920FB60F9211242F93B7
S1130A908F939F93EF93FF93E091CA02F091CB025F
S1130AA08081E091D002F091D10282FD1BC090813F
S1130AB08091D3028F5F8F732091D402821741F00B
S1130AC0E091D302F0E0E654FD4F958F8093D3027A
S1130AD0FF91EF919F918F912F910F900FBE0F90E7
S1130AE01F9018958081F4CF1F920F920FB60F922A
S1130AF011242F933F934F935F936F937F938F931F
S1130B009F93AF93BF93EF93FF938AEB92E00E947E
S1130B105104FF91EF91BF91AF919F918F917F917C
S1130B206F915F914F913F912F910F900FBE0F9056
S1130B301F9018958AEB92E00E94060421E0892B0D
S1130B4009F420E0822F0895EAEBF2E01382128286
S1130B5088EE93E0A0E0B0E084839583A683B78316
S1130B6080EA92E09183808385EC90E09587848786
S1130B7084EC90E09787868780EC90E0918B808B63
S1130B8081EC90E0938B828B82EC90E0958B848B4C
S1130B9086EC90E0978B868B118E128E138E148EBA
S1130BA00895AF92BF92CF92DF92EF92FF920F938C
S1130BB01F93CF93DF936C017B018B01040F151FEF
S1130BC0EB015E01AE18BF08C017D10759F0699157
S1130BD0D601ED91FC910190F081E02DC6010995BB
S1130BE0892B79F7C501DF91CF911F910F91FF9068
S1130BF0EF90DF90CF90BF90AF900895FB010190EC
S1130C000020E9F73197AF01461B570BDC01ED914A
S1130C10FC910280F381E02D09946115710511F0B6
S1130C200C94FE0590E080E00895DC01ED91FC91C8
S1130C300190F081E02D09946CED71E00C94FE05B7
S1130C400F931F93CF93DF938C01D0E0C0E0611525
S1130C50710519F00E94FE05EC01C8010E941C06F2
S1130C608C0F9D1FDF91CF911F910F9108958F924B
S1130C709F92AF92BF92EF92FF920F931F93CF93E5
S1130C80DF93CDB7DEB7A1970FB6F894DEBF0FBEE2
S1130C90CDBF7C01FA01CB0119A2223008F42AE06D
S1130CA08E010F5D1F4F822E912CB12CA12CBF0100
S1130CB0A50194010E94F50FF901CA016A300CF5EF
S1130CC0605DD8016E938D01232B242B252B79F79E
S1130CD090E080E0109721F0BD01C7010E94FE055D
S1130CE0A1960FB6F894DEBF0FBECDBFDF91CF91B2
S1130CF01F910F91FF90EF90BF90AF909F908F90B6
S1130D000895695CDECFCF92DF92EF92FF920F934A
S1130D101F93CF93DF932115310581F4DC01ED910D
S1130D20FC910190F081E02D642FDF91CF911F9110
S1130D300F91FF90EF90DF90CF9009942A30310506
S1130D4001F52AE077FF1DC06A017B01EC016DE229
S1130D500E9415068C0144275527BA014C195D09D8
S1130D606E097F092AE0CE010E943706800F911F89
S1130D70DF91CF911F910F91FF90EF90DF90CF9073
S1130D800895DF91CF911F910F91FF90EF90DF9025
S1130D90CF900C9437069A01AB01770F660B770B53
S1130DA00C9483060F931F93CF93DF93EC010E945F
S1130DB0CB068C01CE010E941C06800F911FDF918F
S1130DC0CF911F910F9108950895FC01818D811198
S1130DD00BC0828D811108C021E090E0838D8111C8
S1130DE001C020E0822F089581E090E008950F93E0
S1130DF01F93CF93DF93EC010D891E8903301105F6
S1130E0059F0CB0123E030E03E8B2D8B7C876B8740
S1130E100E9469011E8B0D8BDF91CF911F910F9161
S1130E2008954F925F926F927F928F929F92AF92AA
S1130E30BF92CF92DF92EF92FF920F931F93CF93C3
S1130E40DF9300D0CDB7DEB7882E0091F501109165
S1130E50F601FFB6F894D80118968D919C911997D4
S1130E60892B09F0B0C083E59DE09A8389830E94B1
S1130E709B0DA090F901B090FA0181E090E0F80197
S1130E80918780878286E588F68887E090E0968B54
S1130E90858B0E94FA00D8015696FC92EE925597E3
S1130EA0E0900102F0900202D12CC12CB4E08B9EA0
S1130EB040011124E80CF91C3701E2E06E0E711CAC
S1130EC046E0542EF30180819181C816D906E0F1E1
S1130ED0E090FD01F090FE013801F2E06F0E711C0C
S1130EE0D12CC12CE80CF91C270182E0480E511CBE
S1130EF088248394912CF20180819181C816D906AB
S1130F00E8F1D80118968D919C911997019731F4C5
S1130F1082E090E019969C938E931897F80180854F
S1130F209185029741F4D50112966D917C91AB01A4
S1130F30C5010E94D000F80180859185029709F4CB
S1130F40789490E080E04DC0D701ED91FC915C9CD9
S1130F50C0015D9C900D1124E80FF91FA081B1819F
S1130F602481358142815381BD0112968D919C91DA
S1130F700E94400DBFEFCB1ADB0AA4CFD701ED913D
S1130F80FC91C601880F991FE80FF91F4081518118
S1130F90DA011496ED91FC9180818F5F80839382B6
S1130FA08282F80164817581DB018D919C91119796
S1130FB0958384831D921C92C3010E94900BBFEF02
S1130FC0CB1ADB0A98CF88E390E01E969C938E930D
S1130FD01D9761E070E0C8010E94F706FFBE81E042
S1130FE090E00F900F90DF91CF911F910F91FF90A0
S1130FF0EF90DF90CF90BF90AF909F908F907F90B5
S11310006F905F904F9008951F93CF93DF938091DB
S1131010F5019091F601DC01ED91FC912781308579
S11310202230310588F4A481B58114962D913C9128
S1131030C6E0D0E0232B51F48FB7F89468E77AE048
S1131040828193810E94F000C2E0D0E01FB7F8943F
S113105022E030E0FC0136872587BE010E94F706B6
S11310601FBFCE01DF91CF911F910895BF92CF9200
S1131070DF92EF92FF920F931F93CF93DF936B0155
S11310808A01E82EF12C8091F3019091F401E81685
S1131090F906B0F5672B09F44BC0E091F101F0912A
S11310A0F201C701880F991FE80FF91F6081718150
S11310B0FB0182819381FC01228133812C153D0542
S11310C0B8F1452B41F0468157810417150780F18B
S11310D02017310768F1BFB6F8949801A6010E9461
S11310E0400DEC01BFBE892B69F4CE01DF91CF9195
S11310F01F910F91FF90EF90DF90CF90BF900895D4
S1131100C3E0D0E0E091F501F091F601BFB6F894A8
S113111088E290E096878587F08AE786D28AC18A3A
S1131120148B038BBE01CF010E94F706BFBEDDCF37
S1131130C8E0D0E0E7CF9F92AF92BF92CF92DF9208
S1131140EF92FF920F931F93CF93DF9300D0CDB70D
S1131150DEB76C01E090F501F090F601C7010E9442
S1131160E506892B09F045C0D701AD90BC90F50187
S11311708781908502E010E082309105E0F50481DA
S11311801581D80114962D913C911597232B09F0C4
S113119053C0019709F053C018968D919C918C21EE
S11311A09D21892B19F59FB6F894F801D782C68240
S11311B0AE014F5F5F4F65EF71E08FED91E00E94EC
S11311C02B0CE981FA81D70114962D913C91159746
S11311D0318320831596FC93EE931497BC01C501CB
S11311E00E94A70DF801178216829FBE10E000E04E
S11311F014C00CE010E0BFB6F89482E290E0D7018E
S11312001E969C938E931D975096DC92CE921F97B8
S1131210B801C7010E94F706BFBEC8010F900F9026
S1131220DF91CF911F910F91FF90EF90DF90CF90BE
S1131230BF90AF909F90089506E010E0DCCF01E0EE
S113124010E0D9CFDF92EF92FF920F931F93CF93C9
S1131250DF93182F7B01C091F501D091F601CE01E7
S11312600E94E506212F30E0892B09F076C0E88141
S1131270F98187819085039708F072C08091E50118
S11312809091E6012817390708F06DC0E091E1015B
S1131290F091E201C901880F991FE80FF91FA0819D
S11312A0B1811496ED91FC9115971FB7F894179698
S11312B08D919C911897019799F01FBF01E010E060
S11312C0DFB6F8948CE190E09E878D87388B2F876A
S11312D0FA8AE98AB801CE010E94F706DFBE34C05B
S11312E0428153814115510521F41FBF07E010E0ED
S11312F0E7CF808591858E299F2991878087868174
S11313009781E822F922EF28E1F043305105C9F42E
S1131310EC81FD81808191819D838C831182108277
S1131320B383A283AF0165EF71E08FED91E00E947A
S1131330500C892B31F065EF71E08FED91E00E9444
S1131340FF0C1FBF10E000E0C801DF91CF911F9197
S11313500F91FF90EF90DF9008950CE010E0B0CF74
S113136002E010E0ADCF03E010E0AACFDF92EF92ED
S1131370FF920F931F93CF93DF93C82F7B010091AC
S1131380F5011091F601C8010E94E5062C2F30E00A
S1131390892BE1F5D801ED91FC9187819085039724
S11313A008F04DC08091E5019091E60128173907B6
S11313B008F048C0E091E101F091E201C901880F11
S11313C0991FE80FF91F0190F081E02D8781908526
S11313D0C1E0D0E00197E1F40480F581E02D828141
S11313E09381892B91F1E114F10491F18085918528
S11313F0F70191838083D0E0C0E0CE01DF91CF91EB
S11314001F910F91FF90EF90DF900895CCE0D0E012
S1131410DFB6F89480E290E0D8011E969C938E93F8
S11314201D9750963C932E931F975296FC92EE92E2
S11314305197BE01C8010E94F706DFBEDECFC2E0AD
S1131440D0E0E6CFC3E0D0E0E3CFC7E0D0E0E0CF28
S1131450CEE0D0E0DDCFDF92EF92FF920F931F93A7
S1131460CF93DF937C010091F5011091F601C8013F
S11314700E94E506892B21F5D801ED91FC91878125
S11314809085C2E0D0E082309105E0F4C1E0D0E084
S11314900197C1F40480F581E02DE094F0948085F7
S11314A09185E822F922F186E086D0E0C0E0CE0101
S11314B0DF91CF911F910F91FF90EF90DF900895EE
S11314C0CCE0D0E0DFB6F8948EE190E0F8019687A6
S11314D08587F08AE786BE01C8010E94F706DFBE51
S11314E0E6CFE091F501F091F601858596850895A2
S11314F0CF93DF9300D0CDB7DEB7AE014F5F5F4F20
S113150065EF71E08FED91E00E94820CBC0189814E
S11315109A810E94C20D0F900F90DF91CF91089590
S1131520E091F501F091F601DC0117968D919C9103
S11315308230910528F481E090E0968B858B0895A4
S113154082309105D1F38AE090E0F7CFEC01EC8191
S1131550FD8111810E94900A1F3F09F07894E9856A
S1131560FA8509958FB7F89468E77AE08A819B81B8
S11315700E94F0000F931F93CF93DF93CFB7F8949B
S113158065EF71E08FED91E00E94FF0CCFBF0091F9
S1131590F5011091F601C091F701D091F801F8011D
S11315A0808591858230910551F08091F901909167
S11315B0FA01DF91CF911F910F910C94D80D2097D0
S11315C089F3FE010995EBCF0F931F93CF93DF931C
S11315D0EC01A881B981EB01E881F9811696CD91DE
S11315E0DC9117972097C1F18A819B81309709F488
S11315F03FC0EC010C811D8122813381E9014C81C2
S11316005D81E8013981EA012981321788F522E0F8
S113161030E0E8013B832A8320813181EB01398367
S11316202883C281D3812C813D8116964D915C9192
S11316301797518340831796FC93EE931697CD9397
S1131640DC934C85F9015181541708F44183DF91EF
S1131650CF911F910F910895309751F0EC018C8137
S11316609D81EC014C815D8122E030E0EA01D2CF22
S113167090E080E0ECCFCF92DF92EF92FF920F9355
S11316801F93CF93DF93EB01AA81BB811496ED9155
S1131690FC9115974115510501F1228133812230C6
S11316A03105D8F01B962C91DC01ED91FC91B0E052
S11316B0A0E03097A1F4109769F16D937C9390E0CA
S11316C080E0EB01F983E883DF91CF911F910F91C3
S11316D0FF90EF90DF90CF9008952181E5CF0281B4
S11316E01381E801CC80DD804115510581F0E601CC
S11316F0EA80FB80D2E0ED16F10448F0E8013B8576
S11317003217C8F2DF010190F081E02DD2CFE6015B
S11317103981F6CFDC016D937C9381E090E0D1CFE9
S1131720FB015383428341E050E00C943B0BEF9266
S1131730FF920F931F93CF93DF938C01FC01C08121
S1131740D181EE80FF80F701808191819F838E8318
S1131750C8010E94E40A892B41F4EE81FF8130978D
S113176061F08281938199838883C701DF91CF914E
S11317701F910F91FF90EF900895F8018481958156
S1131780F2CFCF92DF92EF92FF920F931F93CF93FA
S1131790DF93DA011496CD91DC91159798811D960B
S11317A08C91981708F054C0DB01ED91FC910081F5
S11317B01181D8011496ED90FC909F5F9883C480AA
S11317C0D580D6016D917C91232B69F1D7011196B7
S11317D09C9111978981981730F57583648382E011
S11317E090E013969C938E931297D60113965C9374
S11317F04E931297868197818D939C93D782C6824C
S11318005183408319861886BA01C8010E94A70D26
S113181090E080E0DF91CF911F910F91FF90EF90C6
S1131820DF90CF9008958A819B81892B31F481E0E8
S113183090E09B838A831986188675836483D60116
S11318401D921C92B601CF0102960E94900BE0CF2C
S113185084E090E0DFCFEF92FF920F931F93CF933A
S1131860DF93CB017A01DB01CD91DC91FE01019183
S11318701191BF010E94970BD7018D939C93D801BE
S11318801496ED91FC9183E090E0938382838881A8
S11318909981DF91CF911F910F91FF90EF9008955F
S11318A00F931F93CF93DF93FA01DB010D911C91EA
S11318B042815381DA011496CD91DC91159782E02F
S11318C090E09B838A831B968C918983BF01C80116
S11318D002960E94900B019791F4D801ED91FC912E
S11318E00480F581E02D81E090E039812181231786
S11318F008F080E0DF91CF911F910F91089580E06F
S113190090E0F8CFAF92BF92CF92DF92EF92FF9226
S11319100F931F93CF93DF935B01DB01CD91DC9198
S1131920FE01019111916F01D8011496ED90FC9084
S1131930FA0111830083D70112968D919C9104972B
S1131940A9F5B601C5010E94970BAC018881998164
S11319500817190731F1D8011496ED91FC911597E8
S11319601B962C912183208121502083211114C0A6
S1131970138212822C813D81DA012D933C935D8385
S11319804C83DF91CF911F910F91FF90EF90DF90E7
S1131990CF90BF90AF90089521E030E0338322834D
S11319A0E9CFF701208121502083E4CF6E817F812C
S11319B0FB01808191819F838E83D8011B968C913A
S11319C0F701818381E090E0938382838081813079
S11319D011F411861086A801C6010E94900BB6016D
S11319E0C5010E94E40A892B39F4EE81FF818281CA
S11319F0938199838883C5CF88819981C2CFCF93FE
S1131A00DF93CB01FB01C081D181BE016E5F7F4FAB
S1131A100E94E40A009749F0688179810E94A70D29
S1131A2081E090E0DF91CF91089590E080E0FACFDB
S1131A30CF93DF93DB01ED91FC918081918126812D
S1131A403781EC01AC81BD8162E070E013967C9338
S1131A506E93129751834083A481B5816D917C91DB
S1131A60119775836483B783A68313965C934E930F
S1131A7012972D933C93BA01DF91CF910C94A70D4B
S1131A80DB01ED91FC91A481B581AB2B39F4378353
S1131A9026830E943E0E90E080E0089587E090E067
S1131AA00895F894FFCFE2EA08958F939F9381E01D
S1131AB00E94650D9F918F9118958F939F9380E05D
S1131AC00E94650D9F918F9118951F920F920FB6EA
S1131AD00F9211242F933F934F935F936F937F93B0
S1131AE0AF93BF93EF93FF93E091E101F091E20193
S1131AF090E0880F991FE80FF91F40815181DA01A6
S1131B001496ED91FC9180818F5F808365EF71E085
S1131B108FED91E00E94180DFF91EF91BF91AF916D
S1131B207F916F915F914F913F912F910F900FBED5
S1131B300F901F90089568EE73E080E090E00C949D
S1131B40970F8091FB019091FC010C945E0EFB01B8
S1131B50A481B58112962D913C91139744E050E0F5
S1131B6013965C934E931297DC0112964D915C91FF
S1131B7062817381CF012230310511F40C94880005
S1131B800C94D000CB01DB011496ED91FC911597D8
S1131B902281338144E050E05383428312966D9155
S1131BA07C912230310511F40C94A8000C94C800E7
S1131BB0DC0112966D917C911397ED91FC9140811B
S1131BC05181DB01ED91FC91228933892115310585
S1131BD019F04217530729F4DB01ED93FC930C949D
S1131BE0A800F901F1CFEF92FF920F931F93CF93C7
S1131BF0DF93DC018D919C91DC01ED91FC911197B7
S1131C0012960D911C91DB01CD91DC9121E030E025
S1131C103D832C835B834A8330E020E03097E1F0FE
S1131C20A081B1811296ED90FC9013970E151F05BB
S1131C3068F44E155F0518F40417150768F0FC9056
S1131C401196AC919F01EF2DFA2FE8CF04171507D9
S1131C5018F04E155F0598F72115310519F0D901D3
S1131C608D919C91DC016D937C93F983E883DF91E2
S1131C70CF911F910F91FF90EF900895CF93DF9331
S1131C80DC011296ED91FC9113970D90BC91A02D5F
S1131C9012962D913C91DF01A41BB50BA217B3073B
S1131CA030F0420F531FDF91CF910C94F30D41504C
S1131CB05109420F531F4E1B5F0BF5CF2F923F92DA
S1131CC04F925F926F927F928F929F92AF92BF9248
S1131CD0CF92DF92EF92FF920F931F93CF93DF93F4
S1131CE000D000D0CDB7DEB7DC010D911C91119767
S1131CF0F8012281338112964D915C9124173507A6
S1131D0008F45AC01382128230E020E0F8010190F6
S1131D10F081E02DFC83EB83309709F491C00190AE
S1131D20F081E02D428153814217530709F088C0A6
S1131D30AB81BC812D913C91F901A081B1811097B7
S1131D4049F06D917C911197FB0162817381461773
S1131D50570781F32C01F90111821082F801B18334
S1131D60A083E090F501F090F6013701670183E06C
S1131D70282E312CAB81BC81AD90BC90F501F08153
S1131D80F983D5011196BC91BA83F50186809780B9
S1131D90AB81BC811C968D919C918130910509F495
S1131DA066C078F08230910509F49FC0039709F466
S1131DB0A3C010E000E012C02F5F3F4F33832283A3
S1131DC0A5CFEB81FC814681578130E020E065EFAF
S1131DD071E08FED91E00E94C10B8C01811491049C
S1131DE009F49FC0A4016B817C81C2010E943E0E54
S1131DF001151105E1F0BFB6F894F6010588F689DE
S1131E00E02DFC83EB83339789F0D60156963C9200
S1131E102E9255971C961C930E931B97C8010E94F3
S1131E2069014B815C81F601568B458BBFBE59819C
S1131E305B838A818C83AB81BC81AB2B09F09ACF05
S1131E400F900F900F900F90DF91CF911F910F91F2
S1131E50FF90EF90DF90CF90BF90AF909F908F90C6
S1131E607F906F905F904F903F902F900895AB813B
S1131E70BC8116966D917C91DB011496ED91FC91D9
S1131E804281538107E010E04115510509F4A6CFC2
S1131E90AB81BC811A968D919C9120853185282B2C
S1131EA0392B318720872681378182239323892BFD
S1131EB009F47FCF4330510509F07BCFD701149645
S1131EC0ED91FC9115978081918115969C938E9349
S1131ED014971182108273836283AF0165EF71E0FE
S1131EE08FED91E00E94500C64CFEB81FC818085E2
S1131EF091850E945E0E5DCFD30155960D911C9184
S1131F005697E9E0F0E05696FC93EE935597AB8133
S1131F10BC811496ED91FC910995F301168B058B08
S1131F2048CFD50115961C921E92149761CF10923A
S1131F30810010928000109282001092850010920D
S1131F408400611520E1720781059105A0F4E4E0A5
S1131F50660F771FEA95E1F76150710981E092E01D
S1131F6096BB90936F00709389006093880088609B
S1131F70809381000895611520E872078105910519
S1131F8030F4660F771F6150710982E0E8CF6C3F2F
S1131F902FEF720723E08207910558F442E09695EB
S1131FA08795779567954A95D1F76150710983E0D4
S1131FB0D6CF6115710520E18207910558F434E00C
S1131FC096958795779567953A95D1F761507109FC
S1131FD084E0C5CF26E096958795779567952A95F1
S1131FE0D1F76150710985E0BACFA1E21A2EAA1B7C
S1131FF0BB1BFD010DC0AA1FBB1FEE1FFF1FA217B5
S1132000B307E407F50720F0A21BB30BE40BF50BB1
S1132010661F771F881F991F1A9469F7609570953A
S1132020809590959B01AC01BD01CF010895EE0F01
S1112030FF1F0590F491E02D0994F894FFCF62
S113203E860200001C0100000000FF00004200FFA9
S113204EFFFFFFFFFF0A0000000000002001000058
S113205E24010000280100000000000000800000A0
S113206E00000000000000800000000000000000DE
S113207E000100000000000000000002000000004B
S113208E0000000001000400000000000000D7035F
S113209E0000455F4F535F49442D00455F4F535F2A
S11320AE4C494D495400455F4F535F535441544579
S11320BE2D004F535365727669636549645F5365AA
S11320CE7452656C416C61726D00455F4F535F5085
S11320DE4152414D5F504F494E5445522D004F537E
S11320EE5365727669636549645F476574416C61D3
S11320FE726D0054657374204661696C65642121A8
S113210E212C206C696E653A323336200D0A005745
S113211E0344021C01050004003F0201002F0201CA
S113212E000F0202000001E90186023102390201A8
S113213E0005020100090201001302FA00E803136C
S113214E022102D803310200006A020000020001DB
S113215E00E00331020000780200000000000031AC
S113216E02E803FFFF010001003D0201006A024183
S113217E02EC03024E025C026A02780286029802A4
S113218E60012C01000200A10D80FF019802600184
S113219E36010102003E0280800194025E0140017C
S11321AE0201006402010101980260014A01030068
S11321BE008A02020201980260015401040300BA6B
S11321CE0A00000158038000000000000000000017
S11121DE9304D105340473040604200412048F
S9030000FC
