:100000000C945D000C9485000C9485000C94850084
:100010000C9485000C9485000C9485000C9485004C
:100020000C9485000C94CE020C9485000C948500F1
:100030000C9485000C9485000C9485000C9485002C
:100040000C9484020C9485000C9452020C942C02A3
:100050000C9485000C9485000C9485000C9485000C
:100060000C9485000C94850000000008000201003B
:100070000003040700000000000000000000000072
:10008000250028002B0000000000240027002A0083
:10009000040404040404040402020202020203032E
:1000A0000303030301020408102040800102040836
:1000B0001020010204081020770311241FBECFEF87
:1000C000D8E0DEBFCDBF11E0A0E0B1E0E2EFFAE0A2
:1000D00002C005900D92AA32B107D9F721E0AAE239
:1000E000B1E001C01D92A23FB207E1F710E0CDE5FB
:1000F000D0E004C02197FE010E947105CC35D107E4
:10010000C9F70E94C6030C9477050C940000E09197
:10011000F1012FEF2E0F283098F40897AC01440F0F
:10012000452F441F550B2E2F30E0F901EE0FFF1F16
:10013000E20FF31FE85CFE4F4183880F80958283B6
:100140000895AF92BF92CF92DF92EF92FF920F93FA
:100150001F93CF93DF936C017B018B01040F151F5D
:10016000EB015E01AE18BF08C017D10759F06991C5
:10017000D601ED91FC910190F081E02DC601099529
:10018000892B79F7C501DF91CF911F910F91FF90D6
:10019000EF90DF90CF90BF90AF900895FC01538D0A
:1001A000448D252F30E0842F90E0821B930B541751
:1001B00010F0CF96089501970895FC01918D828DDE
:1001C000981761F0A28DAE0FBF2FB11D5D968C9177
:1001D000928D9F5F9F73928F90E008958FEF9FEFB6
:1001E0000895FC01918D828D981731F0828DE80F72
:1001F000F11D858D90E008958FEF9FEF0895FC012C
:10020000918D228D892F90E0805C9F4F821B9109F8
:100210008F739927089583E591E00E94FF0021E004
:10022000892B09F420E0822F089580E090E0892B4B
:1002300029F00E940B0181110C9400000895FC012B
:10024000A48DA80FB92FB11DA35ABF4F2C91848D37
:1002500090E001968F739927848FA689B7892C9394
:10026000A089B1898C91837080648C93938D848DE7
:10027000981306C00288F389E02D80818F7D8083EA
:100280000895EF92FF920F931F93CF93DF93EC01AA
:1002900081E0888F9B8D8C8D98131AC0E889F9892D
:1002A000808185FF15C09FB7F894EE89FF89608330
:1002B000E889F98980818370806480839FBF81E0B1
:1002C00090E0DF91CF911F910F91FF90EF900895F3
:1002D000F62E0B8D10E00F5F1F4F0F731127E02ECE
:1002E0008C8D8E110CC00FB607FCFACFE889F98906
:1002F000808185FFF5CFCE010E941F01F1CFEB8DEC
:10030000EC0FFD2FF11DE35AFF4FF0829FB7F894D9
:100310000B8FEA89FB8980818062CFCFCF93DF93F7
:10032000EC01888D8823B9F0AA89BB89E889F9890D
:100330008C9185FD03C0808186FD0DC00FB607FC42
:10034000F7CF8C9185FFF2CF808185FFEDCFCE0175
:100350000E941F01E9CFDF91CF91089590E0FC0149
:10036000E859FF4F2491FC01EC55FF4F3491FC01FB
:10037000E057FF4FE491EE23C9F0222339F02330F8
:1003800001F1A8F4213019F1223029F1F0E0EE0F4B
:10039000FF1FE458FF4FA591B4918FB7F894EC91EB
:1003A000611126C030953E233C938FBF08952730BE
:1003B000A9F02830C9F0243049F7809180008F7D62
:1003C00003C0809180008F7780938000DFCF84B559
:1003D0008F7784BDDBCF84B58F7DFBCF8091B0005C
:1003E0008F778093B000D2CF8091B0008F7DF9CF0E
:1003F0003E2BDACF3FB7F89480912F0190913001D6
:10040000A0913101B091320126B5A89B05C02F3FC4
:1004100019F00196A11DB11D3FBFBA2FA92F982F2A
:100420008827BC01CD01620F711D811D911D42E025
:10043000660F771F881F991F4A95D1F70895FC0111
:1004400001900020E9F73197AF01481B590BBC011F
:1004500083E591E00C94A1001F920F920FB60F92CA
:1004600011242F933F934F935F936F937F938F93B9
:100470009F93AF93BF93EF93FF9383E591E00E9427
:100480001F01FF91EF91BF91AF919F918F917F914C
:100490006F915F914F913F912F910F900FBE0F90F1
:1004A0001F9018951F920F920FB60F9211242F9341
:1004B0008F939F93EF93FF93E0916301F091640119
:1004C0008081E0916901F0916A0182FD1BC09081F9
:1004D00080916C018F5F8F7320916D01821741F0C5
:1004E000E0916C01F0E0ED5AFE4F958F80936C0126
:1004F000FF91EF919F918F912F910F900FBE0F90D1
:100500001F9018958081F4CF1F920F920FB60F9213
:1005100011242F933F938F939F93AF93BF93809119
:100520002B0190912C01A0912D01B0912E013091C1
:100530002A0123E0230F2D3758F50196A11DB11D87
:1005400020932A0180932B0190932C01A0932D01DD
:10055000B0932E0180912F0190913001A091310133
:10056000B09132010196A11DB11D80932F0190938E
:100570003001A0933101B0933201BF91AF919F91AF
:100580008F913F912F910F900FBE0F901F90189554
:1005900026E8230F0296A11DB11DD2CF1F920F9204
:1005A0000FB60F9211242F933F934F935F936F9346
:1005B0007F938F939F93AF93BF93EF93FF9380911C
:1005C00033018F5F80933301E09134012091330137
:1005D0008E2F90E0FC01EE0FFF1FE80FF91FE85C83
:1005E000FE4F8181E091340182131DC08E2F90E077
:1005F000FC01EE0FFF1FE80FF91FE85CFE4F828140
:100600008093B200FF91EF91BF91AF919F918F9135
:100610007F916F915F914F913F912F910F900FBEFE
:100620000F901F901895209133018E2F90E0FC01C0
:10063000EE0FFF1FE80FF91FE85CFE4F8181821764
:1006400008F7E09134018E2F90E0FC01EE0FFF1FC0
:10065000E80FF91FE85CFE4F808185FF10C0E09134
:1006600034018E2F90E0FC01EE0FFF1FE80FF91F01
:10067000E85CFE4F808160E08F710E94AE01809146
:1006800034018F5F80933401109233011092B200D5
:1006900080913401882319F1809134018930F8F474
:1006A000E09134018E2F90E0FC01EE0FFF1FE80F68
:1006B000F91FE85CFE4F808185FFA4CFE0913401F3
:1006C0008E2F90E0FC01EE0FFF1FE80FF91FE85C92
:1006D000FE4F808161E08F710E94AE0193CF8091C7
:1006E0003401893008F48ECF109234018BCF1092F0
:1006F00056011092550188EE93E0A0E0B0E080939F
:10070000570190935801A0935901B0935A0184E086
:1007100091E0909354018093530185EC90E0909385
:10072000600180935F0184EC90E09093620180937C
:10073000610180EC90E0909364018093630181EC0F
:1007400090E0909366018093650182EC90E0909335
:1007500068018093670186EC90E090936A01809332
:10076000690110926C0110926D0110926E0110924D
:100770006F018091F001883030F48F5F8093F00139
:100780008093F10108951092F1010895CF93DF93C2
:10079000CDB7DEB7A1970FB6F894DEBF0FBECDBFC1
:1007A000789484B5826084BD84B5816084BD85B54C
:1007B000826085BD85B5816085BD80916E00816058
:1007C00080936E00109281008091810082608093FE
:1007D0008100809181008160809381008091800000
:1007E0008160809380008091B10084608093B1002B
:1007F0008091B00081608093B00080917A00846025
:1008000080937A0080917A00826080937A00809150
:100810007A00816080937A0080917A00806880936A
:100820007A001092C10080913501811122C0E8E365
:10083000F1E080E591E03BE027E5348325833396C2
:100840008E179F07D1F78EE3809339011092340100
:1008500010923301109270001092B00082E08093E9
:10086000B1001092B20081E087BB8093700080934A
:1008700035018091F101882359F1E9EAF0E02491F2
:10088000E5E9F0E08491882399F090E0880F991FC2
:10089000FC01EA57FF4FA591B491FC01E458FF4FCA
:1008A000859194918FB7F894EC91E22BEC938FBFE4
:1008B000E091F1018E2F90E0FC01EE0FFF1FE80F99
:1008C000F91FE85CFE4F8081807E856080628083B6
:1008D0008EEE92E00E948700E0916301F091640146
:1008E00082E08083E0915F01F09160011082E091ED
:1008F0006101F091620180E1808310926B01E091CF
:100900006701F091680186E08083E0916501F091D4
:100910006601808180618083E0916501F0916601CC
:10092000808188608083E0916501F091660180811B
:1009300080688083E0916501F091660180818F7D00
:10094000808382E191E00E941F0286E291E00E9492
:100950001F029AE0892E912CA12CB12C00E010E00E
:100960000E94FA012B013C0184EFC82EDD24D394B0
:10097000E12CF12C0E94FA01641975098609970986
:10098000683E734081059105A8F321E0C21AD108A1
:10099000E108F10888EE480E83E0581E611C711CC6
:1009A000C114D104E104F10429F7E0903601F0907C
:1009B00037018CED95E0F1E0EF16F10441F08EEE99
:1009C00092E022E0E216F10411F48AEC98E00E9431
:1009D00087008FEFE81AF80A93E0E916F1040CF0AB
:1009E00043C0F0923701E0923601C0903601D090BA
:1009F00037010D2C000CEE08FF08F7FE3AC06DE23F
:100A000083E591E00E94410122273327A9012C1997
:100A10003D094E095F0919A2FE01B1967F01CA0185
:100A2000B901A50194010E944F05605DF701629331
:100A30007F01211531054105510589F7E114F104C4
:100A400019F0C7010E941F0286E291E00E941F0276
:100A50000115110509F484CF0E940B01882309F4C4
:100A60007FCF0E9400007CCF109237011092360198
:100A7000BCCFA701960119A2CE0181967C01CA01C3
:100A8000B901A50194010E944F05605DF7016293D1
:100A90007F01211531054105510589F7CFCFA1E22D
:100AA0001A2EAA1BBB1BFD010DC0AA1FBB1FEE1FE8
:100AB000FF1FA217B307E407F50720F0A21BB30B33
:100AC000E40BF50B661F771F881F991F1A9469F7AF
:100AD00060957095809590959B01AC01BD01CF010B
:100AE0000895EE0FFF1F0590F491E02D0994F894FE
:020AF000FFCF36
:100AF200000000004101A100CE008E01FF00DD00D8
:100B0200F10048656C6C6F204F53454B2D41726468
:0A0B120075696E6F21000D0A0000E6
:00000001FF
