S00F000061726475696E6F2E7372656323
S11300000C945D000C94C4090C9485000C94850038
S11300100C9485000C9485000C9485000C94850048
S11300200C9485000C9485000C9485000C94CC09E8
S11300300C9485000C9485000C9485000C94850028
S11300400C940E020C9485000C94C0040C94F204DD
S11300500C9485000C9485000C9485000C94850008
S11300600C9485000C948500000000080002010037
S1130070000304070000000000000000010204085F
S113008010204080010204081020010204081020FE
S1130090040404040404040402020202020203032A
S11300A00303030300000000250028002B000000C8
S11300B00000240027002A00220511241FBECFEFD0
S11300C0D8E0DEBFCDBF12E0A0E0B1E0ECEBF7E199
S11300D002C005900D92AC31B107D9F722E0ACE132
S11300E0B2E001C01D92A93DB207E1F710E0CDE5F1
S11300F0D0E004C02197FE010E94D60BCC35D10775
S1130100C9F70E9471010C94DC0B0C94C009000027
S11301102F923F924F925F926F927F928F929F9213
S1130120AF92BF92CF92DF92EF92FF920F931F9301
S1130130CF93DF93E42FF52F419050804F925F923D
S1130140E42FF52F4DB65EB6419250820C94A80070
S1130150E62FF72F419050804DBE5EBE5F904F90CA
S1130160E62FF72F41925082DF91CF911F910F918B
S1130170FF90EF90DF90CF90BF90AF909F908F90C3
S11301807F906F905F904F903F902F900C947607E4
S1130190E62FF72F419150814DBF5EBF0C94770736
S11301A02F923F924F925F926F927F928F929F9283
S11301B0AF92BF92CF92DF92EF92FF920F931F9371
S11301C0CF93DF93E42FF52F419050804F925F92AD
S11301D0E42FF52F4DB65EB6419250820C94C800C0
S11301E0E82FF92F419150814DBF5EBFE62FF72FC5
S11301F0099400000F931F93CF93DF9300D0CDB7E2
S1130200DEB78DB79EB79A83898380911C02909143
S11302101D02892BA9F489819A8190931D028093F0
S11302201C02F89481EC93E0892B11F00E94C10325
S113023078940F900F90DF91CF911F910F910895B3
S113024020911C0230911D0289819A812817390757
S113025041F3F89486E391E00E947B0101EC13E002
S113026001151105E9F30E94C103FACF61E084E0AE
S11302700E941A0360E084E00E94560361E085E076
S11302800E941A0360E086E00E94560361E086E063
S11302900E941A0360E087E00E94560361E087E051
S11302A00E941A0360E087E00E94560361E083E045
S11302B00E941A0360E083E00E94560360E082E03B
S11302C00E941A03E9E6F0E0808182608083E89A64
S11302D026E040E052EC61E070E08FE292E00C94A2
S11302E05E040E94B6020E94360180E00E944C0621
S11302F090E080E00895F894FC0101900020E9F773
S11303003197AF01481B590BBC018FE292E00E9468
S11303104F057894089580912402909125020196C6
S1130320909325028093240282E00C942607809106
S11303302002909121020196909321028093200241
S113034083E00C942607CF93C82FF89461E00E94B1
S11303505603789464EF71E080E090E00E947D029F
S1130360F89460E08C2F0E945603789464EF71E057
S113037080E090E0CF910C947D0284E090E00E94B4
S1130380A30185E090E00E94A30186E090E00E9432
S1130390A30187E090E00E94A3010C944F07809191
S11303A022029091230201969093230280932202C9
S11303B083E090E00E94A3016DEE71E08FE292E091
S11303C00E948B0560912402709125024AE050E05E
S11303D08FE292E00E94320666EF71E08FE292E0D3
S11303E00E948B0560912002709121024AE050E046
S11303F08FE292E00E94320660E072E08FE292E0C7
S11304000E948B0560912202709123024AE050E021
S11304108FE292E00E9439060C944F071F920F92CC
S11304200FB60F9211242F933F938F939F93AF9303
S1130430BF938091270290912802A0912902B09144
S11304402A023091260223E0230F2D3758F5019616
S1130450A11DB11D209326028093270290932802A8
S1130460A0932902B0932A0280912B0290912C022E
S1130470A0912D02B0912E020196A11DB11D809371
S11304802B0290932C02A0932D02B0932E02BF91C5
S1130490AF919F918F913F912F910F900FBE0F902D
S11304A01F90189526E8230F0296A11DB11DD2CFE7
S11304B03FB7F89480912B0290912C02A0912D02C9
S11304C0B0912E0226B5A89B05C02F3F19F00196C6
S11304D0A11DB11D3FBFBA2FA92F982F8827BC019A
S11304E0CD01620F711D811D911D42E0660F771FC2
S11304F0881F991F4A95D1F708958F929F92AF92C2
S1130500BF92CF92DF92EF92FF926B017C010E9427
S113051058024B015C01C114D104E104F104E9F077
S11305200E944B060E945802681979098A099B099E
S1130530683E73408105910570F321E0C21AD10829
S1130540E108F10888EE880E83E0981EA11CB11C16
S1130550C114D104E104F10429F7FF90EF90DF9076
S1130560CF90BF90AF909F908F900895789484B56A
S1130570826084BD84B5816084BD85B5826085BD9B
S113058085B5816085BDEEE6F0E080818160808381
S1130590E1E8F0E010828081826080838081816064
S11305A08083E0E8F0E0808181608083E1EBF0E02B
S11305B0808184608083E0EBF0E0808181608083CF
S11305C0EAE7F0E0808184608083808182608083B8
S11305D08081816080838081806880831092C100E3
S11305E00895833081F028F4813099F08230A9F0A5
S11305F008958730A9F08830C9F08430B1F480912F
S113060080008F7D03C0809180008F77809380006D
S1130610089584B58F7784BD089584B58F7DFBCF0D
S11306208091B0008F778093B00008958091B000DE
S11306308F7DF9CFCF93DF9390E0FC01E458FF4F17
S1130640249180579F4FFC0184918823C9F090E046
S1130650880F991FFC01E255FF4FA591B491FC014D
S1130660EC55FF4FC591D49161110DC09FB7F8941B
S11306708C91209582238C938881282328839FBF83
S1130680DF91CF910895623051F49FB7F8943C9173
S1130690822F809583238C93E8812E2BEFCF8FB705
S11306A0F894EC912E2B2C938FBFEACF1F93CF930A
S11306B0DF93282F30E0F901E859FF4F8491F901C5
S11306C0E458FF4FD491F901E057FF4FC491CC2374
S11306D0A9F0162F81110E94F102EC2FF0E0EE0F29
S11306E0FF1FEC55FF4FA591B4918FB7F894EC918F
S11306F0111108C0D095DE23DC938FBFDF91CF9119
S11307001F910895DE2BF8CFFC01918D228D892F46
S113071090E0805C9F4F821B91098F739927089505
S1130720FC01918D828D981731F0828DE80FF11DB7
S1130730858D90E008958FEF9FEF0895FC01918DD2
S1130740828D981761F0A28DAE0FBF2FB11D5D96FB
S11307508C91928D9F5F9F73928F90E008958FEF9D
S11307609FEF0895FC01538D448D252F30E0842F95
S113077090E0821B930B541710F0CF9608950197C5
S1130780089588E195E0892B49F080E090E0892B79
S113079029F00E94180581110C9400000895FC01B1
S11307A0A48DA80FB92FB11DA35ABF4F2C91848DCE
S11307B090E001968F739927848FA689B7892C932B
S11307C0A089B1898C91837080648C93938D848D7E
S11307D0981306C00288F389E02D80818F7D808381
S11307E00895CF93DF93EC01888D8823B9F0AA890B
S11307F0BB89E889F9898C9185FD03C0808186FDD8
S11308000DC00FB607FCF7CF8C9185FFF2CF808126
S113081085FFEDCFCE010E94CF03E9CFDF91CF91C9
S11308200895EF92FF920F931F93CF93DF93EC0100
S113083081E0888F9B8D8C8D98131AC0E889F98983
S1130840808185FF15C09FB7F894EE89FF89608386
S1130850E889F98980818370806480839FBF81E007
S113086090E0DF91CF911F910F91FF90EF90089549
S1130870F62E0B8D10E00F5F1F4F0F731127E02E24
S11308808C8D8E110CC00FB607FCFACFE889F9895C
S1130890808185FFF5CFCE010E94CF03F1CFEB8D90
S11308A0EC0FFD2FF11DE35AFF4FF0829FB7F89430
S11308B00B8FEA89FB8980818062CFCFCF92DF9250
S11308C0EF92FF921F93CF93DF93EC016A017B01B8
S11308D0122FE889F98982E08083C11481EED80659
S11308E0E104F104A1F060E079E08DE390E0A70178
S11308F096010E94B40B21503109410951095695C2
S1130900479537952795211580E1380798F0E889B0
S1130910F989108260E874E88EE190E0A7019601FD
S11309200E94B40B2150310941095109569547954C
S113093037952795EC85FD853083EE85FF852083EB
S1130940188EEC89FD891083EA89FB898081806196
S11309508083EA89FB89808188608083EA89FB89B6
S1130960808180688083EA89FB8980818F7D808390
S1130970DF91CF911F91FF90EF90DF90CF9008957A
S11309801F920F920FB60F9211242F938F939F9360
S1130990EF93FF93E0913F02F09140028081E09158
S11309A04502F091460282FD1BC09081809148026D
S11309B08F5F8F7320914902821741F0E0914802C2
S11309C0F0E0E15DFD4F958F80934802FF91EF9138
S11309D09F918F912F910F900FBE0F901F9018959C
S11309E08081F4CF1F920F920FB60F9211242F9390
S11309F03F934F935F936F937F938F939F93AF93A3
S1130A00BF93EF93FF938FE292E00E94CF03FF9195
S1130A10EF91BF91AF919F918F917F916F915F9172
S1130A204F913F912F910F900FBE0F901F901895EB
S1130A308FE292E00E94840321E0892B09F420E0F4
S1130A40822F0895EFE2F2E01382128288EE93E09F
S1130A50A0E0B0E084839583A683B7838DE092E021
S1130A609183808385EC90E09587848784EC90E083
S1130A709787868780EC90E0918B808B81EC90E067
S1130A80938B828B82EC90E0958B848B86EC90E048
S1130A90978B868B118E128E138E148E0895AF92BF
S1130AA0BF92CF92DF92EF92FF920F931F93CF9357
S1130AB0DF936C017B018B01040F151FEB015E01B9
S1130AC0AE18BF08C017D10759F06991D601ED914E
S1130AD0FC910190F081E02DC6010995892B79F7ED
S1130AE0C501DF91CF911F910F91FF90EF90DF909F
S1130AF0CF90BF90AF900895FB0101900020E9F7DB
S1130B003197AF01461B570BDC01ED91FC9102803C
S1130B10F381E02D09946115710511F00C947C05A5
S1130B2090E080E00895DC01ED91FC910190F0816A
S1130B30E02D09946EE471E00C947C058F929F92F1
S1130B40AF92BF92EF92FF920F931F93CF93DF93D5
S1130B50CDB7DEB7A1970FB6F894DEBF0FBECDBFF9
S1130B607C01FA01CB0119A2223008F42AE08E019B
S1130B700F5D1F4F822E912CB12CA12CBF01A5011A
S1130B8094010E94B40BF901CA016A300CF5605D4E
S1130B90D8016E938D01232B242B252B79F790E01C
S1130BA080E0109721F0BD01C7010E947C05A19649
S1130BB00FB6F894DEBF0FBECDBFDF91CF911F916A
S1130BC00F91FF90EF90BF90AF909F908F900895FA
S1130BD0695CDECFCF92DF92EF92FF920F931F9367
S1130BE0CF93DF932115310581F4DC01ED91FC9164
S1130BF00190F081E02D642FDF91CF911F910F912F
S1130C00FF90EF90DF90CF9009942A30310501F5E1
S1130C102AE077FF1DC06A017B01EC016DE20E94AE
S1130C2093058C0144275527BA014C195D096E09B7
S1130C307F092AE0CE010E949E05800F911FDF915B
S1130C40CF911F910F91FF90EF90DF90CF90089577
S1130C50DF91CF911F910F91FF90EF90DF90CF9094
S1130C600C949E059A01AB01770F660B770B0C94DD
S1130C70EA050F931F93CF93DF93EC010E94320692
S1130C808C01CE010E949A05800F911FDF91CF91B4
S1130C901F910F91089508954F925F926F927F92E2
S1130CA08F929F92AF92BF92CF92DF92EF92FF9278
S1130CB00F931F93CF93DF9300D0CDB7DEB700918E
S1130CC06301109164019FB7F894D80118962D918F
S1130CD03C91232B09F0A4C0882E82EC99E09A83DE
S1130CE089830E940A0AA0906701B090680181E09C
S1130CF090E0F801918780878286E0906F01F09000
S1130D007001D12CC12CF4E08F9E40011124E80C19
S1130D10F91C370182E0680E711C46E0542EF30181
S1130D2080819181C816D906E0F1E0906B01F090C2
S1130D306C013801F2E06F0E711CD12CC12CE80C4F
S1130D40F91C270182E0480E511C88248394912CBD
S1130D50F20180819181C816D906E8F1D80118966C
S1130D608D919C911997019731F482E090E0199646
S1130D709C938E931897F80180859185029741F48E
S1130D80D50112966D917C91AB01C5010E94D000F2
S1130D90F80180859185029709F4789490E080E0C9
S1130DA042C0D701ED91FC915C9CC0015D9C900D0B
S1130DB01124E80FF91FA081B1812481358142817A
S1130DC05381BD0112968D919C910E94AF09BFEF92
S1130DD0CB1ADB0AA4CFD701ED91FC91C601880F91
S1130DE0991FE80FF91F40815181DA011496ED91A2
S1130DF0FC9180818F5F808393828282F801648179
S1130E007581DB018D919C911197958384831D924B
S1130E101C92C3010E945F08BFEFCB1ADB0A98CF74
S1130E209FBF81E090E00F900F90DF91CF911F91D1
S1130E300F91FF90EF90DF90CF90BF90AF909F9075
S1130E408F907F906F905F904F900895CF9390E034
S1130E50209157013091580182179307E8F42091AB
S1130E60530130915401880F991F820F931FFC0185
S1130E7040815181FA0187819085029768F4CFB748
S1130E80F89421E030E063E671E081E591E00E94AE
S1130E909008CFBFCF91089583E090E0FBCFE0911D
S1130EA06301F09164010190F081E02D8FB7F89413
S1130EB06EE577E0828193810E94F000CF93DF9307
S1130EC000D0CDB7DEB7AE014F5F5F4F63E671E090
S1130ED081E591E00E94F608BC0189819A810E9413
S1130EE0310A0F900F90DF91CF9108950895EC018E
S1130EF0EC81FD8181818F3F09F07894E985FA8541
S1130F0009958FB7F8946EE577E08A819B810E94FA
S1130F10F0000F931F93CF93DF93CFB7F89463E65A
S1130F2071E081E591E00E946E09CFBF00916301F9
S1130F3010916401C0916501D0916601F80180852A
S1130F4091858230910551F08091670190916801FB
S1130F50DF91CF911F910F910C94470A209789F349
S1130F60FE010995EBCF0F931F93CF93DF93EC0111
S1130F70A881B981EB01E881F9811696CD91DC91C4
S1130F8017972097C1F18A819B81309709F43FC05C
S1130F90EC010C811D8122813381E9014C815D8149
S1130FA0E8013981EA012981321788F522E030E02D
S1130FB0E8013B832A8320813181EB013983288333
S1130FC0C281D3812C813D8116964D915C911797F6
S1130FD0518340831796FC93EE931697CD93DC933D
S1130FE04C85F9015181541708F44183DF91CF9165
S1130FF01F910F910895309751F0EC018C819D81E0
S1131000EC014C815D8122E030E0EA01D2CF90E036
S113101080E0ECCFCF92DF92EF92FF920F931F9379
S1131020CF93DF93EB01AA81BB811496ED91FC91E0
S113103015974115510501F1228133812230310583
S1131040D8F01B962C91DC01ED91FC91B0E0A0E06E
S11310503097A1F4109769F16D937C9390E080E050
S1131060EB01F983E883DF91CF911F910F91FF90FA
S1131070EF90DF90CF9008952181E5CF0281138115
S1131080E801CC80DD804115510581F0E601EA805C
S1131090FB80D2E0ED16F10448F0E8013B853217FD
S11310A0C8F2DF010190F081E02DD2CFE601398151
S11310B0F6CFDC016D937C9381E090E0D1CFFB010E
S11310C05383428341E050E00C940A08EF92FF926C
S11310D00F931F93CF93DF938C01FC01C081D181C7
S11310E0EE80FF80F701808191819F838E83C80108
S11310F00E94B307892B41F4EE81FF81309761F0A0
S11311008281938199838883C701DF91CF911F9155
S11311100F91FF90EF900895F80184819581F2CFAB
S1131120CF92DF92EF92FF920F931F93CF93DF93AF
S1131130DA011496CD90DC901597E60198811D96FE
S11311408C91981708F04FC0DB01ED91FC91008160
S11311501181E801EC80FD809F5FD6019C93A481FE
S1131160B5816D917C911197232B49F1E701998108
S1131170E6018981981718F57583648382E090E00D
S1131180E7019B838A8313965C934E93129786811F
S1131190978111969C938E93B783A6835183408342
S11311A0BA01C8010E94160A90E080E0DF91CF9155
S11311B01F910F91FF90EF90DF90CF900895E6017B
S11311C08A819B81892B21F481E090E09B838A832F
S11311D07583648311961C921E92BD01CF01029601
S11311E00E945F08E1CF84E090E0E0CFAF92BF922D
S11311F0CF92DF92EF92FF920F931F93CF93DF93DF
S11312005B01DB01CD91DC91FE01019111917F0124
S1131210D8011496CD90DC90FA0111830083D60195
S113122012968D919C910497A9F5B701C5010E946E
S11312306608AC01888199810817190731F1D80132
S11312401496ED91FC9115971B962C912183208186
S113125021502083211114C0138212822C813D81DC
S1131260DA012D933C935D834C83DF91CF911F91E1
S11312700F91FF90EF90DF90CF90BF90AF900895C3
S113128021E030E033832283E9CFF601208121502D
S11312902083E4CF6E817F81FB01808191819F83D4
S11312A08E83D8011B968C91F601818381E090E0B6
S11312B093838283A801C7010E945F08B701C50117
S11312C00E94B307892B39F4EE81FF8182819381D7
S11312D099838883CACF88819981C7CFCF93DF93BD
S11312E0CB01FB01C081D181BE016E5F7F4F0E94A3
S11312F0B307009749F0688179810E94160A81E05A
S113130090E0DF91CF91089590E080E0FACFCF9301
S1131310DF93DB01ED91FC918081918126813781FE
S1131320EC01AC81BD8162E070E013967C936E9316
S1131330129751834083A481B5816D917C9111975B
S113134075836483B783A68313965C934E93129735
S11313502D933C93BA01DF91CF910C94160ADB01D3
S1131360ED91FC91A481B581AB2B39F437832683AD
S11313700E94AD0A90E080E0089587E090E008952F
S1131380F894FFCFE0E808958F939F9381E00E9443
S1131390D4099F918F9118958F939F9380E00E9419
S11313A0D4099F918F9118951F920F920FB60F92A7
S11313B011242F933F934F935F936F937F93AF9336
S11313C0BF93EF93FF93E0915301F091540190E0A8
S11313D0880F991FE80FF91F40815181DA01149693
S11313E0ED91FC9180818F5F808363E671E081E5FC
S11313F091E00E948709FF91EF91BF91AF917F9196
S11314006F915F914F913F912F910F900FBE0F906D
S11314101F90089568EE73E080E090E00C94560B02
S11314208091690190916A010C94CD0AFB01A48119
S1131430B58112962D913C91139744E050E0139698
S11314405C934E931297DC0112964D915C916281EC
S11314507381CF012230310511F40C9488000C946F
S1131460D000CB01DB011496ED91FC9115972281FC
S1131470338144E050E05383428312966D917C9112
S11314802230310511F40C94A8000C94C800DC013E
S113149012966D917C911397ED91FC91408151814D
S11314A0DB01ED91FC91228933892115310519F075
S11314B04217530729F4DB01ED93FC930C94A80025
S11314C0F901F1CFEF92FF920F931F93CF93DF9324
S11314D0DC018D919C91DC01ED91FC9111971296A8
S11314E00D911C91DB01CD91DC9121E030E03D8335
S11314F02C835B834A8330E020E03097E1F0A081C5
S1131500B1811296ED90FC9013970E151F0568F4A7
S11315104E155F0518F40417150768F0FC90119632
S1131520AC919F01EF2DFA2FE8CF0417150718F09F
S11315304E155F0598F72115310519F0D9018D91E4
S11315409C91DC016D937C93F983E883DF91CF91C7
S11315501F910F91FF90EF900895CF93DF93DC01DB
S11315601296ED91FC9113970D90BC91A02D1296BB
S11315702D913C91DF01A41BB50BA217B30730F0EA
S1131580420F531FDF91CF910C94620A41505109CD
S1131590420F531F4E1B5F0BF5CFAF92BF92CF92FA
S11315A0DF92EF92FF920F931F93CF93DF93DC01AF
S11315B00D911C911197F8012281338112964D915E
S11315C05C912417350708F45FC01382128230E05F
S11315D020E0F801C081D181209709F44AC0A88194
S11315E0B98112964D915C914217530709F041C09D
S11315F0DE012D913C91F901A081B181109749F050
S11316006D917C911197FB01628173814617570795
S113161081F37C01F90111821082F801B183A08366
S113162008811981D801AC901196BC901197169637
S1131630CD90DC902A853B852230310551F1233051
S1131640310561F1232B51F44E815F8130E020E0BC
S113165063E671E081E591E00E949008C114D10431
S113166009F1A601BE01C7010E94AD0AE501209758
S1131670B9F6DF91CF911F910F91FF90EF90DF901A
S1131680CF90BF90AF9008952F5F3F4F3383228355
S1131690A0CF888599850E94CD0AE0CFEC81FD8199
S11316A00995DCCFF80115821482E0CF10928100F5
S11316B01092800010928200109285001092840093
S11316C0611520E1720781059105A0F4E4E0660F3D
S11316D0771FEA95E1F76150710981E092E096BBCA
S11316E090936F0070938900609388008860809362
S11316F081000895611520E872078105910530F491
S1131700660F771F6150710982E0E8CF6C3F2FEFBD
S1131710720723E08207910558F442E09695879575
S1131720779567954A95D1F76150710983E0D6CFD3
S11317306115710520E18207910558F434E096950E
S11317408795779567953A95D1F76150710984E04B
S1131750C5CF26E096958795779567952A95D1F715
S11317606150710985E0BACFA1E21A2EAA1BBB1BF6
S1131770FD010DC0AA1FBB1FEE1FFF1FA217B30759
S1131780E407F50720F0A21BB30BE40BF50B661F6F
S1131790771F881F991F1A9469F760957095809533
S11317A090959B01AC01BD01CF010895EE0FFF1F81
S10F17B00590F491E02D0994F894FFCF0B
S11317BCDB010000120100000000FF00000000002B
S11317CC0000160100001A0100001E0100000000B8
S11317DC00000080000000800000000100000002F6
S11317EC00000100040054657374204661696C6543
S11317FC642121212C206C696E653A3935200D0A3F
S113180C00CC0299011201050004008B0101007D3A
S113181C0101000001FA00DB018D01930101007349
S113182C010100770101007F019001E8037F01CDE4
S113183C028D018B010000000003008D01D502FF15
S113184CFF010097010100CD01A301B101BF01CD3E
S113185C01DB01E9011E022201000200100A80FFD3
S113186C01E9011E0226010102009701808001E9B1
S113187C011E022A01020000BD01010101E9011E41
S113188C022E01030000CF01020201E9011E023203
S113189C01040300890700000100000000416C6191
S11318AC726D313A200020427574746F6E3A2000C8
S11318BC205461736B323A20000000000011044F75
S10F18CC05B203F10384039E03900300A3
S9030000FC
