:100000000C9435000C945D000C945D000C945D0024
:100010000C945D000C945D000C945D000C945D00EC
:100020000C945D000C945D000C945D000C945D00DC
:100030000C945D000C945D000C945D000C945D00CC
:100040000C9442010C945D000C9403030C94350352
:100050000C945D000C945D000C945D000C945D00AC
:100060000C945D000C945D00650311241FBECFEF5E
:10007000D8E0DEBFCDBF11E0A0E0B1E0EAECFDE0EA
:1000800002C005900D92A83CB107D9F722E0A8EC78
:10009000B1E001C01D92A637B207E1F710E0C5E359
:1000A000D0E004C02197FE010E94DD06C433D107D1
:1000B000C9F70E9424010C94E3060C946B0600001F
:1000C0002F923F924F925F926F927F928F929F9268
:1000D000AF92BF92CF92DF92EF92FF920F931F9356
:1000E000CF93DF93E42FF52F419050804F925F9292
:1000F000E42FF52F4DB65EB6419250820C948000ED
:10010000E62FF72F419050804DBE5EBE5F904F901E
:10011000E62FF72F41925082DF91CF911F910F91DF
:10012000FF90EF90DF90CF90BF90AF909F908F9017
:100130007F906F905F904F903F902F900C94C004F1
:10014000E62FF72F419150814DBF5EBF0C94C10443
:100150002F923F924F925F926F927F928F929F92D7
:10016000AF92BF92CF92DF92EF92FF920F931F93C5
:10017000CF93DF93E42FF52F419050804F925F9201
:10018000E42FF52F4DB65EB6419250820C94A0003C
:10019000E82FF92F419150814DBF5EBFE62FF72F19
:1001A0000994000008950F931F93CF93DF9300D01D
:1001B000CDB7DEB78DB79EB79A8389838091C8018A
:1001C0009091C901892BA9F489819A819093C901E1
:1001D0008093C801F89484E092E0892B11F00E948A
:1001E000040278940F900F90DF91CF911F910F919F
:1001F00008952091C8013091C90189819A812817F9
:10020000390741F3F8948CE291E00E942E0104E05A
:1002100012E001151105E9F30E940402FACFE9E6A4
:10022000F0E0808182608083E89A26E040E052EC32
:1002300061E070E085ED91E00E94A10268E471E068
:1002400085ED91E00C94D2030E948C010E940F0175
:1002500080E00E94E90390E080E00895F894FC01BA
:1002600001900020E9F73197AF01481B590BBC0101
:1002700085ED91E00E949203789408950C9499047E
:100280000C9499041F920F920FB60F9211242F9382
:100290003F938F939F93AF93BF938091CD019091A4
:1002A000CE01A091CF01B091D0013091CC0123E0DB
:1002B000230F2D3758F50196A11DB11D2093CC01B8
:1002C0008093CD019093CE01A093CF01B093D00144
:1002D0008091D1019091D201A091D301B091D4012C
:1002E0000196A11DB11D8093D1019093D201A093DD
:1002F000D301B093D401BF91AF919F918F913F9162
:100300002F910F900FBE0F901F90189526E8230F86
:100310000296A11DB11DD2CF789484B5826084BDB0
:1003200084B5816084BD85B5826085BD85B58160F9
:1003300085BDEEE6F0E0808181608083E1E8F0E059
:100340001082808182608083808181608083E0E888
:10035000F0E0808181608083E1EBF0E08081846067
:100360008083E0EBF0E0808181608083EAE7F0E069
:1003700080818460808380818260808380818160CD
:1003800080838081806880831092C1000895FC0181
:10039000918D228D892F90E0805C9F4F821B910967
:1003A0008F7399270895FC01918D828D981731F0F4
:1003B000828DE80FF11D858D90E008958FEF9FEFFE
:1003C0000895FC01918D828D981761F0A28DAE0F7A
:1003D000BF2FB11D5D968C91928D9F5F9F73928F01
:1003E00090E008958FEF9FEF0895FC01538D448DA9
:1003F000252F30E0842F90E0821B930B541710F0D0
:10040000CF960895019708958BE593E0892B49F0E5
:1004100080E090E0892B29F00E945B0381110C940D
:1004200000000895FC01A48DA80FB92FB11DA35A97
:10043000BF4F2C91848D90E001968F739927848F04
:10044000A689B7892C93A089B1898C918370806427
:100450008C93938D848D981306C00288F389E02DC8
:1004600080818F7D80830895CF93DF93EC01888D09
:100470008823B9F0AA89BB89E889F9898C9185FD1F
:1004800003C0808186FD0DC00FB607FCF7CF8C91AD
:1004900085FFF2CF808185FFEDCFCE010E94120251
:1004A000E9CFDF91CF910895EF92FF920F931F93C1
:1004B000CF93DF93EC0181E0888F9B8D8C8D981317
:1004C0001AC0E889F989808185FF15C09FB7F89423
:1004D000EE89FF896083E889F9898081837080646F
:1004E00080839FBF81E090E0DF91CF911F910F91BA
:1004F000FF90EF900895F62E0B8D10E00F5F1F4FC9
:100500000F731127E02E8C8D8E110CC00FB607FCD7
:10051000FACFE889F989808185FFF5CFCE010E9465
:100520001202F1CFEB8DEC0FFD2FF11DE35AFF4FBF
:10053000F0829FB7F8940B8FEA89FB8980818062F3
:10054000CFCFCF92DF92EF92FF921F93CF93DF93A3
:10055000EC016A017B01122FE889F98982E080832E
:10056000C11481EED806E104F104A1F060E079E065
:100570008DE390E0A70196010E94BB06215031094E
:10058000410951095695479537952795211580E1E1
:10059000380798F0E889F989108260E874E88EE1FC
:1005A00090E0A70196010E94BB0621503109410944
:1005B00051095695479537952795EC85FD853083EC
:1005C000EE85FF852083188EEC89FD891083EA89EA
:1005D000FB89808180618083EA89FB8980818860D2
:1005E0008083EA89FB89808180688083EA89FB892E
:1005F00080818F7D8083DF91CF911F91FF90EF905D
:10060000DF90CF9008951F920F920FB60F92112492
:100610002F938F939F93EF93FF93E091E501F091D8
:10062000E6018081E091EB01F091EC0182FD1BC0BD
:1006300090818091EE018F5F8F732091EF0182177F
:1006400041F0E091EE01F0E0EB52FE4F958F809388
:10065000EE01FF91EF919F918F912F910F900FBE1F
:100660000F901F9018958081F4CF1F920F920FB6B4
:100670000F9211242F933F934F935F936F937F9328
:100680008F939F93AF93BF93EF93FF9385ED91E08B
:100690000E941202FF91EF91BF91AF919F918F91B4
:1006A0007F916F915F914F913F912F910F900FBE6E
:1006B0000F901F90189585ED91E00E94C70121E0F1
:1006C000892B09F420E0822F0895E5EDF1E01382F3
:1006D000128288EE93E0A0E0B0E084839583A68345
:1006E000B7838AEB91E09183808385EC90E09587D6
:1006F000848784EC90E09787868780EC90E0918BEC
:10070000808B81EC90E0938B828B82EC90E0958BD8
:10071000848B86EC90E0978B868B118E128E138ED5
:10072000148E0895AF92BF92CF92DF92EF92FF9214
:100730000F931F93CF93DF936C017B018B01040F09
:10074000151FEB015E01AE18BF08C017D10759F0A5
:100750006991D601ED91FC910190F081E02DC601E7
:100760000995892B79F7C501DF91CF911F910F91E1
:10077000FF90EF90DF90CF90BF90AF900895FB0176
:1007800001900020E9F73197AF01461B570BDC01C0
:10079000ED91FC910280F381E02D099465E471E014
:1007A0000C94BF030F931F93CF93DF938C01D0E082
:1007B000C0E06115710519F00E94BF03EC01C8018A
:1007C0000E94CE038C0F9D1FDF91CF911F910F913F
:1007D00008954F925F926F927F928F929F92AF9205
:1007E000BF92CF92DF92EF92FF920F931F93CF931E
:1007F000DF9300D0CDB7DEB700916B0110916C0193
:100800009FB7F894D80118962D913C911997232BF6
:1008100009F079C0F82E8DE696E09A838983A0903E
:100820006F01B090700181E090E019969C938E93D7
:1008300018971A96FC920E94D20020917101309173
:1008400072013801B2E06B0E711CD12CC12CE4E0B6
:10085000FE9EC00111247901E80EF91E2701F2E085
:100860004F0E511C88248394912CF2018081918138
:10087000C816D90618F1D80118968D919C91199730
:10088000019731F482E090E019969C938E9318972B
:10089000F80180859185029741F4D50112966D91FA
:1008A0007C91AB01C5010E94A800F801808591856B
:1008B000029709F4789490E080E028C0D701ED9188
:1008C000FC91C601880F991FE80FF91F40815181E3
:1008D000DA011496ED91FC9180818F5F8083938281
:1008E0008282F80164817581DB018D919C91119761
:1008F000958384831D921C92C3010E94A905BFEFBA
:10090000CB1ADB0AB2CF9FBF81E090E00F900F902F
:10091000DF91CF911F910F91FF90EF90DF90CF90DB
:10092000BF90AF909F908F907F906F905F904F900F
:100930000895E0916B01F0916C010190F081E02D40
:100940008FB7F89468EA74E0828193810E94C800AE
:10095000CF93DF9300D0CDB7DEB7AE014F5F5F4FCF
:100960006BE671E08DE591E00E94DA05BC018981BA
:100970009A810E948A060F900F90DF91CF9108957F
:100980000895EC01EC81FD8181818F3F09F078941D
:10099000E985FA8509958FB7F89468EA74E08A8149
:1009A0009B810E94C8000F931F93CF93DF93CFB713
:1009B000F8946BE671E08DE591E00E945206CFBF9E
:1009C00000916B0110916C01C0916D01D0916E018D
:1009D000F801808591858230910551F080916F01F9
:1009E00090917001DF91CF911F910F910C94A0060F
:1009F000209789F3FE010995EBCF0F931F93CF93B7
:100A0000DF93EC01A881B981EB01E881F9811696A9
:100A1000CD91DC9117972097C1F18A819B81309706
:100A200009F43FC0EC010C811D8122813381E90171
:100A30004C815D81E8013981EA012981321788F50D
:100A400022E030E0E8013B832A8320813181EB0101
:100A500039832883C281D3812C813D8116964D91A3
:100A60005C911797518340831796FC93EE931697EA
:100A7000CD93DC934C85F9015181541708F44183DF
:100A8000DF91CF911F910F910895309751F0EC01B4
:100A90008C819D81EC014C815D8122E030E0EA0196
:100AA000D2CF90E080E0ECCFCF92DF92EF92FF9236
:100AB0000F931F93CF93DF93EB01AA81BB81149611
:100AC000ED91FC9115974115510501F1228133817A
:100AD00022303105D8F01B962C91DC01ED91FC9170
:100AE000B0E0A0E03097A1F4109769F16D937C938A
:100AF00090E080E0EB01F983E883DF91CF911F91D3
:100B00000F91FF90EF90DF90CF9008952181E5CF76
:100B100002811381E801CC80DD804115510581F00F
:100B2000E601EA80FB80D2E0ED16F10448F0E8012E
:100B30003B853217C8F2DF010190F081E02DD2CF62
:100B4000E6013981F6CFDC016D937C9381E090E082
:100B5000D1CFFB015383428341E050E00C94540514
:100B6000EF92FF920F931F93CF93DF938C01FC01C1
:100B7000C081D181EE80FF80F701808191819F83C8
:100B80008E83C8010E94FD04892B41F4EE81FF8110
:100B9000309761F08281938199838883C701DF91C7
:100BA000CF911F910F91FF90EF900895F8018481EC
:100BB0009581F2CFAF92BF92CF92DF92EF92FF92E8
:100BC0000F931F93CF93DF935B01DB01CD91DC91FA
:100BD000FE01019111917F01D8011496CD90DC9016
:100BE000FA0111830083D60112968D919C9104978E
:100BF000A9F5B701C5010E94B005AC0188819981B2
:100C00000817190731F1D8011496ED91FC91159749
:100C10001B962C912183208121502083211114C007
:100C2000138212822C813D81DA012D933C935D83E6
:100C30004C83DF91CF911F910F91FF90EF90DF9048
:100C4000CF90BF90AF90089521E030E033832283AE
:100C5000E9CFF601208121502083E4CF6E817F818E
:100C6000FB01808191819F838E83D8011B968C919B
:100C7000F601818381E090E093838283A801C7011C
:100C80000E94A905B701C5010E94FD04892B39F412
:100C9000EE81FF818281938199838883CACF888185
:100CA0009981C7CFCF93DF93CB01FB01C081D18165
:100CB000BE016E5F7F4F0E94FD04009749F068817E
:100CC00079810E946F0681E090E0DF91CF910895D5
:100CD00090E080E0FACFF894FFCFE6ED0895FB01B5
:100CE000A481B58112962D913C91139744E050E078
:100CF00013965C934E931297DC0112964D915C9182
:100D000062817381CF012230310511F40C946000AF
:100D10000C94A800CB01DB011496ED91FC91159782
:100D20002281338144E050E05383428312966D91D7
:100D30007C912230310511F40C9480000C94A000B9
:100D4000DC0112966D917C911397ED91FC9140819D
:100D50005181DB01ED91FC91228933892115310507
:100D600019F04217530729F4DB01ED93FC930C941F
:100D70008000F901F1CFA1E21A2EAA1BBB1BFD01D5
:100D80000DC0AA1FBB1FEE1FFF1FA217B307E4076A
:100D9000F50720F0A21BB30BE40BF50B661F771FC2
:100DA000881F991F1A9469F76095709580959095A2
:100DB0009B01AC01BD01CF010895EE0FFF1F05900F
:0A0DC000F491E02D0994F894FFCFA0
:100DCA00A4010000120100000000FF000000000062
:100DDA0000001601000000000000000100000000F1
:100DEA000002000000000100040000005465737452
:100DFA00204661696C65642121212C206C696E652D
:100E0A003A313030200D0A004D792053686164650B
:100E1A0020436F6E74726F6C6C657221007202826D
:100E2A00011201030002007D0101000001D300A4A8
:100E3A00017501010079010200880196017F0173A1
:100E4A00020288019601A401B201CA011A01000036
:100E5A00003E01010101B201CA0120010100004066
:100E6A0001020201B201CA012601020300D30400F1
:100E7A000001000000000000000054029203F50186
:080E8A003402C701E101D301AC
:00000001FF
