S00F000061726475696E6F2E7372656323
S11300000C94A4000C94CC000C94CC000C94CC0064
S11300100C94CC000C94CC000C94CC000C94CC002C
S11300200C94CC000C94C9020C94CC000C94AA102F
S11300300C94CC000C94CC000C94CC000C94CC000C
S11300400C94CB060C94CC000C946E090C94A0096F
S11300500C94CC000C94CC000C94CC000C94CC00EC
S11300600C94CC000C94CC0007634236B79BD8A701
S11300701A39685618AEBAAB558C1D3CB7CC5763C9
S1130080BD6DEDFD753EF6177231BF000000803F77
S113009008000000BE922449123EABAAAA2ABECD93
S11300A0CCCC4C3E00000080BEABAAAAAA3E000005
S11300B00000BF000000803F0000000000084178FD
S11300C0D3BB4387D1133D190E3CC3BD4282AD2B34
S11300D03E68EC8276BED98FE1A93E4C80EFFFBE2C
S11300E001C4FF7F3F000000000000000008000280
S11300F001000003040700000000000000000102EA
S113010004081020408001020408102001020408A1
S1130110102004040404040404040202020202027F
S11301200303030303030000000023002600290047
S113013000000000250028002B000000000024001F
S113014027002A00B106D00911241FBECFEFD8E042
S1130150DEBFCDBF12E0A0E0B1E0E2E0FEE202C00B
S113016005900D92A43EB107D9F724E0A4EEB2E0C5
S113017001C01D92A837B207E1F710E0C4EAD0E04D
S113018004C02197FE010E94F916C23AD107C9F7AB
S11301900E947E040C94FF160C94A6102F923F929A
S11301A04F925F926F927F928F929F92AF92BF9283
S11301B0CF92DF92EF92FF920F931F93CF93DF932F
S11301C0E42FF52F419050804F925F92E42FF52F4A
S11301D04DB65EB6419250820C94EE00E62FF72F96
S11301E0419050804DBE5EBE5F904F90E62FF72F3A
S11301F041925082DF91CF911F910F91FF90EF9028
S1130200DF90CF90BF90AF909F908F907F906F9032
S11302105F904F903F902F900C94FC0DE62FF72F9A
S1130220419150814DBF5EBF0C94FD0D2F923F92C2
S11302304F925F926F927F928F929F92AF92BF92F2
S1130240CF92DF92EF92FF920F931F93CF93DF939E
S1130250E42FF52F419050804F925F92E42FF52FB9
S11302604DB65EB6419250820C940E01E82FF92FE0
S1130270419150814DBF5EBFE62FF72F09940000D6
S113028090E080E008950895CF93DF93EC0160E05F
S11302908E810E94C00781E090E00E94150761E012
S11302A08E810E94C00781E090E00E94150760E003
S11302B08E810E94C00784E690E0DF91CF910C9478
S11302C01507CF92DF92EF92FF920F931F93CF9374
S11302D0DF936C017C0187E0E80EF11CD0E0C0E004
S11302E0062F10E0B8010C2E02C0759567950A948C
S11302F0E2F76170F70181917F010E94C0072196A6
S1130300C430D10579F7C601DF91CF911F910F91C8
S1130310FF90EF90DF90CF900C944401CF92DF9246
S1130320EF92FF920F931F93CF93DF936C017C01A5
S113033087E0E80EF11CD0E0C0E0062F10E0B80121
S11303400C2E02C0759567950A94E2F76170F70167
S113035081917F010E94C0072196C830D10579F7A9
S1130360C601DF91CF911F910F91FF90EF90DF9025
S1130370CF900C9444011F93CF93DF93EC01162F7D
S1130380642F8C810E94C0078D818F3F19F060E03B
S11303900E94C0078F85612F84FF06C0CE01DF91C4
S11303A0CF911F910C948E0170E084E07595679550
S11303B08A95E1F7CE010E946101612FCE01DF91A0
S11303C0CF911F910C94610140E00C94BB0161E05A
S11303D00E94E40180ED97E00C941507443008F086
S11303E043E0FC012389421710F04FEF420FFC0158
S11303F0E40FF11D2489620F60680C94E401FC0190
S11304006089262F2460208B6C600C94E4010F9388
S11304101F93CF93DF93EC01423018F08F858860EF
S11304208F874B8B1C8A80E48D8B6E8B605C6F8B0B
S1130430222329F0413019F48F8584608F8761E08D
S11304408C810E9484078D818F3F19F061E00E94A6
S1130450840761E08E810E9484078E0198012C1B21
S11304603D0B8F8584FD0DC084E090E00F5F1F4F2E
S1130470281739074CF461E0F80186810E9484074B
S1130480EDCF88E090E0F2CF80E593EC0E94150771
S113049060E08C810E94C00760E08E810E94C007EA
S11304A08D818F3F19F060E00E94C0076F8564FD65
S11304B033C063E0CE010E94610184E991E10E94AE
S11304C0150763E0CE010E94610184E991E10E9475
S11304D0150763E0CE010E94610186E990E00E9465
S11304E0150762E0CE010E9461016F856062CE0152
S11304F00E94E40184E0888BCE010E94FF01CE01BA
S11305000E94E70182E0898B66E0CE01DF91CF9102
S11305101F910F910C94E4016062CE010E94E401EA
S113052084E991E10E9415076F856062CE010E9403
S1130530E40186E990E00E9415076F856062CE01B0
S11305400E94E401D2CFCF92EF920F93FC01138269
S1130550128283E691E09183808364838FEF8583A5
S1130560468327830087E186C28613861486158610
S11305701686178620E041E060E1CF010F91EF90ED
S1130580CF900C94070241E00E94BB0181E090E00F
S113059008951F920F920FB60F9211242F933F9339
S11305A04F935F936F937F938F939F93AF93BF9377
S11305B0EF93FF938091E6028F5F8093E602E091D0
S11305C0E7022091E6028E2F90E0FC01EE0FFF1F60
S11305D0E80FF91FE851FD4F8181E091E702821392
S11305E01DC08E2F90E0FC01EE0FFF1FE80FF91FD6
S11305F0E851FD4F82818093B200FF91EF91BF914A
S1130600AF919F918F917F916F915F914F913F91A6
S11306102F910F900FBE0F901F9018952091E60216
S11306208E2F90E0FC01EE0FFF1FE80FF91FE85139
S1130630FD4F8181821708F7E091E7028E2F90E049
S1130640FC01EE0FFF1FE80FF91FE851FD4F8081F9
S113065085FF10C0E091E7028E2F90E0FC01EE0FC1
S1130660FF1FE80FF91FE851FD4F808160E08F7193
S11306700E94C0078091E7028F5F8093E702109287
S1130680E6021092B2008091E702882319F180916A
S1130690E7028930F8F4E091E7028E2F90E0FC0144
S11306A0EE0FFF1FE80FF91FE851FD4F808185FF12
S11306B0A4CFE091E7028E2F90E0FC01EE0FFF1F24
S11306C0E80FF91FE851FD4F808161E08F710E94AE
S11306D0C00793CF8091E702893008F48ECF10923F
S11306E0E7028BCFFC019091E502983028F49F5FDC
S11306F09093E50290830895108208951F93CF93F9
S1130700DF93EC01162F8091E402811122C0E8EE00
S1130710F2E080E093E03BE027E5348325833396E1
S11307208E179F07D1F78EE38093E9021092E702B8
S11307301092E602109270001092B00082E0809352
S1130740B1001092B20081E087BB80937000809367
S1130750E40288818823A1F061E0812F0E9484074C
S1130760E8818E2F90E0FC01EE0FFF1FE80FF91FC8
S1130770E851FD4F1F716081607E612B6062608370
S11307808881DF91CF911F910895DC01EC918FEF67
S11307908E0F8830F8F4CB016B3C784014F08AEC6F
S11307A098E08E3E22E0920714F48EEE92E00897D1
S11307B0AC01440F452F441F550B2E2F30E0F90197
S11307C0EE0FFF1FE20FF31FE851FD4F4183880F27
S11307D08095828308950F931F93CF93DF9300D066
S11307E0CDB7DEB78DB79EB79A8389838091030313
S11307F090910403892BA9F489819A81909304032D
S113080080930303F8948FE698E0892B11F00E94FB
S11308106F0878940F900F90DF91CF911F910F91F3
S11308200895209103033091040389819A81281744
S1130830390741F3F8948BE691E00E9488040FE6AF
S113084018E001151105E9F30E946F08FACF60E082
S113085087E00E94840787E00E94EE0765E070E06D
S11308608CE093E00E947E0366E070E08BE093E00E
S11308700E947E036EEE72E08CE093E00E94C5035A
S11308806EEE72E08BE093E00E94C50360E083E1CA
S11308900E94840761E082E00E94840760E082E0B5
S11308A00E94C00760E082E10E94840761E083E067
S11308B00E94840760E083E00E94C00726E040E0D5
S11308C052EC61E070E08EE393E00E940C0966E86C
S11308D071E08EE393E00E944C0A20E044E064E17E
S11308E08DE193E00E9407028DE193E00E94E7010D
S11308F06AE971E08DE193E00C94390A0E942007C3
S11309000E94270480E00E941B0C90E080E0089580
S1130910F894FC0101900020E9F73197AF01481BDE
S1130920590BBC018EE393E00E94FD09789408956D
S1130930CF92DF92EF92FF9283E10E941708909387
S11309401C0380931B0382E10E94170890931603F3
S11309508093150360911B0370911C03072E000CF8
S1130960880B990B0E94E41320E030EC4FE754E429
S11309700E94411320E030E040EA50E40E949914C0
S11309806B017C01AC019B0160E070E080EA90E4C3
S11309900E94CF12A70196010E94411320E030E487
S11309A04CE955E40E94991422EC3FE245E95FEBDF
S11309B00E9406152EE138E449E559E40E94991491
S11309C0AB01BC01409317035093180360931903C0
S11309D070931A0322E030E08EE393E00E94090C46
S11309E06091150370911603072E000C880B990B68
S11309F00E94E41320E030EC4FE754E40E944113DA
S1130A0020E030E040EA50E40E9499146B017C013C
S1130A10AC019B0160E070E080EA90E40E94CF1298
S1130A20A70196010E94411320E030E44CE955E40B
S1130A300E94991422EC3FE245E95FEB0E940615FF
S1130A402EE138E449E559E40E949914AB01BC0154
S1130A504093110350931203609313037093140390
S1130A6022E030E08EE393E00E94090C209117030A
S1130A70309118034091190350911A0360911103A6
S1130A807091120380911303909114030E94D01269
S1130A9020E030E040E05FE30E9499146B017C01A8
S1130AA0C0920D03D0920E03E0920F03F092100354
S1130AB020E030E0A9010E943C13882309F43FC0E0
S1130AC080915A0190915B01A0915C01B0915D010C
S1130AD089579946A109B1098F3A9A49A105B105E7
S1130AE090F420E030E048E453E4C701B6010E94EA
S1130AF03C1322E030E0B701A60187FF0FC08EE36C
S1130B0093E00E94090C61E082E00E94C00761E06A
S1130B1083E00E94C00761E070E00EC08EE393E0C2
S1130B200E94090C60E082E00E94C00760E083E05C
S1130B300E94C00762E070E083E00E94530DFF90C2
S1130B40EF90DF90CF900C94F50CCF93DF9300D00F
S1130B50CDB7DEB783E090E00E94040DBE016F5F65
S1130B607F4F83E00E94A70D898181FF16C06AEC44
S1130B7078E08CE093E00E94C5036AEC78E08BE0B7
S1130B8093E00E94C50382E090E00E94CE0D6DE8E0
S1130B9072E08EE393E00E944C0A898180FFDACFF1
S1130BA06EEE72E08CE093E00E94C5036EEE72E09C
S1130BB08BE093E00E94C50381E090E00E94CE0D9B
S1130BC069E972E08EE393E00E944C0AC3CFCF92AE
S1130BD0DF92EF92FF92C0905A01D0905B01E090B7
S1130BE05C01F0905D01C701B60120E13EE040E008
S1130BF050E00E94C61630930A032093090360E173
S1130C007EE0629FC001639F900D729F900D11243E
S1130C10C81AD90AC6016CE370E00E94901670935A
S1130C200603609305032CE3269FC001279F900DC4
S1130C301124C81AD90AD0920803C092070364EA9F
S1130C4072E08EE393E00E94390A40915A01509178
S1130C505B0160915C0170915D012AE030E08EE3FC
S1130C6093E00E94FE0A8DE193E00E94E70141E0D7
S1130C7060E08DE193E00E94EE016EEA72E08DE1A6
S1130C8093E00E94390A40910D0350910E03609144
S1130C900F037091100322E030E08DE193E00E9495
S1130CA0070C43E060E08DE193E00E94EE016AEB03
S1130CB072E08DE193E00E94390A6091090370911A
S1130CC00A034AE050E08DE193E00E94F70A61ECE8
S1130CD072E08DE193E00E94390A609105037091FE
S1130CE006034AE050E08DE193E00E94F70A61ECCC
S1130CF072E08DE193E00E94390A609107037091DC
S1130D0008034AE050E08DE193E00E94F70AFF9067
S1130D10EF90DF90CF900C94F50C80915A01909154
S1130D205B01A0915C01B0915D010196A11DB11D13
S1130D30803821E5920721E0A207B1054CF48093A5
S1130D405A0190935B01A0935C01B0935D010895F7
S1130D5010925A0110925B0110925C0110925D0195
S1130D600895CF92EF920F938DE0C82E9CE0E92E68
S1130D700BE02AE049E068E08DE193E00E94A302E1
S1130D808CE093E00E9472038BE093E00F91EF906C
S1130D90CF900C9472031F920F920FB60F921124EE
S1130DA02F933F938F939F93AF93BF938091360379
S1130DB090913703A0913803B091390330913503F2
S1130DC023E0230F2D3758F50196A11DB11D209363
S1130DD035038093360390933703A0933803B0937D
S1130DE0390380913A0390913B03A0913C03B09165
S1130DF03D030196A11DB11D80933A0390933B03DB
S1130E00A0933C03B0933D03BF91AF919F918F9109
S1130E103F912F910F900FBE0F901F90189526E8C9
S1130E20230F0296A11DB11DD2CF8230910538F057
S1130E30880F991F880F991F05970197F1F7089557
S1130E40789484B5826084BD84B5816084BD85B5A1
S1130E50826085BD85B5816085BDEEE6F0E0808168
S1130E6081608083E1E8F0E0108280818260808389
S1130E70808181608083E0E8F0E08081816080830C
S1130E80E1EBF0E0808184608083E0EBF0E080813E
S1130E9081608083EAE7F0E08081846080838081E0
S1130EA08260808380818160808380818068808388
S1130EB01092C1000895833081F028F4813099F0B4
S1130EC08230A9F008958730A9F08830C9F08430C1
S1130ED0B1F4809180008F7D03C0809180008F7772
S1130EE080938000089584B58F7784BD089584B578
S1130EF08F7DFBCF8091B0008F778093B0000895F1
S1130F008091B0008F7DF9CFCF93DF9390E0FC0107
S1130F10E250FF4F24918E5E9E4FFC018491882302
S1130F20C9F090E0880F991FFC01E65CFE4FA59183
S1130F30B491FC01E05DFE4FC591D49161110DC0E7
S1130F409FB7F8948C91209582238C9388812823D1
S1130F5028839FBFDF91CF910895623051F49FB7EA
S1130F60F8943C91822F809583238C93E8812E2BD7
S1130F70EFCF8FB7F894EC912E2B2C938FBFEACF41
S1130F801F93CF93DF93282F30E0F901E651FF4FF1
S1130F908491F901E250FF4FD491F901EE5EFE4FC6
S1130FA0C491CC23A9F0162F81110E945B07EC2F6A
S1130FB0F0E0EE0FFF1FE05DFE4FA591B4918FB7F7
S1130FC0F894EC91111108C0D095DE23DC938FBF07
S1130FD0DF91CF911F910895DE2BF8CFCF93DF934C
S1130FE0282F30E0F901E651FF4F8491F901E250D6
S1130FF0FF4FD491F901EE5EFE4FC491CC23A1F0D2
S113100081110E945B07EC2FF0E0EE0FFF1FEA5DF9
S1131010FE4FA591B491EC91ED2381E090E009F4A9
S113102080E0DF91CF91089580E090E0FACF8E3098
S113103008F08E5020915E0190E4299F90011124C4
S11310408770822B80937C0080917A0080648093E7
S11310507A0080917A0086FDFCCF8091780090918F
S113106079000895FC01918D228D892F90E0805C98
S11310709F4F821B91098F7399270895FC01918DCD
S1131080828D981731F0828DE80FF11D858D90E0E7
S113109008958FEF9FEF0895FC01918D828D98172D
S11310A061F0A28DAE0FBF2FB11D5D968C91928D14
S11310B09F5F9F73928F90E008958FEF9FEF089545
S11310C0FC01538D448D252F30E0842F90E0821B4A
S11310D0930B541710F0CF9608950197089586EC5A
S11310E099E0892B49F080E090E0892B29F00E9457
S11310F0C60981110C9400000895FC01A48DA80F69
S1131100B92FB11DA35ABF4F2C91848D90E0019645
S11311108F739927848FA689B7892C93A089B18965
S11311208C91837080648C93938D848D981306C006
S11311300288F389E02D80818F7D80830895CF9389
S1131140DF93EC01888D8823B9F0AA89BB89E889EB
S1131150F9898C9185FD03C0808186FD0DC00FB691
S113116007FCF7CF8C9185FFF2CF808185FFEDCF0F
S1131170CE010E947D08E9CFDF91CF910895EF92CF
S1131180FF920F931F93CF93DF93EC0181E0888F3D
S11311909B8D8C8D98131AC0E889F989808185FF0D
S11311A015C09FB7F894EE89FF896083E889F989AF
S11311B080818370806480839FBF81E090E0DF91B1
S11311C0CF911F910F91FF90EF900895F62E0B8D04
S11311D010E00F5F1F4F0F731127E02E8C8D8E11BF
S11311E00CC00FB607FCFACFE889F989808185FF26
S11311F0F5CFCE010E947D08F1CFEB8DEC0FFD2FD2
S1131200F11DE35AFF4FF0829FB7F8940B8FEA89E0
S1131210FB8980818062CFCFCF92DF92EF92FF92E1
S11312201F93CF93DF93EC016A017B01122FE889AE
S1131230F98982E08083C11481EED806E104F104C7
S1131240A1F060E079E08DE390E0A70196010E94AF
S1131250A4162150310941095109569547953795EE
S11312602795211580E1380798F0E889F9891082DB
S113127060E874E88EE190E0A70196010E94A4164C
S113128021503109410951095695479537952795BC
S1131290EC85FD853083EE85FF852083188EEC89EF
S11312A0FD891083EA89FB89808180618083EA89D2
S11312B0FB89808188608083EA89FB8980818068DA
S11312C08083EA89FB8980818F7D8083DF91CF9140
S11312D01F91FF90EF90DF90CF9008951F920F928F
S11312E00FB60F9211242F938F939F93EF93FF9335
S11312F0E0914E03F0914F038081E0915403F0910B
S1131300550382FD1BC09081809157038F5F8F73BB
S113131020915803821741F0E0915703F0E0E25C1A
S1131320FC4F958F80935703FF91EF919F918F917D
S11313302F910F900FBE0F901F9018958081F4CFBE
S11313401F920F920FB60F9211242F933F934F9336
S11313505F936F937F938F939F93AF93BF93EF9319
S1131360FF938EE393E00E947D08FF91EF91BF917C
S1131370AF919F918F917F916F915F914F913F9129
S11313802F910F900FBE0F901F9018958EE393E04E
S11313900E94320821E0892B09F420E0822F08956D
S11313A0EEE3F3E01382128288EE93E0A0E0B0E073
S11313B084839583A683B78389EC92E091838083A9
S11313C085EC90E09587848784EC90E09787868706
S11313D080EC90E0918B808B81EC90E0938B828BFE
S11313E082EC90E0958B848B86EC90E0978B868BD7
S11313F0118E128E138E148E0895AF92BF92CF92D7
S1131400DF92EF92FF920F931F93CF93DF936C01C0
S11314107B018B01040F151FEB015E01AE18BF08A1
S1131420C017D10759F06991D601ED91FC91019053
S1131430F081E02DC6010995892B79F7C501DF916B
S1131440CF911F910F91FF90EF90DF90CF90BF90BD
S1131450AF900895FB0101900020E9F73197AF01A7
S1131460461B570BDC01ED91FC910280F381E02DCA
S113147009946115710511F00C942A0A90E080E03A
S11314800895DC01ED91FC910190F081E02D099427
S113149063E871E00C942A0A0F931F93CF93DF93B0
S11314A08C01D0E0C0E06115710519F00E942A0A90
S11314B0EC01C8010E94480A8C0F9D1FDF91CF9157
S11314C01F910F9108958F929F92AF92BF92EF92C6
S11314D0FF920F931F93CF93DF93CDB7DEB7A197FE
S11314E00FB6F894DEBF0FBECDBF7C01FA01CB016D
S11314F019A2223008F42AE08E010F5D1F4F822EBC
S1131500912CB12CA12CBF01A50194010E94A41619
S1131510F901CA016A300CF5605DD8016E938D0142
S1131520232B242B252B79F790E080E0109721F0D2
S1131530BD01C7010E942A0AA1960FB6F894DEBF26
S11315400FBECDBFDF91CF911F910F91FF90EF9010
S1131550BF90AF909F908F900895695CDECFCF923B
S1131560DF92EF92FF920F931F93CF93DF93211596
S1131570310581F4DC01ED91FC910190F081E02DC5
S1131580642FDF91CF911F910F91FF90EF90DF9027
S1131590CF9009942A30310501F52AE077FF1DC068
S11315A06A017B01EC016DE20E94410A8C0144272F
S11315B05527BA014C195D096E097F092AE0CE014D
S11315C00E94630A800F911FDF91CF911F910F91A9
S11315D0FF90EF90DF90CF900895DF91CF911F910E
S11315E00F91FF90EF90DF90CF900C94630A9A01D3
S11315F0AB01770F660B770B0C94AF0A0F931F9315
S1131600CF93DF93EC010E94AF0A8C01CE010E94BC
S1131610480A800F911FDF91CF911F910F91089578
S11316202115310541F4DC01ED91FC910190F0812B
S1131630E02D642F09940C94630A9A01AB0170E0C5
S113164060E00C94100B2F923F924F925F926F9236
S11316507F928F929F92AF92BF92CF92DF92EF923E
S1131660FF921F93CF93DF93EC016A017B01722EEB
S1131670AB019601CB01B6010E94561567ED72E0ED
S1131680811126C046015701E894B7F82FEF3FEFC8
S11316904FE75FE7C501B4010E94561581110CC0E4
S11316A02FEF3FEF4FE75FE7C501B4010E943C1302
S11316B06BED72E0181664F02FEF3FEF4FE75FE435
S11316C0C701B6010E9494141816B4F46FED72E0C9
S11316D0CE01DF91CF911F91FF90EF90DF90CF90DB
S11316E0BF90AF909F908F907F906F905F904F903E
S11316F03F902F900C942A0A2FEF3FEF4FE75FECB7
S1131700C701B6010E943C1387FDE0CF20E030E022
S1131710A901C701B6010E943C13312C212C87FF7B
S113172009C06DE2CE010E94410A1C01F7FAF0944F
S1131730F7F8F09410E060E070E080E09FE3711649
S113174041F020E030E040E251E40E9441131F5F89
S1131750F6CFA70196010E94D0122B013C010E94F2
S1131760B3134B015C012AE0BC01A401CE010E9429
S1131770630A7C01E20CF31C1123B1F1C501B4012D
S11317800E94E2139B01AC01C301B2010E94CF127B
S11317904B015C016EE2CE010E94410AE80EF91E83
S11317A0115010F120E030E040E251E4C501B401F1
S11317B00E9499142B013C010E94B3134B014AE08F
S11317C050E0CE010E941D0BE80EF91EB40190E01A
S11317D080E00E94E2139B01AC01C301B2010E94AC
S11317E0CF124B015C01DCCFC701DF91CF911F9178
S11317F0FF90EF90DF90CF90BF90AF909F908F902D
S11318007F906F905F904F903F902F9008950C942D
S1131810230B0F931F93CF93DF93EC010E94230BB1
S11318208C01CE010E94480A800F911FDF91CF9155
S11318301F910F9108954F925F926F927F928F92B2
S11318409F92AF92BF92CF92DF92EF92FF920F934B
S11318501F93CF93DF9300D0CDB7DEB70091C101C2
S11318601091C2019FB7F894D80118962D913C911C
S1131870232B09F0A4C0882E88EA90E19A838983F7
S11318800E94E810A090C501B090C60181E090E0EC
S1131890F801918780878286E090CD01F090CE0197
S11318A0D12CC12CF4E08F9E40011124E80CF91CCA
S11318B0370182E0680E711C46E0542EF3018081EA
S11318C09181C816D906E0F1E090C901F090CA01EF
S11318D03801F2E06F0E711CD12CC12CE80CF91CFC
S11318E0270182E0480E511C88248394912CF20134
S11318F080819181C816D906E8F1D80118968D9196
S11319009C911997019731F482E090E019969C9389
S11319108E931897F80180859185029741F4D5013B
S113192012966D917C91AB01C5010E941601F801DC
S113193080859185029709F4789490E080E042C014
S1131940D701ED91FC915C9CC0015D9C900D11242C
S1131950E80FF91FA081B18124813581428153812F
S1131960BD0112968D919C910E949510BFEFCB1AE8
S1131970DB0AA4CFD701ED91FC91C601880F991F12
S1131980E80FF91F40815181DA011496ED91FC9121
S113199080818F5F808393828282F8016481758164
S11319A0DB018D919C911197958384831D921C92E8
S11319B0C3010E94E50EBFEFCB1ADB0A98CF9FBF8D
S11319C081E090E00F900F90DF91CF911F910F91E4
S11319D0FF90EF90DF90CF90BF90AF909F908F904B
S11319E07F906F905F904F900895E091C101F091C6
S11319F0C2010190F081E02D8FB7F89464EE7DE090
S1131A00828193810E943601BF92CF92DF92EF923E
S1131A10FF920F931F93CF93DF9300D0CDB7DEB720
S1131A20E090C101F090C201D701CD90DC90F601A5
S1131A3004811581D80116962D913C9128233923D0
S1131A40232B19F5BFB6F894F80195838483AE016E
S1131A504F5F5F4F61EC71E08FEA91E00E94800F6D
S1131A60E981FA81D70114962D913C911597318320
S1131A7020831596FC93EE931497BC01C6010E9433
S1131A80F410F80115821482BFBE90E080E00F903C
S1131A900F90DF91CF911F910F91FF90EF90DF9006
S1131AA0CF90BF9008951F93CF93DF9390E0209140
S1131AB0B5013091B6018217930708F045C0209113
S1131AC0B1013091B201880F991F820F931FFC015D
S1131AD0A081B1811496ED91FC9115971FB7F894EC
S1131AE086819781862B972B978386838481958122
S1131AF068237923672B09F1828193810397E9F4A1
S1131B00C091C101D091C201EC81FD81808191819C
S1131B109D838C8311821082B383A283AF0161EC15
S1131B2071E08FEA91E00E94A50F892B31F061ECFE
S1131B3071E08FEA91E00E9454101FBF90E080E0B2
S1131B40DF91CF911F91089583E090E0F9CF90E069
S1131B502091B5013091B60182179307C8F4209102
S1131B60B1013091B201880F991F820F931FDC01DC
S1131B70ED91FC910480F581E02D6115710559F01A
S1131B8086819781FB019183808390E080E00895B2
S1131B9083E090E008958EE090E00895E091C10123
S1131BA0F091C2010190F081E02D0480F581E02DD7
S1131BB09C01209530958681978182239323978376
S1131BC0868390E080E00895CF93DF9300D0CDB773
S1131BD0DEB7AE014F5F5F4F61EC71E08FEA91E0D9
S1131BE00E94D70FBC0189819A810E940F110F9026
S1131BF00F90DF91CF9108950895EC01EC81FD8160
S1131C0081818F3F09F07894E985FA8509958FB72A
S1131C10F89464EE7DE08A819B810E9436010F93E3
S1131C201F93CF93DF93CFB7F89461EC71E08FEA01
S1131C3091E00E945410CFBF0091C1011091C201E4
S1131C40C091C301D091C401F8018085918582308F
S1131C50910551F08091C5019091C601DF91CF911A
S1131C601F910F910C942511209789F3FE0109957A
S1131C70EBCF0F931F93CF93DF93EC01A881B9812E
S1131C80EB01E881F9811696CD91DC9117972097A5
S1131C90C1F18A819B81309709F43FC0EC010C812A
S1131CA01D8122813381E9014C815D81E801398103
S1131CB0EA012981321788F522E030E0E8013B830C
S1131CC02A8320813181EB0139832883C281D38126
S1131CD02C813D8116964D915C91179751834083D9
S1131CE01796FC93EE931697CD93DC934C85F901EC
S1131CF05181541708F44183DF91CF911F910F91C3
S1131D000895309751F0EC018C819D81EC014C8158
S1131D105D8122E030E0EA01D2CF90E080E0ECCFB8
S1131D20CF92DF92EF92FF920F931F93CF93DF93A3
S1131D30EB01AA81BB811496ED91FC911597411595
S1131D40510501F12281338122303105D8F01B96EF
S1131D502C91DC01ED91FC91B0E0A0E03097A1F46E
S1131D60109769F16D937C9390E080E0EB01F98327
S1131D70E883DF91CF911F910F91FF90EF90DF9057
S1131D80CF9008952181E5CF02811381E801CC80B1
S1131D90DD804115510581F0E601EA80FB80D2E047
S1131DA0ED16F10448F0E8013B853217C8F2DF0173
S1131DB00190F081E02DD2CFE6013981F6CFDC012C
S1131DC06D937C9381E090E0D1CFFB0153834283F8
S1131DD041E050E00C94900EEF92FF920F931F930A
S1131DE0CF93DF938C01FC01C081D181EE80FF8011
S1131DF0F701808191819F838E83C8010E94390EEF
S1131E00892B41F4EE81FF81309761F082819381C7
S1131E1099838883C701DF91CF911F910F91FF9020
S1131E20EF900895F80184819581F2CFCF92DF92EB
S1131E30EF92FF920F931F93CF93DF93DA011496DF
S1131E40CD91DC91159798811D968C91981708F087
S1131E5054C0DB01ED91FC9100811181D8011496ED
S1131E60ED90FC909F5F9883C480D580D6016D91DE
S1131E707C91232B69F1D70111969C91119789814B
S1131E80981730F57583648382E090E013969C93F1
S1131E908E931297D60113965C934E931297868174
S1131EA097818D939C93D782C682518340831F82EE
S1131EB01E82BA01C8010E94F41090E080E0DF9114
S1131EC0CF911F910F91FF90EF90DF90CF900895E5
S1131ED08A819B81892B31F481E090E09B838A8302
S1131EE01F821E8275836483D6011D921C92B601E3
S1131EF0CF0102960E94E50EE0CF84E090E0DFCFB0
S1131F00EF92FF920F931F93CF93DF93CB017A014C
S1131F10DB01CD91DC91FE0101911191BF010E9481
S1131F20EC0ED7018D939C93D8011496ED91FC91FE
S1131F3083E090E09383828388819981DF91CF91BC
S1131F401F910F91FF90EF9008950F931F93CF93DC
S1131F50DF93FA01DB010D911C9142815381DA0177
S1131F601496CD91DC91159782E090E09B838A834F
S1131F701B968C918983BF01C80102960E94E50ECD
S1131F80019791F4D801ED91FC910480F581E02D45
S1131F9081E090E039812181231708F080E0DF910E
S1131FA0CF911F910F91089580E090E0F8CFAF9208
S1131FB0BF92CF92DF92EF92FF920F931F93CF9332
S1131FC0DF935B01DB01CD91DC91FE010191119165
S1131FD06F01D8011496ED90FC90FA0111830083EF
S1131FE0D70112968D919C910497A9F5B601C5016C
S1131FF00E94EC0EAC01888199810817190731F110
S1132000D8011496ED91FC9115971B962C91218380
S1132010208121502083211114C0138212822C812B
S11320203D81DA012D933C935D834C83DF91CF9105
S11320301F910F91FF90EF90DF90CF90BF90AF90E2
S1132040089521E030E033832283E9CFF701208132
S113205021502083E4CF6E817F81FB0180819181B7
S11320609F838E83D8011B968C91F701818381E035
S113207090E0938382838081813011F417821682E9
S1132080A801C6010E94E50EB601C5010E94390EE1
S1132090892B39F4EE81FF8182819381998388832E
S11320A0C5CF88819981C2CFCF93DF93CB01FB0148
S11320B0C081D181BE016E5F7F4F0E94390E0097AF
S11320C049F0688179810E94F41081E090E0DF9109
S11320D0CF91089590E080E0FACFCF93DF93DB01B6
S11320E0ED91FC918081918126813781EC01AC8155
S11320F0BD8162E070E013967C936E9312975183D6
S11321004083A481B5816D917C911197758364831B
S1132110B783A68313965C934E9312972D933C93A7
S1132120BA01DF91CF910C94F410DB01ED91FC9195
S1132130A481B581AB2B39F4378326830E948B119C
S113214090E080E0089587E090E00895F894FFCF50
S1132150ECE408958F939F9380E00E94B2109F91C6
S11321608F9118951F920F920FB60F9211242F93EF
S11321703F934F935F936F937F93AF93BF93EF938B
S1132180FF93E091B101F091B20190E0880F991FA3
S1132190E80FF91F40815181DA011496ED91FC9109
S11321A080818F5F808361EC71E08FEA91E00E940F
S11321B06D10FF91EF91BF91AF917F916F915F91FE
S11321C04F913F912F910F900FBE0F901F90089544
S11321D068EE73E080E090E00C9471128091C70186
S11321E09091C8010C94AB11FB01A481B5811296A6
S11321F02D913C91139744E050E013965C934E93D9
S11322001297DC0112964D915C9162817381CF012A
S11322102230310511F40C94CE000C941601CB013C
S1132220DB011496ED91FC9115972281338144E0F2
S113223050E05383428312966D917C912230310594
S113224011F40C94EE000C940E01DC0112966D91C5
S11322507C911397ED91FC9140815181DB01ED91CB
S1132260FC91228933892115310519F0421753074E
S113227029F4DB01ED93FC930C94EE00F901F1CF0A
S1132280EF92FF920F931F93CF93DF93DC018D9115
S11322909C91DC01ED91FC91119712960D911C918A
S11322A0DB01CD91DC9121E030E03D832C835B8325
S11322B04A8330E020E03097E1F0A081B1811296AA
S11322C0ED90FC9013970E151F0568F44E155F05ED
S11322D018F40417150768F0FC901196AC919F014F
S11322E0EF2DFA2FE8CF0417150718F04E155F05E8
S11322F098F72115310519F0D9018D919C91DC01D4
S11323006D937C93F983E883DF91CF911F910F91B3
S1132310FF90EF900895CF93DF93DC011296ED9137
S1132320FC9113970D90BC91A02D12962D913C9188
S1132330DF01A41BB50BA217B30730F0420F531FE4
S1132340DF91CF910C94401141505109420F531F1A
S11323504E1B5F0BF5CF8F929F92AF92BF92CF929D
S1132360DF92EF92FF920F931F93CF93DF93DC01E1
S1132370ED90FC901197F7012281338112964D91D3
S11323805C912417350708F45FC01382128230E091
S113239020E0F701C081D181209709F448C0A881C9
S11323A0B98112964D915C914217530709F03FC0D1
S11323B0DE012D913C91F901A081B181109749F082
S11323C06D917C911197FB016281738146175707C8
S11323D081F38C01F90111821082F701B183A0838A
S11323E0C090C101D090C201E880F980D7018C90DF
S11323F011969C9011971696AD90BC908C859D85F6
S11324008130910589F128F18230910509F45CC08D
S1132410039709F45EC0A114B10409F45EC0A501D8
S1132420BE01C8010E948B11E4012097E9F6DF91F7
S1132430CF911F910F91FF90EF90DF90CF90BF90BD
S1132440AF909F908F9008952F5F3F4F33832283E7
S1132450A0CF4E815F8130E020E061EC71E08FEA33
S113246091E00E94160FD7CF4E815F81DA01149656
S1132470ED91FC918A859B8526813781282B392B08
S1132480378326832481358182239323892B19F270
S113249082819381039709F0BECFD6011496ED9102
S11324A0FC9115978081918115969C938E93149736
S11324B01182108253834283AF0161EC71E08FEA91
S11324C091E00E94A50FA7CF888599850E94AB1142
S11324D0A2CFEC81FD8109959ECFF701158214826C
S11324E0A3CF10928100109280001092820010926B
S11324F0850010928400611520E172078105910521
S1132500A0F4E4E0660F771FEA95E1F761507109E2
S113251081E092E096BB90936F0070938900609382
S113252088008860809381000895611520E872070F
S11325308105910530F4660F771F6150710982E0BF
S1132540E8CF6C3F2FEF720723E08207910558F420
S113255042E096958795779567954A95D1F76150AE
S1132560710983E0D6CF6115710520E182079105D9
S113257058F434E096958795779567953A95D1F711
S11325806150710984E0C5CF26E0969587957795CB
S113259067952A95D1F76150710985E0BACF5058F3
S11325A0BB27AA270E94E7120C945A140E944C14C9
S11325B038F00E94531420F039F49F3F19F426F4A4
S11325C00C9449140EF4E095E7FB0C944314E92FA2
S11325D00E946B1458F3BA176207730784079507B0
S11325E020F079F4A6F50C948D140EF4E0950B2EDE
S11325F0BA2FA02D0B01B90190010C01CA01A00151
S11326001124FF27591B99F0593F50F4503E68F1AB
S11326101A16F040A22F232F342F4427585FF3CFEC
S1132620469537952795A795F0405395C9F77EF4BD
S11326301F16BA0B620B730B840BBAF09150A1F006
S1132640FF0FBB1F661F771F881FC2F70EC0BA0F8C
S1132650621F731F841F48F4879577956795B79514
S1132660F7959E3F08F0B0CF9395880F08F099270F
S1132670EE0F9795879508950E941F1408F481E042
S113268008950E9455130C945A140E94531458F040
S11326900E944C1440F029F45F3F29F00C94431439
S11326A051110C948E140C9449140E946B1468F309
S11326B09923B1F3552391F3951B550BBB27AA27F7
S11326C062177307840738F09F5F5F4F220F331F31
S11326D0441FAA1FA9F335D00E2E3AF0E0E832D0F9
S11326E091505040E695001CCAF72BD0FE2F29D0FC
S11326F0660F771F881FBB1F261737074807AB07CE
S1132700B0E809F0BB0B802DBF01FF2793585F4F42
S11327103AF09E3F510578F00C9443140C948E14B7
S11327205F3FE4F3983ED4F3869577956795B79524
S1132730F7959F5FC9F7880F911D9695879597F92F
S11327400895E1E0660F771F881FBB1F62177307A8
S11327508407BA0720F0621B730B840BBA0BEE1FBD
S113276088F7E09508950E94731488F09F5798F0B5
S1132770B92F9927B751B0F0E1F0660F771F881F82
S1132780991F1AF0BA95C9F714C0B13091F00E949C
S11327908D14B1E008950C948D14672F782F882739
S11327A0B85F39F0B93FCCF3869577956795B395C3
S11327B0D9F73EF490958095709561957F4F8F4F32
S11327C09F4F0895E89409C097FB3EF49095809537
S11327D0709561957F4F8F4F9F4F9923A9F0F92FE3
S11327E096E9BB279395F695879577956795B79561
S11327F0F111F8CFFAF4BB0F11F460FF1BC06F5F47
S11328007F4F8F4F9F4F16C0882311F096E911C058
S1132810772321F09EE8872F762F05C0662371F079
S113282096E8862F70E060E02AF09A95660F771F8D
S1132830881FDAF7880F9695879597F90895990F69
S11328400008550FAA0BE0E8FEEF16161706E80776
S1132850F907C0F012161306E407F50798F0621B97
S1132860730B840B950B39F40A2661F0232B242B6C
S1132870252B21F408950A2609F4A140A6958FEF8B
S1132880811D811D089597F99F6780E870E060E0DD
S113289008959FEF80EC089500240A9416161706F5
S11328A018060906089500240A941216130614063D
S11328B005060895092E0394000C11F4882352F0A0
S11328C0BB0F40F4BF2B11F460FF04C06F5F7F4F58
S11328D08F4F9F4F089557FD9058440F551F59F03F
S11328E05F3F71F04795880F97FB991F61F09F3FF9
S11328F079F087950895121613061406551FF2CF22
S11329004695F1DF08C0161617061806991FF1CF71
S113291086957105610508940895E894BB27662798
S11329207727CB0197F908950E941F1408F48FEFBD
S113293008950E94AC140C945A140E944C1438F05C
S11329400E94531420F0952311F00C9443140C941A
S1132950491411240C948E140E946B1470F3959FE7
S1132960C1F3950F50E0551F629FF001729FBB2782
S1132970F00DB11D639FAA27F00DB11DAA1F649F1E
S11329806627B00DA11D661F829F2227B00DA11DD1
S1132990621F739FB00DA11D621F839FA00D611D57
S11329A0221F749F3327A00D611D231F849F600D78
S11329B0211D822F762F6A2F11249F5750409AF0A1
S11329C0F1F088234AF0EE0FFF1FBB1F661F771F2D
S11329D0881F91505040A9F79E3F510580F00C94F8
S11329E043140C948E145F3FE4F3983ED4F386951D
S11329F077956795B795F795E7959F5FC1F7FE2B98
S1132A00880F911D9695879597F90895FA01EE0F11
S1132A10FF1F309621053105A1F16115710561F49F
S1132A208038BFE39B0749F168949038810561F0D1
S1132A308038BFEF9B0741F099234AF5FF3FE1053A
S1132A403105210519F1E8940894E795D901AA23E1
S1132A5029F4AB2FBE2FF85FD0F310C0FF5F70F4E2
S1132A60A695E0F7F73950F019F0FF3A38F49F775C
S1132A709F930DD00F9007FC9058089546F00C9446
S1132A80491460E070E080E89FE308954FE79F7782
S1132A905F934F933F932F930E9406162F913F917C
S1132AA04F915F910E9499140C9463150E941F1416
S1132AB0880B990B089529F416F00C9443140C9484
S1132AC08D140C9449140E947314A8F39638A0F73B
S1132AD007F80F92E8942BE33AEA48EB5FE70E9489
S1132AE0AF140F920F920F924DB75EB70F920E94E0
S1132AF04E16E8E6F0E00E9495154F915F91EF9134
S1132B00FF91E595EE1FFF1F49F0FE57E06844274B
S1132B10EE0F441FFA95E1F74195550B0E94C81535
S1132B200F9007FE0C94BC150895DF93CF931F9369
S1132B300F93FF92EF92DF927B018C01689406C0A1
S1132B40DA2EEF010E94AC14FE01E894A5912591C0
S1132B50359145915591A6F3EF010E94E712FE01CC
S1132B609701A801DA9469F7DF90EF90FF900F9135
S1132B701F91CF91DF9108959B01AC0160E070E05B
S1132B8080E89FE30C9441130C9443140C94821634
S1132B900E947314D8F39923C9F3940F511DA3F31E
S1132BA09150504094F059F0882332F0660F771F0B
S1132BB0881F91505040C1F79E3F51052CF7880F54
S1132BC0911D9695879597F908955F3FACF0983ECF
S1132BD09CF0BB27869577956795B79508F4B16007
S1132BE09395C1F7BB0F58F711F460FFE8CF6F5FFF
S1132BF07F4F8F4F9F4FE3CF0C948E1416F00C949D
S1132C0082160C94491468940C9443140E9473140F
S1132C10A8F39923C1F3AEF3DF93CF931F930F93DC
S1132C20FF92C92FDD2788232AF02197660F771F8B
S1132C30881FDAF720E030E040E85FEB9FE3883953
S1132C4020F0803E38F021968F770E94D012E0E980
S1132C50F0E004C00E94D012EDEBF0E00E94951564
S1132C608B01BE01EC01FB2E6F5771097595771F1F
S1132C70880B990B0E94E41328E132E741E35FE3F8
S1132C800E94AC14AF2D9801AE01FF900F911F91DB
S1132C90CF91DF910E94E7120C945A14FA01DC01DF
S1132CA0AA0FBB1F9B01AC01BF5728F4222733276F
S1132CB04427507820C0B75190F4AB2F0024469598
S1132CC037952795011CA395D2F3002071F0220FAC
S1132CD0331F441FB395DAF30ED00C94CF12613036
S1132CE07105A0E88A07B94630F49B01AC01662758
S1132CF0772788279078309621F020833183428388
S1132D00538308959F3F31F0915020F48795779530
S1132D106795B795880F911D9695879597F90895AE
S1132D2097FB072E16F4009407D077FD09D00E9474
S1132D30E51607FC05D03EF4909581959F4F0895C4
S1132D40709561957F4F0895A1E21A2EAA1BBB1BB3
S1132D50FD010DC0AA1FBB1FEE1FFF1FA217B30763
S1132D60E407F50720F0A21BB30BE40BF50B661F79
S1132D70771F881F991F1A9469F76095709580953D
S1132D8090959B01AC01BD01CF010895052E97FBE1
S1132D901EF400940E94DD1657FD07D00E94A4166D
S1132DA007FC03D04EF40C94DD16509540953095F5
S1132DB021953F4F4F4F5F4F0895909580957095A3
S1132DC061957F4F8F4F9F4F0895AA1BBB1B51E105
S1132DD007C0AA1FBB1FA617B70710F0A61BB70B87
S1132DE0881F991F5A95A9F780959095BC01CD012C
S1132DF00895EE0FFF1F0590F491E02D0994F894C7
S1052E00FFCFFE
S1132E0277020000120100000000FF000000000031
S1132E120000160100001A0100001E010000220138
S1132E220000000000000080000000000000000319
S1132E320000000000000003000000000000000287
S1132E42000000000000000100000000000001007A
S1132E520400000000005B04000044510100010072
S1132E62000000C302FD094001430154657374204C
S1132E724661696C65642121212C206C696E653A76
S1132E823934200D0A0048656C6C6F204F53454B52
S1132E922D41726475696E6F21003D3D3D2044658C
S1132EA26D6F2048443434373830203D3D3D00DBDB
S1132EB203250212010600050017020100E70103BF
S1132EC2000001EB03770219021F020100D1010184
S1132ED200D5010300ED010100F401FB010100E84A
S1132EE20309020100D007ED01FB0109025C041988
S1132EF20200003F02000000000000640419020006
S1132F02004D020000000000006C04190200006978
S1132F120200000000000019027404FFFF010023F4
S1132F220201005B0231023F024D025B0269027739
S1132F3202890258012601000200EE1080FF018975
S1132F420258012E0101000098040303018902586A
S1132F520136010200008D06037F01850256013EFF
S1132F6201030100A505027F0189025801460104FB
S1132F720000E705017F01890258014E01050300A3
S1132F820F0E000001DC03800000000000436C6FA0
S1132F927365207368616465004F70656E207368A1
S1132FA2616465007365636F6E64733A20004C75E7
S1132FB2782056616C75653A200054696D653A2033
S1132FC200203A200000000000BF08FD0960089FAD
S1132FD20832084C083E086E616E00696E66006F26
S1072FE2766600000B
S9030000FC
