:100000000C9462000C948E0A0C948A000C948A0062
:100010000C948A000C948A000C948A000C948A0038
:100020000C948A000C948A000C948A000C94960A12
:100030000C948A000C948A000C948A000C948A0018
:100040000C9426020C948A000C9401050C94330540
:100050000C948A000C948A000C948A000C948A00F8
:100060000C948A000C948A00000000080002010031
:100070000003040700000000000000000102040863
:100080001020408001020408102001020408102002
:10009000040404040404040402020202020203032E
:1000A00003030303000000002300260029000000D2
:1000B0000000250028002B0000000000240027007D
:1000C0002A00630511241FBECFEFD8E0DEBFCDBFED
:1000D00012E0A0E0B1E0E0E5F9E102C005900D9288
:1000E000A836B107D9F723E0A8E6B2E001C01D9217
:1000F000A432B207E1F710E0C2E6D0E004C02197D5
:10010000FE010E94A00CC136D107C9F70E949F01D1
:100110000C94A60C0C948A0A2F923F924F925F92F5
:100120006F927F928F929F92AF92BF92CF92DF9207
:10013000EF92FF920F931F93CF93DF93E42FF52F4E
:10014000419050804F925F92E42FF52F4DB65EB6EE
:10015000419250820C94AC00E62FF72F41905080D2
:100160004DBE5EBE5F904F90E62FF72F41925082BA
:10017000DF91CF911F910F91FF90EF90DF90CF9083
:10018000BF90AF909F908F907F906F905F904F90B7
:100190003F902F900C944008E62FF72F419150810B
:1001A0004DBF5EBF0C9441082F923F924F925F92D9
:1001B0006F927F928F929F92AF92BF92CF92DF9277
:1001C000EF92FF920F931F93CF93DF93E42FF52FBE
:1001D000419050804F925F92E42FF52F4DB65EB65E
:1001E000419250820C94CC00E82FF92F419150811C
:1001F0004DBF5EBFE62FF72F099400000F931F93AA
:10020000CF93DF9300D0CDB7DEB78DB79EB79A837B
:1002100089838091680290916902892BA9F4898170
:100220009A819093690280936802F89482E094E046
:10023000892B11F00E94020478940F900F90DF91A7
:10024000CF911F910F91089520916802309169021A
:1002500089819A812817390741F3F89481E491E064
:100260000E94AA0102E014E001151105E9F30E94C1
:100270000204FACF61E084E00E94320360E084E08F
:100280000E946E0361E085E00E94320360E085E039
:100290000E946E0361E086E00E94320360E086E027
:1002A0000E946E0361E087E00E94320360E087E015
:1002B0000E946E0361E083E00E94320360E083E00D
:1002C0000E946E0326E040E052EC61E070E087E7B8
:1002D00092E00E949F0464E670E080E090E00E945B
:1002E000950260E082E00E9432031092000182E0F9
:1002F0000E949C03892B69F481E0809300018AEFBE
:1003000090E00E94C0016CE571E087E792E00E94F6
:10031000D705809100016BE671E0882329F081E028
:100320008093000169E771E087E792E00E94D705BA
:1003300080916900826080936900E89A08950E9424
:10034000CE020E943A01809100010E948A0690E04C
:1003500080E00895F894FC0101900020E9F73197BE
:10036000AF01481B590BBC0187E792E00E94900542
:100370007894089582E00C94700783E00C947007E1
:1003800090936D0280936C02089568EE73E080E0B4
:1003900090E00C949502CF93DF9380E00E94A80731
:1003A00061E084E00E946E03D0E0C0E00E94C501DD
:1003B0004AE050E0BE0187E792E00E948206219663
:1003C000CA30D10599F787E792E00E94D30560E033
:1003D00084E00E946E0380E00E94E007DF91CF91ED
:1003E0000C949907CF930E946407C82F80E00E9465
:1003F000A80761E083E00E946E030E94C50180911E
:100400006C0290916D02C1111FC0019690936D0214
:1004100080936C0268E472E087E792E00E94D7055F
:1004200060916C0270916D024AE050E087E792E0C3
:100430000E94820660E083E00E946E0380E00E94DA
:10044000E007CF910C9499070197E0CF1F920F928C
:100450000FB60F9211242F933F938F939F93AF93D7
:10046000BF9380916F0290917002A0917102B09140
:10047000720230916E0223E0230F2D3758F501965A
:10048000A11DB11D20936E0280936F0290937002A4
:10049000A0937102B09372028091730290917402E2
:1004A000A0917502B09176020196A11DB11D8093B5
:1004B000730290937402A0937502B0937602BF9179
:1004C000AF919F918F913F912F910F900FBE0F9001
:1004D0001F90189526E8230F0296A11DB11DD2CFBB
:1004E0003FB7F8948091730290917402A0917502C5
:1004F000B091760226B5A89B05C02F3F19F0019652
:10050000A11DB11D3FBFBA2FA92F982F8827BC016D
:10051000CD01620F711D811D911D42E0660F771F95
:10052000881F991F4A95D1F708958F929F92AF9295
:10053000BF92CF92DF92EF92FF926B017C010E94FB
:1005400070024B015C01C114D104E104F104E9F033
:100550000E9489060E947002681979098A099B091C
:10056000683E73408105910570F321E0C21AD108FD
:10057000E108F10888EE880E83E0981EA11CB11CEA
:10058000C114D104E104F10429F7FF90EF90DF904A
:10059000CF90BF90AF909F908F900895789484B53E
:1005A000826084BD84B5816084BD85B5826085BD6F
:1005B00085B5816085BDEEE6F0E080818160808355
:1005C000E1E8F0E010828081826080838081816038
:1005D0008083E0E8F0E0808181608083E1EBF0E0FF
:1005E000808184608083E0EBF0E0808181608083A3
:1005F000EAE7F0E08081846080838081826080838C
:100600008081816080838081806880831092C100B6
:100610000895833081F028F4813099F08230A9F078
:1006200008958730A9F08830C9F08430B1F4809102
:1006300080008F7D03C0809180008F778093800041
:10064000089584B58F7784BD089584B58F7DFBCFE1
:100650008091B0008F778093B00008958091B000B2
:100660008F7DF9CFCF93DF9390E0FC01E458FF4FEB
:10067000249180579F4FFC0184918823C9F090E01A
:10068000880F991FFC01E854FF4FA591B491FC011C
:10069000E255FF4FC591D49161110DC09FB7F894F9
:1006A0008C91209582238C938881282328839FBF57
:1006B000DF91CF910895623051F49FB7F8943C9147
:1006C000822F809583238C93E8812E2BEFCF8FB7D9
:1006D000F894EC912E2B2C938FBFEACF1F93CF93DE
:1006E000DF93282F30E0F901E859FF4F8491F90199
:1006F000E458FF4FD491F901E057FF4FC491CC2348
:10070000A9F0162F81110E940903EC2FF0E0EE0FE3
:10071000FF1FE255FF4FA591B4918FB7F894EC916C
:10072000111108C0D095DE23DC938FBFDF91CF91EC
:100730001F910895DE2BF8CFCF93DF93282F30E061
:10074000F901E859FF4F8491F901E458FF4FD49122
:10075000F901E057FF4FC491CC23A1F081110E9411
:100760000903EC2FF0E0EE0FFF1FEC55FF4FA591B2
:10077000B491EC91ED2381E090E009F480E0DF9109
:10078000CF91089580E090E0FACFFC01918D228D09
:10079000892F90E0805C9F4F821B91098F7399276E
:1007A0000895FC01918D828D981731F0828DE80FAC
:1007B000F11D858D90E008958FEF9FEF0895FC0166
:1007C000918D828D981761F0A28DAE0FBF2FB11D54
:1007D0005D968C91928D9F5F9F73928F90E00895AC
:1007E0008FEF9FEF0895FC01538D448D252F30E04E
:1007F000842F90E0821B930B541710F0CF9608952E
:100800000197089589E595E0892B49F080E090E013
:10081000892B29F00E94590581110C94000008953C
:10082000FC01A48DA80FB92FB11DA35ABF4F2C9165
:10083000848D90E001968F739927848FA689B7895C
:100840002C93A089B1898C91837080648C93938D53
:10085000848D981306C00288F389E02D80818F7DF6
:1008600080830895CF93DF93EC01888D8823B9F0BE
:10087000AA89BB89E889F9898C9185FD03C08081AB
:1008800086FD0DC00FB607FCF7CF8C9185FFF2CF28
:10089000808185FFEDCFCE010E941004E9CFDF916A
:1008A000CF910895EF92FF920F931F93CF93DF9311
:1008B000EC0181E0888F9B8D8C8D98131AC0E8899C
:1008C000F989808185FF15C09FB7F894EE89FF896B
:1008D0006083E889F98980818370806480839FBF09
:1008E00081E090E0DF91CF911F910F91FF90EF9009
:1008F0000895F62E0B8D10E00F5F1F4F0F73112719
:10090000E02E8C8D8E110CC00FB607FCFACFE88953
:10091000F989808185FFF5CFCE010E941004F1CFC7
:10092000EB8DEC0FFD2FF11DE35AFF4FF0829FB7C7
:10093000F8940B8FEA89FB8980818062CFCFCF92B8
:10094000DF92EF92FF921F93CF93DF93EC016A0146
:100950007B01122FE889F98982E08083C11481EE3E
:10096000D806E104F104A1F060E079E08DE390E0C5
:10097000A70196010E947E0C2150310941095109BD
:100980005695479537952795211580E1380798F0BA
:10099000E889F989108260E874E88EE190E0A701A7
:1009A00096010E947E0C215031094109510956954A
:1009B000479537952795EC85FD853083EE85FF8536
:1009C0002083188EEC89FD891083EA89FB89808158
:1009D00080618083EA89FB89808188608083EA89DD
:1009E000FB89808180688083EA89FB8980818F7D93
:1009F0008083DF91CF911F91FF90EF90DF90CF9098
:100A000008951F920F920FB60F9211242F938F9378
:100A10009F93EF93FF93E0918702F091880280818A
:100A2000E0918D02F0918E0282FD1BC09081809139
:100A300090028F5F8F7320919102821741F0E091B5
:100A40009002F0E0E958FD4F958F80939002FF915E
:100A5000EF919F918F912F910F900FBE0F901F904C
:100A600018958081F4CF1F920F920FB60F92112428
:100A70002F933F934F935F936F937F938F939F93A6
:100A8000AF93BF93EF93FF9387E792E00E94100428
:100A9000FF91EF91BF91AF919F918F917F916F9156
:100AA0005F914F913F912F910F900FBE0F901F902C
:100AB000189587E792E00E94C50321E0892B09F48D
:100AC00020E0822F0895E7E7F2E01382128288EE99
:100AD00093E0A0E0B0E084839583A683B7838AE5A2
:100AE00092E09183808385EC90E09587848784EC05
:100AF00090E09787868780EC90E0918B808B81ECEB
:100B000090E0938B828B82EC90E0958B848B86ECCB
:100B100090E0978B868B118E128E138E148E089513
:100B2000AF92BF92CF92DF92EF92FF920F931F93FB
:100B3000CF93DF936C017B018B01040F151FEB0139
:100B40005E01AE18BF08C017D10759F06991D601F0
:100B5000ED91FC910190F081E02DC6010995892B62
:100B600079F7C501DF91CF911F910F91FF90EF9021
:100B7000DF90CF90BF90AF900895FB0101900020CF
:100B8000E9F73197AF01461B570BDC01ED91FC9162
:100B90000280F381E02D0994DC01ED91FC9101903C
:100BA000F081E02D099469E571E00C94BD050F9387
:100BB0001F93CF93DF938C01D0E0C0E061157105E6
:100BC00019F00E94BD05EC01C8010E94D3058C0FED
:100BD0009D1FDF91CF911F910F9108958F929F924A
:100BE000AF92BF92EF92FF920F931F93CF93DF9339
:100BF000CDB7DEB7A1970FB6F894DEBF0FBECDBF5D
:100C00007C01FA01CB0119A2223008F42AE08E01FE
:100C10000F5D1F4F822E912CB12CA12CBF01A5017D
:100C200094010E947E0CF901CA016A300CF5605DE6
:100C3000D8016E938D01232B242B252B79F790E07F
:100C400080E0109721F0BD01C7010E94BD05A1966B
:100C50000FB6F894DEBF0FBECDBFDF91CF911F91CD
:100C60000F91FF90EF90BF90AF909F908F9008955D
:100C7000695CDECFCF92DF92EF92FF920F931F93CA
:100C8000CF93DF932115310581F4DC01ED91FC91C7
:100C90000190F081E02D642FDF91CF911F910F9192
:100CA000FF90EF90DF90CF9009942A30310501F545
:100CB0002AE077FF1DC06A017B01EC016DE20E9412
:100CC000CC058C0144275527BA014C195D096E09E2
:100CD0007F092AE0CE010E94EE05800F911FDF916F
:100CE000CF911F910F91FF90EF90DF90CF900895DB
:100CF000DF91CF911F910F91FF90EF90DF90CF90F8
:100D00000C94EE059A01AB01770F660B770B0C94F0
:100D10003A0608954F925F926F927F928F929F92C0
:100D2000AF92BF92CF92DF92EF92FF920F931F93F9
:100D3000CF93DF9300D0CDB7DEB700919D01109126
:100D40009E019FB7F894D80118962D913C91232BC2
:100D500009F0A4C0882E8CE89AE09A8389830E94C7
:100D6000D40AA090A101B090A20181E090E0F80126
:100D7000918780878286E090A901F090AA01D12C0A
:100D8000C12CF4E08F9E40011124E80CF91C3701BE
:100D900082E0680E711C46E0542EF301808191813F
:100DA000C816D906E0F1E090A501F090A60138013F
:100DB000F2E06F0E711CD12CC12CE80CF91C27013C
:100DC00082E0480E511C88248394912CF20180818A
:100DD0009181C816D906E8F1D80118968D919C9199
:100DE0001997019731F482E090E019969C938E93C5
:100DF0001897F80180859185029741F4D5011296E4
:100E00006D917C91AB01C5010E94D400F8018085F1
:100E10009185029709F4789490E080E042C0D70170
:100E2000ED91FC915C9CC0015D9C900D1124E80F3C
:100E3000F91FA081B1812481358142815381BD0197
:100E400012968D919C910E94790ABFEFCB1ADB0A12
:100E5000A4CFD701ED91FC91C601880F991FE80F2F
:100E6000F91F40815181DA011496ED91FC91808146
:100E70008F5F808393828282F80164817581DB01B8
:100E80008D919C911197958384831D921C92C3012F
:100E90000E942909BFEFCB1ADB0A98CF9FBF81E0E0
:100EA00090E00F900F90DF91CF911F910F91FF90E5
:100EB000EF90DF90CF90BF90AF909F908F907F90FA
:100EC0006F905F904F900895E0919D01F0919E0189
:100ED00080859185892B11F0828508958FEF089583
:100EE000CF9390E020918D0130918E01821793076E
:100EF000E8F42091890130918A01880F991F820FAF
:100F0000931FFC0140815181FA01878190850297EE
:100F100068F4CFB7F89421E030E06DE971E087E83C
:100F200091E00E945A09CFBFCF91089583E090E0ED
:100F3000FBCFE0919D01F0919E010190F081E02DA9
:100F40008FB7F89468E278E0828193810E94F40080
:100F5000CF93DF9390E02091930130919401821719
:100F6000930758F52091910130919201880F991FB4
:100F7000820F931FFC01A081B181CD91DC9111976B
:100F8000E0919D01F0919E010190F081E02D04809F
:100F9000F581E02D12969C9112978181891708F4B2
:100FA000918324813581398328838A83B583A483FF
:100FB00090E080E0DF91CF91089583E090E0FACF58
:100FC0001F93CF93DF9390E0209193013091940190
:100FD00082179307D0F5E0919D01F0919E01A081C9
:100FE000B1811496ED91FC9115972091910130916A
:100FF0009201880F991F820F931FEC0188819981BC
:10100000EC01288139811FB7F89484819581EC0126
:1010100088819981EC018881998195838483892BCA
:1010200089F0D90112968C9181836DE971E087E88E
:1010300091E00E94380A1FBF90E080E0DF91CF91DD
:101040001F9108951C968C91EFCF83E090E0F6CF2E
:10105000CF93DF9300D0CDB7DEB7AE014F5F5F4FC8
:101060006DE971E087E891E00E94C009BC018981C7
:101070009A810E94FB0A0F900F90DF91CF91089503
:101080000895EC01EC81FD8181818F3F09F0789416
:10109000E985FA8509958FB7F89468E278E08A8146
:1010A0009B810E94F4000F931F93CF93DF93CFB7E0
:1010B000F8946DE971E087E891E00E94380ACFBFAB
:1010C00000919D0110919E01C0919F01D091A001BE
:1010D000F801808591858230910551F08091A101C0
:1010E0009091A201DF91CF911F910F910C94110B60
:1010F000209789F3FE010995EBCF0F931F93CF93B0
:10110000DF93EC01A881B981EB01E881F9811696A2
:10111000CD91DC9117972097C1F18A819B813097FF
:1011200009F43FC0EC010C811D8122813381E9016A
:101130004C815D81E8013981EA012981321788F506
:1011400022E030E0E8013B832A8320813181EB01FA
:1011500039832883C281D3812C813D8116964D919C
:101160005C911797518340831796FC93EE931697E3
:10117000CD93DC934C85F9015181541708F44183D8
:10118000DF91CF911F910F910895309751F0EC01AD
:101190008C819D81EC014C815D8122E030E0EA018F
:1011A000D2CF90E080E0ECCFCF92DF92EF92FF922F
:1011B0000F931F93CF93DF93EB01AA81BB8114960A
:1011C000ED91FC9115974115510501F12281338173
:1011D00022303105D8F01B962C91DC01ED91FC9169
:1011E000B0E0A0E03097A1F4109769F16D937C9383
:1011F00090E080E0EB01F983E883DF91CF911F91CC
:101200000F91FF90EF90DF90CF9008952181E5CF6F
:1012100002811381E801CC80DD804115510581F008
:10122000E601EA80FB80D2E0ED16F10448F0E80127
:101230003B853217C8F2DF010190F081E02DD2CF5B
:10124000E6013981F6CFDC016D937C9381E090E07B
:10125000D1CFFB015383428341E050E00C94D4088A
:10126000EF92FF920F931F93CF93DF938C01FC01BA
:10127000C081D181EE80FF80F701808191819F83C1
:101280008E83C8010E947D08892B41F4EE81FF8185
:10129000309761F08281938199838883C701DF91C0
:1012A000CF911F910F91FF90EF900895F8018481E5
:1012B0009581F2CFCF92DF92EF92FF920F931F931F
:1012C000CF93DF93DA011496CD90DC901597E60169
:1012D00098811D968C91981708F04FC0DB01ED9115
:1012E000FC9100811181E801EC80FD809F5FD601B7
:1012F0009C93A481B5816D917C911197232B49F129
:10130000E7019981E6018981981718F5758364834F
:1013100082E090E0E7019B838A8313965C934E936F
:1013200012978681978111969C938E93B783A6839B
:1013300051834083BA01C8010E94E00A90E080E036
:10134000DF91CF911F910F91FF90EF90DF90CF90A1
:101350000895E6018A819B81892B21F481E090E048
:101360009B838A837583648311961C921E92BD01B0
:10137000CF0102960E942909E1CF84E090E0E0CFFE
:10138000AF92BF92CF92DF92EF92FF920F931F9393
:10139000CF93DF935B01DB01CD91DC91FE010191E5
:1013A00011917F01D8011496CD90DC90FA01118340
:1013B0000083D60112968D919C910497A9F5B701EF
:1013C000C5010E943009AC0188819981081719076D
:1013D00031F1D8011496ED91FC9115971B962C9143
:1013E0002183208121502083211114C01382128275
:1013F0002C813D81DA012D933C935D834C83DF91F9
:10140000CF911F910F91FF90EF90DF90CF90BF9001
:10141000AF90089521E030E033832283E9CFF601D5
:10142000208121502083E4CF6E817F81FB01808168
:1014300091819F838E83D8011B968C91F6018183C5
:1014400081E090E093838283A801C7010E9429096B
:10145000B701C5010E947D08892B39F4EE81FF8117
:101460008281938199838883CACF88819981C7CFEC
:10147000CF93DF93CB01FB01C081D181BE016E5FB1
:101480007F4F0E947D08009749F0688179810E9412
:10149000E00A81E090E0DF91CF91089590E080E054
:1014A000FACFCF93DF93DB01ED91FC9180819181A5
:1014B00026813781EC01AC81BD8162E070E013963A
:1014C0007C936E93129751834083A481B5816D9173
:1014D0007C91119775836483B783A68313965C937D
:1014E0004E9312972D933C93BA01DF91CF910C94B8
:1014F000E00ADB01ED91FC91A481B581AB2B39F4BD
:10150000378326830E94770B90E080E0089587E080
:1015100090E00895F894FFCFE4E108958F939F93AE
:1015200081E00E949E0A9F918F9118958F939F93BF
:1015300080E00E949E0A9F918F9118951F920F92B2
:101540000FB60F9211242F933F934F935F936F9396
:101550007F93AF93BF93EF93FF93E0918901F09155
:101560008A0190E0880F991FE80FF91F408151818F
:10157000DA011496ED91FC9180818F5F80836DE993
:1015800071E087E891E00E94510AFF91EF91BF91CD
:10159000AF917F916F915F914F913F912F910F90FC
:1015A0000FBE0F901F90089568EE73E080E090E00A
:1015B0000C94200C8091A3019091A4010C94970BA2
:1015C000FB01A481B58112962D913C91139744E0C3
:1015D00050E013965C934E931297DC0112964D9156
:1015E0005C9162817381CF012230310511F40C943A
:1015F0008C000C94D400CB01DB011496ED91FC918E
:1016000015972281338144E050E053834283129640
:101610006D917C912230310511F40C94AC000C9446
:10162000CC00DC0112966D917C911397ED91FC91A9
:1016300040815181DB01ED91FC9122893389211593
:10164000310519F04217530729F4DB01ED93FC93A0
:101650000C94AC00F901F1CFEF92FF920F931F931E
:10166000CF93DF93DC018D919C91DC01ED91FC9196
:10167000119712960D911C91DB01CD91DC9121E027
:1016800030E03D832C835B834A8330E020E0309759
:10169000E1F0A081B1811296ED90FC9013970E15A8
:1016A0001F0568F44E155F0518F40417150768F058
:1016B000FC901196AC919F01EF2DFA2FE8CF041703
:1016C000150718F04E155F0598F72115310519F02B
:1016D000D9018D919C91DC016D937C93F983E88312
:1016E000DF91CF911F910F91FF90EF900895CF93CD
:1016F000DF93DC011296ED91FC9113970D90BC9154
:10170000A02D12962D913C91DF01A41BB50BA217C1
:10171000B30730F0420F531FDF91CF910C942C0B85
:1017200041505109420F531F4E1B5F0BF5CFAF9233
:10173000BF92CF92DF92EF92FF920F931F93CF93BE
:10174000DF93DC010D911C911197F8012281338107
:1017500012964D915C912417350708F45FC01382EF
:10176000128230E020E0F801C081D181209709F495
:101770004AC0A881B98112964D915C9142175307D6
:1017800009F041C0DE012D913C91F901A081B181A8
:10179000109749F06D917C911197FB0162817381E3
:1017A0004617570781F37C01F90111821082F80175
:1017B000B183A08308811981D801AC901196BC90A7
:1017C00011971696CD90DC902A853B852230310505
:1017D00051F12330310561F1232B51F44E815F81AA
:1017E00030E020E06DE971E087E891E00E945A095D
:1017F000C114D10409F1A601BE01C7010E94770BF3
:10180000E5012097B9F6DF91CF911F910F91FF90DD
:10181000EF90DF90CF90BF90AF9008952F5F3F4F34
:1018200033832283A0CF888599850E94970BE0CFD0
:10183000EC81FD810995DCCFF80115821482E0CF9F
:101840001092810010928000109282001092850008
:1018500010928400611520E1720781059105A0F4C2
:10186000E4E0660F771FEA95E1F76150710981E0C6
:1018700092E096BB90936F0070938900609388000C
:101880008860809381000895611520E872078105C2
:10189000910530F4660F771F6150710982E0E8CF3F
:1018A0006C3F2FEF720723E08207910558F442E066
:1018B00096958795779567954A95D1F76150710907
:1018C00083E0D6CF6115710520E18207910558F4B8
:1018D00034E096958795779567953A95D1F761505D
:1018E000710984E0C5CF26E0969587957795679531
:1018F0002A95D1F76150710985E0BACFA1E21A2E7D
:10190000AA1BBB1BFD010DC0AA1FBB1FEE1FFF1FA3
:10191000A217B307E407F50720F0A21BB30BE40BF3
:10192000F50B661F771F881F991F1A9469F760953A
:101930007095809590959B01AC01BD01CF010895F4
:10194000EE0FFF1F0590F491E02D0994F894FFCF5E
:101950000236020000130100000000FF000000003A
:10196000000000170100001B0100001F0100000023
:101970000000000080000000000080000000000067
:10198000010000000000020000000001000400004F
:101990000054657374204661696C65642121212CB3
:1019A000206C696E653A3936200D0A0042757474F0
:1019B0006F6E2070726573736564004D6F64654966
:1019C0006E6372656D656E74004D6F64654465632A
:1019D00072656D656E74001403F401130105000453
:1019E00000EF010100D9010100CB0101000101FE5E
:1019F000003602DB01E1010300AD010300C5010176
:101A000000BF010100B9010100CD01E803E803CDE9
:101A100001E803E803CD01E803E803CD011503DB8A
:101A200001BA01000000000300DB011D03FFFF01FC
:101A300000ED01010000000000000000002802F19C
:101A400001210302FE010C021A022802360244029E
:101A50006A022301000200DA0A80FF0144026A02DE
:101A60002901010200BD0180800144026A022F01A8
:101A7000020000CB0101010144026A0235010300AA
:101A800000F20102020144026A023B010403005316
:101A900008000001000000005461736B3220436FA6
:101AA000756E743A20000000000052049005F303A4
:081AB0003204C503DF03D1037A
:00000001FF
