:100000000C945D000C9485000C9485000C94850084
:100010000C9485000C9485000C9485000C9485004C
:100020000C9485000C9485000C9485000C9485003C
:100030000C9485000C9485000C9485000C9485002C
:100040000C94E0030C9485000C94AE030C9488038C
:100050000C9485000C9485000C9485000C9485000C
:100060000C9485000C94850000000008000201003B
:100070000003040700000000000000000000000072
:10008000250028002B0000000000240027002A0083
:10009000040404040404040402020202020203032E
:1000A0000303030301020408102040800102040836
:1000B00010200102040810202A0411241FBECFEFD3
:1000C000D8E0DEBFCDBF11E0A0E0B1E0E4E2F1E1B5
:1000D00002C005900D92A639B107D9F722E0A6E932
:1000E000B1E001C01D92A735B207E1F710E0CDE500
:1000F000D0E004C02197FE010E94B205CC35D107A3
:10010000C9F70E9475040C9490080C94000090E0CC
:10011000FC01EC55FF4F249180579F4FFC018491C7
:10012000882399F090E0880F991FFC01EA57FF4F50
:10013000A591B491FC01E458FF4F859194918FB73C
:10014000F894EC91E22BEC938FBF0895AF92BF929D
:10015000CF92DF92EF92FF920F931F93CF93DF9393
:100160006C017B018B01040F151FEB015E01AE18C2
:10017000BF08C017D10759F06991D601ED91FC91E4
:100180000190F081E02DC6010995892B79F7C50111
:10019000DF91CF911F910F91FF90EF90DF90CF9063
:1001A000BF90AF900895FC01538D448D252F30E012
:1001B000842F90E0821B930B541710F0CF96089574
:1001C00001970895FC01918D828D981761F0A28DA1
:1001D000AE0FBF2FB11D5D968C91928D9F5F9F7367
:1001E000928F90E008958FEF9FEF0895FC01918D1D
:1001F000828D981731F0828DE80FF11D858D90E08A
:1002000008958FEF9FEF0895FC01918D228D892F26
:1002100090E0805C9F4F821B91098F73992708950E
:1002200082EA91E00E94040121E0892B09F420E098
:10023000822F089580E090E0892B29F00E94100120
:1002400081110C9400000895FC01A48DA80FB92F12
:10025000B11DA35ABF4F2C91848D90E001968F73EE
:100260009927848FA689B7892C93A089B1898C910D
:10027000837080648C93938D848D981306C002885C
:10028000F389E02D80818F7D80830895EF92FF9226
:100290000F931F93CF93DF93EC0181E0888F9B8DA9
:1002A0008C8D98131AC0E889F989808185FF15C063
:1002B0009FB7F894EE89FF896083E889F989808186
:1002C0008370806480839FBF81E090E0DF91CF9155
:1002D0001F910F91FF90EF900895F62E0B8D10E077
:1002E0000F5F1F4F0F731127E02E8C8D8E110CC0E6
:1002F0000FB607FCFACFE889F989808185FFF5CF31
:10030000CE010E942401F1CFEB8DEC0FFD2FF11DEA
:10031000E35AFF4FF0829FB7F8940B8FEA89FB896D
:1003200080818062CFCFCF93DF93EC01888D8823CB
:10033000B9F0AA89BB89E889F9898C9185FD03C048
:10034000808186FD0DC00FB607FCF7CF8C9185FF2D
:10035000F2CF808185FFEDCFCE010E942401E9CF4D
:10036000DF91CF91089590E0FC01E859FF4F24916F
:10037000FC01EC55FF4F3491FC01E057FF4FE49135
:10038000EE23C9F0222339F0233001F1A8F4213003
:1003900019F1223029F1F0E0EE0FFF1FE458FF4F72
:1003A000A591B4918FB7F894EC91611126C0309566
:1003B0003E233C938FBF08952730A9F02830C9F021
:1003C000243049F7809180008F7D03C080918000A8
:1003D0008F7780938000DFCF84B58F7784BDDBCFAC
:1003E00084B58F7DFBCF8091B0008F778093B00074
:1003F000D2CF8091B0008F7DF9CF3E2BDACF3FB7BF
:10040000F89480919B0190919C01A0919D01B091E5
:100410009E0126B5A89B05C02F3F19F00196A11D8E
:10042000B11D3FBFBA2FA92F982F8827BC01CD013E
:10043000620F711D811D911D42E0660F771F881F9D
:10044000991F4A95D1F70895089590E080E00895A6
:10045000FB0101900020E9F73197AF01461B570BD4
:10046000DC01ED91FC910280F381E02D0994CF93A2
:10047000DF93EC0160E08E810E94B30161E08E8128
:100480000E94B30160E08E810E94B3018BE891E08D
:100490000197F1F7DF91CF910895CF92DF92EF921C
:1004A000FF920F931F93CF93DF936C017C0187E042
:1004B000E80EF11CD0E0C0E0062F10E0B8010C2ED1
:1004C00002C0759567950A94E2F76170F701819112
:1004D0007F010E94B3012196C430D10579F7C6018E
:1004E000DF91CF911F910F91FF90EF90DF90CF9010
:1004F0000C943702CF92DF92EF92FF920F931F93EB
:10050000CF93DF93EC01F62E642F8C810E94B30110
:100510008D818F3F19F060E00E94B3010F2D10E034
:100520008F8584FF25C06E0187E0C80ED11CF12C99
:10053000E12CB8010E2C02C0759567950A94E2F77C
:100540006170F60181916F010E94B301FFEFEF1A14
:10055000FF0A88E0E816F10461F7CE01DF91CF9140
:100560001F910F91FF90EF90DF90CF900C94370286
:10057000B80184E0759567958A95E1F7CE010E94F0
:100580004D026F2DCE01DF91CF911F910F91FF9002
:10059000EF90DF90CF900C944D0240E0682F8FE3F6
:1005A00092E00C947A02CF93DF93613029F090911E
:1005B0004E02986090934E02609352021092530242
:1005C00090E49093540280935502805C809356028D
:1005D000809143020E948700809144028F3F11F076
:1005E0000E948700809145020E948700CFE3D2E0FD
:1005F0009E012F53324080914E0284FD0AC084E058
:1006000090E02196281739073CF48E810E948700DC
:10061000EFCF88E090E0F5CF8BE39DE00197F1F715
:1006200060E0809143020E94B30160E08091450246
:100630000E94B301809144028F3F19F060E00E9454
:10064000B30180914E0284FD39C063E08FE392E0F4
:100650000E944D02CBE4D6E4CE010197F1F763E0AE
:100660008FE392E00E944D022197F1F763E08FE360
:1006700092E00E944D0283E592E00197F1F762E07B
:100680008FE392E00E944D0280914E0280620E94B0
:10069000CD0284E080934F028CE00E94CD0281E085
:1006A0000E94CD028BE39FE10197F1F782E08093F6
:1006B000500286E0DF91CF910C94CD0280620E94BF
:1006C000CD028BE496E40197F1F780914E028062AF
:1006D0000E94CD0283E592E00197F1F780914E02EE
:1006E00080620E94CD02D0CF90915202891710F003
:1006F0008FEF890FE82FF0E0E15CFD4F848980687F
:100700000C94CD0241E00E947A0281E090E00895CD
:100710001F920F920FB60F9211242F933F934F9376
:100720005F936F937F938F939F93AF93BF93EF9359
:10073000FF9382EA91E00E942401FF91EF91BF9123
:10074000AF919F918F917F916F915F914F913F9169
:100750002F910F900FBE0F901F9018951F920F9220
:100760000FB60F9211242F938F939F93EF93FF93C4
:10077000E091B201F091B3018081E091B801F09174
:10078000B90182FD1BC090818091BB018F5F8F7387
:100790002091BC01821741F0E091BB01F0E0EE55E1
:1007A000FE4F958F8093BB01FF91EF919F918F91A9
:1007B0002F910F900FBE0F901F9018958081F4CF4E
:1007C0001F920F920FB60F9211242F933F938F9386
:1007D0009F93AF93BF938091970190919801A091BF
:1007E0009901B0919A013091960123E0230F2D37A2
:1007F00058F50196A11DB11D209396018093970194
:1008000090939801A0939901B0939A0180919B01D4
:1008100090919C01A0919D01B0919E010196A11D16
:10082000B11D80939B0190939C01A0939D01B09377
:100830009E01BF91AF919F918F913F912F910F900A
:100840000FBE0F901F90189526E8230F0296A11D4A
:10085000B11DD2CFE2EAF1E01382128288EE93E07A
:10086000A0E0B0E084839583A683B7838CE091E019
:100870009183808385EC90E09587848784EC90E079
:100880009787868780EC90E0918B808B81EC90E05D
:10089000938B828B82EC90E0958B848B86EC90E03E
:1008A000978B868B118E128E138E148EEFE3F2E0EF
:1008B000138212828EE191E09183808388E08483A9
:1008C0008FEF858389E086838AE087838BE080874A
:1008D0008CE081878DE082871386148615861686C4
:1008E000178661E080E10C94D302CF93DF93CDB7FC
:1008F000DEB764970FB6F894DEBF0FBECDBF789415
:1009000084B5826084BD84B5816084BD85B5826014
:1009100085BD85B5816085BD80916E0081608093C5
:100920006E0010928100809181008260809381002E
:10093000809181008160809381008091800081603E
:10094000809380008091B10084608093B100809199
:10095000B00081608093B00080917A0084608093C1
:100960007A0080917A00826080937A0080917A0088
:10097000816080937A0080917A00806880937A0009
:100980001092C10064E084E10E94D30288E40E94D6
:10099000CD0200E011E038E0E32E31E0F32EF80163
:1009A00061918F018FE392E00E948203E016F106CD
:1009B000B1F781E00E94CD028BE39FE10197F1F74F
:1009C00066E271E08FE392E00E942802E091B201BA
:1009D000F091B30182E08083E091AE01F091AF012C
:1009E0001082E091B001F091B1018FEC8083109200
:1009F000BA01E091B601F091B70186E08083E09101
:100A0000B401F091B501808180618083E091B401EF
:100A1000F091B501808188608083E091B401F0910C
:100A2000B501808180688083E091B401F091B501C7
:100A300080818F7D80836BE371E082EA91E00E9488
:100A400028026FE471E082EA91E00E9428029BE8AC
:100A5000E92E91E0F92ECE0101966C0120E0222EC4
:100A600020E0322E0E94FF014B015C0184EF482EF2
:100A700055245394612C712C0E94FF016819790947
:100A80008A099B09683E734081059105A8F391E0AE
:100A9000491A510861087108E8EE8E0EE3E09E1EC7
:100AA000A11CB11C411451046104710429F780E0B8
:100AB0000E94740362E571E08FE392E00E942802D5
:100AC00081E00E94740363E671E08FE392E00E948C
:100AD000280261E08FE392E00E9482038091A101ED
:100AE000811138C081E08093A10182E00E947403EB
:100AF00061E771E08FE392E00E94280200919F017C
:100B00001091A0010F5F1F4F1093A00100939F0150
:100B100083E00E9474031F930F93FF92EF92DF9282
:100B2000CF920E94B805B6018FE392E00E9428029E
:100B30000F900F900F900F900F900F902114310491
:100B400009F490CF0E941001882309F48BCF0E94F2
:100B5000000088CF1092A10182E00E9474036EE72A
:100B600071E0C8CFEE0FFF1F0590F491E02D0994BE
:100B7000AEE0B0E0EEEBF5E00C9467080D891E895D
:100B800086E08C831A8309838FEF9FE79E838D8392
:100B9000AE01475E5F4F6F89788DCE0101960E944E
:100BA000DB052F813885020F131FF80110822E9666
:100BB000E4E00C948308ABE0B0E0E1EEF5E00C94E7
:100BC00059087C013B018A01FC011782168283814E
:100BD00081FFC8C1CE0101965C01F7019381F30149
:100BE00093FD859193FF81913F01882309F453C1BF
:100BF000853239F493FD859193FF81913F018532D0
:100C000029F4B70190E00E94CB07E7CF912C212C6B
:100C1000312CFFE1F31538F08B3211F190F4803272
:100C200009F1833229F137FC3CC020ED280F2A302E
:100C300050F536FE20C08AE0989E200D1124922E99
:100C400006C08D3291F0803371F7689430F8F3016B
:100C500093FD859193FF81913F018111DACF21C0EE
:100C6000689431F8689432F8F2CF689433F8EFCF93
:100C7000689434F8ECCFEAE02E9E200D1124222E49
:100C8000689435F8E4CF8E3229F436FC04C16894B8
:100C900036F8DDCF8C3619F4689437F8D8CF88361B
:100CA000B1F2982F9F7D95549330E0F08336A1F1F7
:100CB0008337C1F1833509F063C02801F2E04F0E9C
:100CC000511CF801C080D180692D70E036FC02C053
:100CD0006FEF7FEFC6010E94B5074C01689437F8AB
:100CE00082010AC00C5F1F4FFFE3F98388248394BD
:100CF000912C6501E89437F833FE2DC0522C8114F5
:100D0000910471F5552009F468CFB70180E290E0B5
:100D10000E94CB075A94F6CFF801808189830E5F39
:100D20001F4FE4CF2801F2E04F0E511CF801C080A4
:100D3000D180692D70E036FC02C06FEF7FEFC601F5
:100D40000E94C0074C018201D5CFB70180E290E03C
:100D50000E94CB072A942814190409F0B0F7CECFCB
:100D6000F60137FC859137FE81916F01B70190E064
:100D70000E94CB0751105A94F1E08F1A9108BFCF0F
:100D8000843619F0893609F077C0F80137FE6BC058
:100D900060817181828193810C5F1F4FF32DFF76FB
:100DA0003F2E97FF09C090958095709561957F4F74
:100DB0008F4F9F4F689437F82AE030E0A5010E94DA
:100DC000FB07C82ECA188C2C432C36FE0CC0E894A6
:100DD00040F8C91440F434FE05C032FC03C0F32DC2
:100DE000FE7E4F2E892C44FE95C0FE01EC0DF11DB8
:100DF0008081803309F087C0242D297E422E842DE6
:100E00008870582E43FC95C040FE8FC09C2C8214E5
:100E100018F42C0C922C981844FE91C0B70180E372
:100E200090E00E94CB0742FE09C088E790E041FEB7
:100E300002C088E590E0B7010E94CB07C91408F40E
:100E40008AC0CA94D12C9FEFC91AD90ACA0CDB1CDC
:100E5000F60182916F01B70190E00E94CB07AC14BC
:100E6000BD04B1F74FCF60817181072E000C880B54
:100E7000990B0E5F1F4F92CFD32CE894D4F82AE041
:100E800030E0853739F1232D297FD22E8F3601F1BD
:100E900048F48835A9F0F701868197812B96E2E125
:100EA0000C947508803749F08837A9F7D4FE02C042
:100EB0006894D2F820E130E00DC06894D4F8F6CF01
:100EC00034FE03C0822F8660D82E20E132E002C0BB
:100ED00028E030E0F801D7FE0FC060817181828187
:100EE00093810C5F1F4FA5010E94FB07C82ECA18F3
:100EF0003D2CE89437F867CF6081718190E080E005
:100F00000E5F1F4FF0CF42FC02C0839478CF8394D2
:100F1000839475CF842D867809F471CFF6CFB7010D
:100F200080E290E00E94CB0783948214C0F3512C9E
:100F300073CF522C5818821408F46ECFF8CF842D3A
:100F4000867809F47BCF8BE241FE80E247FC8DE29C
:100F5000B70190E071CFB70180E390E00E94CB072A
:100F60009A946CCF8FEF9FEF99CFFC010590615061
:100F700070400110D8F7809590958E0F9F1F0895AF
:100F8000FC016150704001900110D8F78095909558
:100F90008E0F9F1F08950F931F93CF93DF93182FEA
:100FA000092FEB018B8181FD09C01FEF0FEF812F0E
:100FB000902FDF91CF911F910F91089582FF14C060
:100FC0002E813F818C819D81281739073CF4E8816F
:100FD000F981CF0101969983888310838E819F8147
:100FE00001969F838E83E3CFE885F985812F09954C
:100FF000892BA1F3DACFFA01AA27283051F1203149
:1010000081F1E8946F936E7F6E5F7F4F8F4F9F4F9C
:10101000AF4FB1E03ED0B4E03CD0670F781F891FDE
:101020009A1FA11D680F791F8A1F911DA11D6A0FAC
:10103000711D811D911DA11D20D009F468943F915F
:101040002AE0269F11243019305D3193DEF6CF015E
:101050000895462F4770405D4193B3E00FD0C9F724
:10106000F6CF462F4F70405D4A3318F0495D31FD91
:101070004052419302D0A9F7EACFB4E0A6959795E4
:10108000879577956795BA95C9F7009761057105BA
:1010900008959B01AC010A2E069457954795379504
:1010A0002795BA95C9F7620F731F841F951FA01D5E
:1010B00008952F923F924F925F926F927F928F92FC
:1010C0009F92AF92BF92CF92DF92EF92FF920F93D7
:1010D0001F93CF93DF93CDB7DEB7CA1BDB0B0FB6E1
:1010E000F894DEBF0FBECDBF09942A88398848889E
:1010F0005F846E847D848C849B84AA84B984C88434
:10110000DF80EE80FD800C811B81AA81B981CE0F2A
:10111000D11D0FB6F894DEBF0FBECDBFED0108950F
:04112000F894FFCF71
:1011240000000A1F1F0E0400000000004601A60074
:10113400D30093010401E200F600000000008203E2
:10114400A600250224023D3D3D2044656D6F2048E4
:10115400443434373830203D3D3D0048656C6C6F75
:10116400204F53454B2D41726475696E6F21000DFC
:101174000A0044656D6F204C43442D484434343791
:10118400383000437573746F6D20436861723A2080
:101194000049204C6F7665012053495421004920B1
:1011A4004C6F766520205349542100436F756E744B
:0611B4003A20253364001F
:00000001FF
