:100000000C945D000C9485000C9485000C94850084
:100010000C9485000C9485000C9485000C9485004C
:100020000C9485000C9485000C9485000C9485003C
:100030000C9485000C9485000C9485000C9485002C
:100040000C94F5010C9485000C9449040C947B04E9
:100050000C9485000C9485000C9485000C9485000C
:100060000C9485000C94850000000008000201003B
:100070000003040700000000000000000102040863
:100080001020408001020408102001020408102002
:10009000040404040404040402020202020203032E
:1000A0000303030300000000250028002B000000CC
:1000B0000000240027002A00AB0411241FBECFEF4C
:1000C000D8E0DEBFCDBF11E0A0E0B1E0E0EBF2E1AF
:1000D00002C005900D92A43CB107D9F722E0A4EC30
:1000E000B1E001C01D92A737B207E1F710E0CDE5FE
:1000F000D0E004C02197FE010E945009CC35D10701
:10010000C9F70E9455010C9456090C94DE080000B2
:100110002F923F924F925F926F927F928F929F9217
:10012000AF92BF92CF92DF92EF92FF920F931F9305
:10013000CF93DF93E42FF52F419050804F925F9241
:10014000E42FF52F4DB65EB6419250820C94A80074
:10015000E62FF72F419050804DBE5EBE5F904F90CE
:10016000E62FF72F41925082DF91CF911F910F918F
:10017000FF90EF90DF90CF90BF90AF909F908F90C7
:100180007F906F905F904F903F902F900C94CD0692
:10019000E62FF72F419150814DBF5EBF0C94CE06E4
:1001A0002F923F924F925F926F927F928F929F9287
:1001B000AF92BF92CF92DF92EF92FF920F931F9375
:1001C000CF93DF93E42FF52F419050804F925F92B1
:1001D000E42FF52F4DB65EB6419250820C94C800C4
:1001E000E82FF92F419150814DBF5EBFE62FF72FC9
:1001F000099400000F931F93CF93DF9300D0CDB7E6
:10020000DEB78DB79EB79A8389838091C4019091A0
:10021000C501892BA9F489819A819093C5018093A6
:10022000C401F8948AE493E0892B11F00E944A03F8
:1002300078940F900F90DF91CF911F910F910895B7
:100240002091C4013091C50189819A81281739070D
:1002500041F3F89488E291E00E945F010AE413E020
:1002600001151105E9F30E944A03FACF61E084E029
:100270000E94A30260E084E00E94DF0261E083E06C
:100280000E94A30260E083E00E94DF0226E040E0DB
:1002900052EC61E070E089ED91E00E94E70363E4D5
:1002A00071E089ED91E00C941F050E943F020E94CD
:1002B000360180E00E94D10590E080E00895F89436
:1002C000FC0101900020E9F73197AF01481B590B61
:1002D000BC0189ED91E00E94D80478940895809142
:1002E000CC019091CD01823C2AE29207ACF11092B0
:1002F000CD011092CC018091CA019091CB01892B44
:1003000029F581E090E09093CB018093CA0161E0F0
:1003100083E00E94DF026091CE017091CF016F5F98
:100320007F4F7093CF016093CE014AE050E089ED9A
:1003300091E00E94CA0565EA71E089ED91E00E94B2
:100340001F0581E00E947D060C94A6061092CB0149
:100350001092CA0160E0DCCF01969093CD018093AA
:10036000CC01EFCF8091260190912701823C2AE2B7
:100370009207ACF110922701109226018091C801DA
:100380009091C901892B29F581E090E09093C901F2
:100390008093C80161E084E00E94DF026091CE0199
:1003A0007091CF016F5F7F4F7093CF016093CE014B
:1003B0004AE050E089ED91E00E94CA056BEA71E0E5
:1003C00089ED91E00E941F0580E00E947D060C945B
:1003D000A6061092C9011092C80160E0DCCF019618
:1003E0009093270180932601EFCF1F920F920FB6B3
:1003F0000F9211242F933F938F939F93AF93BF93AB
:100400008091D1019091D201A091D301B091D401FA
:100410003091D00123E0230F2D3758F50196A11D0F
:10042000B11D2093D0018093D1019093D201A0936C
:10043000D301B093D4018091D5019091D601A091C0
:10044000D701B091D8010196A11DB11D8093D501AE
:100450009093D601A093D701B093D801BF91AF91EB
:100460009F918F913F912F910F900FBE0F901F90F2
:10047000189526E8230F0296A11DB11DD2CF7894BE
:1004800084B5826084BD84B5816084BD85B5826099
:1004900085BD85B5816085BDEEE6F0E08081816037
:1004A0008083E1E8F0E01082808182608083808137
:1004B00081608083E0E8F0E0808181608083E1EB0F
:1004C000F0E0808184608083E0EBF0E080818160F7
:1004D0008083EAE7F0E080818460808380818260AD
:1004E0008083808181608083808180688083109296
:1004F000C1000895833081F028F4813099F0823072
:10050000A9F008958730A9F08830C9F08430B1F49B
:10051000809180008F7D03C0809180008F778093D1
:100520008000089584B58F7784BD089584B58F7D4C
:10053000FBCF8091B0008F778093B00008958091B9
:10054000B0008F7DF9CFCF93DF9390E0FC01E458AA
:10055000FF4F249180579F4FFC0184918823C9F05D
:1005600090E0880F991FFC01E255FF4FA591B491CF
:10057000FC01EC55FF4FC591D49161110DC09FB79F
:10058000F8948C91209582238C938881282328834A
:100590009FBFDF91CF910895623051F49FB7F894D7
:1005A0003C91822F809583238C93E8812E2BEFCF73
:1005B0008FB7F894EC912E2B2C938FBFEACF1F931B
:1005C000CF93DF93282F30E0F901E859FF4F849152
:1005D000F901E458FF4FD491F901E057FF4FC4915E
:1005E000CC23A9F0162F81110E947A02EC2FF0E0A3
:1005F000EE0FFF1FEC55FF4FA591B4918FB7F89404
:10060000EC91111108C0D095DE23DC938FBFDF91F0
:10061000CF911F910895DE2BF8CFFC01918D228D93
:10062000892F90E0805C9F4F821B91098F739927DF
:100630000895FC01918D828D981731F0828DE80F1D
:10064000F11D858D90E008958FEF9FEF0895FC01D7
:10065000918D828D981761F0A28DAE0FBF2FB11DC5
:100660005D968C91928D9F5F9F73928F90E008951D
:100670008FEF9FEF0895FC01538D448D252F30E0BF
:10068000842F90E0821B930B541710F0CF9608959F
:100690000197089581EA94E0892B49F080E090E089
:1006A000892B29F00E94A10481110C940000089567
:1006B000FC01A48DA80FB92FB11DA35ABF4F2C91D7
:1006C000848D90E001968F739927848FA689B789CE
:1006D0002C93A089B1898C91837080648C93938DC5
:1006E000848D981306C00288F389E02D80818F7D68
:1006F00080830895CF93DF93EC01888D8823B9F030
:10070000AA89BB89E889F9898C9185FD03C080811C
:1007100086FD0DC00FB607FCF7CF8C9185FFF2CF99
:10072000808185FFEDCFCE010E945803E9CFDF9194
:10073000CF910895EF92FF920F931F93CF93DF9382
:10074000EC0181E0888F9B8D8C8D98131AC0E8890D
:10075000F989808185FF15C09FB7F894EE89FF89DC
:100760006083E889F98980818370806480839FBF7A
:1007700081E090E0DF91CF911F910F91FF90EF907A
:100780000895F62E0B8D10E00F5F1F4F0F7311278A
:10079000E02E8C8D8E110CC00FB607FCFACFE889C5
:1007A000F989808185FFF5CFCE010E945803F1CFF2
:1007B000EB8DEC0FFD2FF11DE35AFF4FF0829FB739
:1007C000F8940B8FEA89FB8980818062CFCFCF922A
:1007D000DF92EF92FF921F93CF93DF93EC016A01B8
:1007E0007B01122FE889F98982E08083C11481EEB0
:1007F000D806E104F104A1F060E079E08DE390E037
:10080000A70196010E942E09215031094109510981
:100810005695479537952795211580E1380798F02B
:10082000E889F989108260E874E88EE190E0A70118
:1008300096010E942E09215031094109510956950E
:10084000479537952795EC85FD853083EE85FF85A7
:100850002083188EEC89FD891083EA89FB898081C9
:1008600080618083EA89FB89808188608083EA894E
:10087000FB89808180688083EA89FB8980818F7D04
:100880008083DF91CF911F91FF90EF90DF90CF9009
:1008900008951F920F920FB60F9211242F938F93EA
:1008A0009F93EF93FF93E091E901F091EA0180813A
:1008B000E091EF01F091F00182FD1BC090818091E9
:1008C000F2018F5F8F732091F301821741F0E09165
:1008D000F201F0E0E752FE4F958F8093F201FF9115
:1008E000EF919F918F912F910F900FBE0F901F90BE
:1008F00018958081F4CF1F920F920FB60F9211249A
:100900002F933F934F935F936F937F938F939F9317
:10091000AF93BF93EF93FF9389ED91E00E9458034B
:10092000FF91EF91BF91AF919F918F917F916F91C7
:100930005F914F913F912F910F900FBE0F901F909D
:10094000189589ED91E00E940D0321E0892B09F4AF
:1009500020E0822F0895E9EDF1E01382128288EE03
:1009600093E0A0E0B0E084839583A683B78385EB12
:1009700091E09183808385EC90E09587848784EC77
:1009800090E09787868780EC90E0918B808B81EC5C
:1009900090E0938B828B82EC90E0958B848B86EC3D
:1009A00090E0978B868B118E128E138E148E089585
:1009B000AF92BF92CF92DF92EF92FF920F931F936D
:1009C000CF93DF936C017B018B01040F151FEB01AB
:1009D0005E01AE18BF08C017D10759F06991D60162
:1009E000ED91FC910190F081E02DC6010995892BD4
:1009F00079F7C501DF91CF911F910F91FF90EF9093
:100A0000DF90CF90BF90AF900895FB010190002040
:100A1000E9F73197AF01461B570BDC01ED91FC91D3
:100A20000280F381E02D0994DC01ED91FC910190AD
:100A3000F081E02D099460E471E00C9405050F93BA
:100A40001F93CF93DF938C01D0E0C0E06115710557
:100A500019F00E940505EC01C8010E941B058C0FCE
:100A60009D1FDF91CF911F910F9108958F929F92BB
:100A7000AF92BF92EF92FF920F931F93CF93DF93AA
:100A8000CDB7DEB7A1970FB6F894DEBF0FBECDBFCE
:100A90007C01FA01CB0119A2223008F42AE08E0170
:100AA0000F5D1F4F822E912CB12CA12CBF01A501EF
:100AB00094010E942E09F901CA016A300CF5605DAB
:100AC000D8016E938D01232B242B252B79F790E0F1
:100AD00080E0109721F0BD01C7010E940505A19695
:100AE0000FB6F894DEBF0FBECDBFDF91CF911F913F
:100AF0000F91FF90EF90BF90AF909F908F900895CF
:100B0000695CDECFCF92DF92EF92FF920F931F933B
:100B1000CF93DF932115310581F4DC01ED91FC9138
:100B20000190F081E02D642FDF91CF911F910F9103
:100B3000FF90EF90DF90CF9009942A30310501F5B6
:100B40002AE077FF1DC06A017B01EC016DE20E9483
:100B500014058C0144275527BA014C195D096E090B
:100B60007F092AE0CE010E943605800F911FDF9198
:100B7000CF911F910F91FF90EF90DF90CF9008954C
:100B8000DF91CF911F910F91FF90EF90DF90CF9069
:100B90000C9436059A01AB01770F660B770B0C941A
:100BA00082054F925F926F927F928F929F92AF9247
:100BB000BF92CF92DF92EF92FF920F931F93CF934A
:100BC000DF9300D0CDB7DEB70091610110916201D3
:100BD0009FB7F894D80118962D913C911997232B23
:100BE00009F075C020EE38E03A832983A0906501B2
:100BF000B090660121E030E019963C932E9318974F
:100C00001A968C93E0906701F09068013801B2E089
:100C10006B0E711CD12CC12CE4E08E9FC0011124FD
:100C2000E80EF91E2701F2E04F0E511C8824839430
:100C3000912CF20180819181C816D90618F1D80152
:100C400018968D919C911997019731F482E090E06C
:100C500019969C938E931897F80180859185029739
:100C600041F4D50112966D917C91AB01C5010E94B2
:100C7000D000F80180859185029709F4789490E07E
:100C800080E028C0D701ED91FC91C601880F991F23
:100C9000E80FF91F40815181DA011496ED91FC9122
:100CA00080818F5F808393828282F8016481758165
:100CB000DB018D919C911197958384831D921C92E9
:100CC000C3010E94B607BFEFCB1ADB0AB2CF9FBFAA
:100CD00081E090E00F900F90DF91CF911F910F91E5
:100CE000FF90EF90DF90CF90BF90AF909F908F904C
:100CF0007F906F905F904F900895CF9390E02091F8
:100D00005D0130915E0182179307E8F4209159014B
:100D100030915A01880F991F820F931FFC01408167
:100D20005181FA0187819085029768F4CFB7F894D2
:100D300021E030E061E671E087E591E00E94E7079D
:100D4000CFBFCF91089583E090E0FBCFE0916101A8
:100D5000F09162010190F081E02D8FB7F89465EB7E
:100D600076E0828193810E94F000CF93DF9300D0E0
:100D7000CDB7DEB7AE014F5F5F4F61E671E087E54B
:100D800091E00E944D08BC0189819A810E94FD0872
:100D90000F900F90DF91CF9108950895EC01EC81B1
:100DA000FD8181818F3F09F07894E985FA85099565
:100DB0008FB7F89465EB76E08A819B810E94F00002
:100DC0000F931F93CF93DF93CFB7F89461E671E051
:100DD00087E591E00E94C508CFBF009161011091A5
:100DE0006201C0916301D0916401F8018085918511
:100DF0008230910551F08091650190916601DF91FB
:100E0000CF911F910F910C941309209789F3FE0144
:100E10000995EBCF0F931F93CF93DF93EC01A8813C
:100E2000B981EB01E881F9811696CD91DC91179794
:100E30002097C1F18A819B81309709F43FC0EC0172
:100E40000C811D8122813381E9014C815D81E801A2
:100E50003981EA012981321788F522E030E0E80182
:100E60003B832A8320813181EB0139832883C2812E
:100E7000D3812C813D8116964D915C9117975183BA
:100E800040831796FC93EE931697CD93DC934C8595
:100E9000F9015181541708F44183DF91CF911F91DB
:100EA0000F910895309751F0EC018C819D81EC01F8
:100EB0004C815D8122E030E0EA01D2CF90E080E019
:100EC000ECCFCF92DF92EF92FF920F931F93CF93CD
:100ED000DF93EB01AA81BB811496ED91FC911597EC
:100EE0004115510501F12281338122303105D8F0BD
:100EF0001B962C91DC01ED91FC91B0E0A0E03097C5
:100F0000A1F4109769F16D937C9390E080E0EB0180
:100F1000F983E883DF91CF911F910F91FF90EF90BC
:100F2000DF90CF9008952181E5CF02811381E80100
:100F3000CC80DD804115510581F0E601EA80FB801F
:100F4000D2E0ED16F10448F0E8013B853217C8F213
:100F5000DF010190F081E02DD2CFE6013981F6CF9B
:100F6000DC016D937C9381E090E0D1CFFB01538352
:100F7000428341E050E00C946107EF92FF920F939F
:100F80001F93CF93DF938C01FC01C081D181EE8050
:100F9000FF80F701808191819F838E83C8010E9429
:100FA0000A07892B41F4EE81FF81309761F082813D
:100FB000938199838883C701DF91CF911F910F910E
:100FC000FF90EF900895F80184819581F2CFCF9240
:100FD000DF92EF92FF920F931F93CF93DF93DA018B
:100FE0001496CD90DC901597E60198811D968C9112
:100FF000981708F04FC0DB01ED91FC910081118141
:10100000E801EC80FD809F5FD6019C93A481B581AF
:101010006D917C911197232B49F1E7019981E601AC
:101020008981981718F57583648382E090E0E70161
:101030009B838A8313965C934E9312978681978144
:1010400011969C938E93B783A68351834083BA01F4
:10105000C8010E94E20890E080E0DF91CF911F91EB
:101060000F91FF90EF90DF90CF900895E6018A8175
:101070009B81892B21F481E090E09B838A83758397
:10108000648311961C921E92BD01CF0102960E94AC
:10109000B607E1CF84E090E0E0CFAF92BF92CF926D
:1010A000DF92EF92FF920F931F93CF93DF935B0139
:1010B000DB01CD91DC91FE01019111917F01D801FD
:1010C0001496CD90DC90FA0111830083D60112961C
:1010D0008D919C910497A9F5B701C5010E94BD07A8
:1010E000AC01888199810817190731F1D80114964C
:1010F000ED91FC9115971B962C9121832081215015
:101100002083211114C0138212822C813D81DA01C7
:101110002D933C935D834C83DF91CF911F910F9171
:10112000FF90EF90DF90CF90BF90AF90089521E0B7
:1011300030E033832283E9CFF601208121502083E0
:10114000E4CF6E817F81FB01808191819F838E83BB
:10115000D8011B968C91F601818381E090E0938306
:101160008283A801C7010E94B607B701C5010E948A
:101170000A07892B39F4EE81FF818281938199835B
:101180008883CACF88819981C7CFCF93DF93CB0162
:10119000FB01C081D181BE016E5F7F4F0E940A07B3
:1011A000009749F0688179810E94E20881E090E02F
:1011B000DF91CF91089590E080E0FACFF894FFCFCF
:1011C000ECEB0895FB01A481B58112962D913C9121
:1011D000139744E050E013965C934E931297DC0112
:1011E00012964D915C9162817381CF01223031055D
:1011F00011F40C9488000C94D000CB01DB01149600
:10120000ED91FC9115972281338144E050E05383A6
:10121000428312966D917C912230310511F40C9429
:10122000A8000C94C800DC0112966D917C91139774
:10123000ED91FC9140815181DB01ED91FC9122897E
:1012400033892115310519F04217530729F4DB01C1
:10125000ED93FC930C94A800F901F1CFA1E21A2EB2
:10126000AA1BBB1BFD010DC0AA1FBB1FEE1FFF1F4A
:10127000A217B307E407F50720F0A21BB30BE40B9A
:10128000F50B661F771F881F991F1A9469F76095E1
:101290007095809590959B01AC01BD01CF0108959B
:1012A000EE0FFF1F0590F491E02D0994F894FFCF05
:1012B00093010000120100000000FF000000000088
:1012C0000000160100000000000000010000000204
:1012D000000001000400C22A54657374204661694D
:1012E0006C65642121212C206C696E653A393420AB
:1012F0000D0A0048656C6C6F204F53454B2D4172B1
:101300006475696E6F21007602710112010300029B
:10131000000001FA0093016B0101006F01010077E9
:1013200001770185019301A101C6011A01000000A6
:101330006F01017F01A101C6011E01010000B20180
:10134000027F01A101C6012201020300E0060000A4
:1013500001000000005461736B31005461736B3203
:1013600000000000009A03D8043B037A030D032712
:04137000031903005A
:00000001FF
