:100000000C945E000C9486000C9486000C94860080
:100010000C9486000C9486000C9486000C94860048
:100020000C9486000C9486000C9486000C94560A5E
:100030000C9486000C9486000C9486000C94860028
:100040000C94BA030C9486000C9419060C944B067D
:100050000C9486000C9486000C9486000C94860008
:100060000C9486000C948600000000080002010039
:100070000003040700000000000000000102040863
:100080001020408001020408102001020408102002
:10009000040404040404040402020202020203032E
:1000A0000303030300000000250028002B000000CC
:1000B0000000240027002A0028037B0611241FBE0D
:1000C000CFEFD8E0DEBFCDBF12E0A0E0B1E0E0E8C6
:1000D000FEE102C005900D92A035B107D9F723E0EB
:1000E000A0E5B2E001C01D92A232B207E1F710E034
:1000F000CEE5D0E004C02197FE010E94600CCC3513
:10010000D107C9F70E940E030C943E0F0C94520ABB
:100110002F923F924F925F926F927F928F929F9217
:10012000AF92BF92CF92DF92EF92FF920F931F9305
:10013000CF93DF93E42FF52F419050804F925F9241
:10014000E42FF52F4DB65EB6419250820C94A80074
:10015000E62FF72F419050804DBE5EBE5F904F90CE
:10016000E62FF72F41925082DF91CF911F910F918F
:10017000FF90EF90DF90CF90BF90AF909F908F90C7
:100180007F906F905F904F903F902F900C94080855
:10019000E62FF72F419150814DBF5EBF0C940908A7
:1001A0002F923F924F925F926F927F928F929F9287
:1001B000AF92BF92CF92DF92EF92FF920F931F9375
:1001C000CF93DF93E42FF52F419050804F925F92B1
:1001D000E42FF52F4DB65EB6419250820C94C800C4
:1001E000E82FF92F419150814DBF5EBFE62FF72FC9
:1001F0000994000090E080E008950895CF93DF9384
:10020000EC0160E08E810E94AF0481E090E00E94EA
:10021000040461E08E810E94AF0481E090E00E94BE
:10022000040460E08E810E94AF0484E690E0DF91D8
:10023000CF910C940404CF92DF92EF92FF920F9330
:100240001F93CF93DF936C017C0187E0E80EF11CD4
:10025000D0E0C0E0062F10E0B8010C2E02C075956A
:1002600067950A94E2F76170F70181917F010E941E
:10027000AF042196C430D10579F7C601DF91CF9143
:100280001F910F91FF90EF90DF90CF900C94FE00A4
:10029000CF92DF92EF92FF920F931F93CF93DF9352
:1002A0006C017C0187E0E80EF11CD0E0C0E0062F75
:1002B00010E0B8010C2E02C0759567950A94E2F71C
:1002C0006170F70181917F010E94AF042196C830CF
:1002D000D10579F7C601DF91CF911F910F91FF9062
:1002E000EF90DF90CF900C94FE001F93CF93DF939D
:1002F000EC01162F642F8C810E94AF048D818F3FFB
:1003000019F060E00E94AF048F85612F84FF06C062
:10031000CE01DF91CF911F910C94480170E084E0F1
:10032000759567958A95E1F7CE010E941B01612FB3
:10033000CE01DF91CF911F910C941B0140E00C94F2
:10034000750161E00E949E0180ED97E00C94040429
:10035000443008F043E0FC012389421710F04FEFCE
:10036000420FFC01E40FF11D2489620F60680C94B8
:100370009E01FC016089262F2460208B6C600C9408
:100380009E010F931F93CF93DF93EC01423018F03F
:100390008F8588608F874B8B1C8A80E48D8B6E8B5A
:1003A000605C6F8B222329F0413019F48F858460C3
:1003B0008F8761E08C810E9473048D818F3F19F0DB
:1003C00061E00E94730461E08E810E9473048E01DB
:1003D00098012C1B3D0B8F8584FD0DC084E090E0BF
:1003E0000F5F1F4F281739074CF461E0F801868131
:1003F0000E947304EDCF88E090E0F2CF80E593ECAB
:100400000E94040460E08C810E94AF0460E08E8151
:100410000E94AF048D818F3F19F060E00E94AF040D
:100420006F8564FD33C063E0CE010E941B0184E947
:1004300091E10E94040463E0CE010E941B0184E963
:1004400091E10E94040463E0CE010E941B0186E951
:1004500090E00E94040462E0CE010E941B016F85BF
:100460006062CE010E949E0184E0888BCE010E94D2
:10047000B901CE010E94A10182E0898B66E0CE0124
:10048000DF91CF911F910F910C949E016062CE017C
:100490000E949E0184E991E10E9404046F856062DC
:1004A000CE010E949E0186E990E00E9404046F85BF
:1004B0006062CE010E949E01D2CFCF92EF920F9345
:1004C000FC011382128282E391E091838083648332
:1004D0008FEF8583468327830087E186C286138654
:1004E000148615861686178620E041E060E1CF016C
:1004F0000F91EF90CF900C94C101EF92FF920F9368
:100500001F93CF93DF938C017A01677088E0689F17
:10051000B00111246064C8010E949E01E701A8E0B7
:10052000EA0EF11C6991D801ED91FC910190F081E6
:10053000E02DC8010995CE15DF05A1F7DF91CF9118
:100540001F910F91FF90EF90089541E00E94750177
:1005500081E090E008950F931F93CF93DF9300D035
:10056000CDB7DEB78DB79EB79A838983809150024D
:1005700090915102892BA9F489819A81909351021B
:1005800080935002F8948AE195E0892B11F00E9443
:100590001A0578940F900F90DF91CF911F910F91D2
:1005A0000895209150023091510289819A81281733
:1005B000390741F3F8948AE391E00E9418030AE1B5
:1005C00015E001151105E9F30E941A05FACF20E0A4
:1005D00044E064E187E592E00E94C10140E051E01F
:1005E00061E087E592E00E947D0287E592E00E944B
:1005F000A10165E571E087E592E00E94E40626E04E
:1006000040E855E260E070E088E792E00E94B705BC
:100610006AE671E088E792E00C94F0060E940F040D
:100620000E94E70280E00E94070790E080E00895C2
:10063000F894FC0101900020E9F73197AF01481BC5
:10064000590BBC0188E792E00E94A80678940895AF
:10065000CF92EF920F938DE0C82E9CE0E92E0BE035
:100660002AE049E068E087E592E00E945D020F9190
:10067000EF90CF9008950F931F93CF93DF93CDB753
:10068000DEB764970FB6F894DEBF0FBECDBF40E073
:1006900060E087E592E00E94A8016AEF71E087E5DB
:1006A00092E00E94E40641E060E087E592E00E946B
:1006B000A8016BE072E087E592E00E94E40661E049
:1006C00087E592E00E94A50280915402811147C003
:1006D00081E08093540242E060E087E592E00E946E
:1006E000A80169E172E087E592E00E94E40680914A
:1006F00055029091560201969093560280935502AE
:1007000043E060E087E592E00E94A80180915602F4
:100710008F93809155028F9383E392E09F938F9301
:100720008E010F5F1F4F1F930F930E94660CB8013D
:1007300087E592E00E94E4060E94E1070F900F9087
:100740000F900F900F900F9064960FB6F894DEBF45
:100750000FBECDBFDF91CF911F910F9108951092E1
:10076000540242E060E087E592E00E94A80166E260
:1007700072E0B9CF1F920F920FB60F9211242F93F0
:100780003F938F939F93AF93BF938091700290910B
:100790007102A0917202B091730230916F0223E056
:1007A000230F2D3758F50196A11DB11D20936F021F
:1007B0008093700290937102A0937202B0937302BF
:1007C0008091740290917502A0917602B0917702A7
:1007D0000196A11DB11D8093740290937502A093A0
:1007E0007602B0937702BF91AF919F918F913F9125
:1007F0002F910F900FBE0F901F90189526E8230F92
:100800000296A11DB11DD2CF8230910538F0880F1C
:10081000991F880F991F05970197F1F7089578940C
:1008200084B5826084BD84B5816084BD85B58260F5
:1008300085BD85B5816085BDEEE6F0E08081816093
:100840008083E1E8F0E01082808182608083808193
:1008500081608083E0E8F0E0808181608083E1EB6B
:10086000F0E0808184608083E0EBF0E08081816053
:100870008083EAE7F0E08081846080838081826009
:1008800080838081816080838081806880831092F2
:10089000C1000895833081F028F4813099F08230CE
:1008A000A9F008958730A9F08830C9F08430B1F4F8
:1008B000809180008F7D03C0809180008F7780932E
:1008C0008000089584B58F7784BD089584B58F7DA9
:1008D000FBCF8091B0008F778093B0000895809116
:1008E000B0008F7DF9CFCF93DF9390E0FC01E45807
:1008F000FF4F249180579F4FFC0184918823C9F0BA
:1009000090E0880F991FFC01E255FF4FA591B4912B
:10091000FC01EC55FF4FC591D49161110DC09FB7FB
:10092000F8948C91209582238C93888128232883A6
:100930009FBFDF91CF910895623051F49FB7F89433
:100940003C91822F809583238C93E8812E2BEFCFCF
:100950008FB7F894EC912E2B2C938FBFEACF1F9377
:10096000CF93DF93282F30E0F901E859FF4F8491AE
:10097000F901E458FF4FD491F901E057FF4FC491BA
:10098000CC23A9F0162F81110E944A04EC2FF0E02D
:10099000EE0FFF1FEC55FF4FA591B4918FB7F89460
:1009A000EC91111108C0D095DE23DC938FBFDF914D
:1009B000CF911F910895DE2BF8CFFC01918D228DF0
:1009C000892F90E0805C9F4F821B91098F7399273C
:1009D0000895FC01918D828D981731F0828DE80F7A
:1009E000F11D858D90E008958FEF9FEF0895FC0134
:1009F000918D828D981761F0A28DAE0FBF2FB11D22
:100A00005D968C91928D9F5F9F73928F90E0089579
:100A10008FEF9FEF0895FC01538D448D252F30E01B
:100A2000842F90E0821B930B541710F0CF960895FB
:100A30000197089581E796E0892B49F080E090E0E6
:100A4000892B29F00E94710681110C9400000895F1
:100A5000FC01A48DA80FB92FB11DA35ABF4F2C9133
:100A6000848D90E001968F739927848FA689B7892A
:100A70002C93A089B1898C91837080648C93938D21
:100A8000848D981306C00288F389E02D80818F7DC4
:100A900080830895CF93DF93EC01888D8823B9F08C
:100AA000AA89BB89E889F9898C9185FD03C0808179
:100AB00086FD0DC00FB607FCF7CF8C9185FFF2CFF6
:100AC000808185FFEDCFCE010E942805E9CFDF911F
:100AD000CF910895EF92FF920F931F93CF93DF93DF
:100AE000EC0181E0888F9B8D8C8D98131AC0E8896A
:100AF000F989808185FF15C09FB7F894EE89FF8939
:100B00006083E889F98980818370806480839FBFD6
:100B100081E090E0DF91CF911F910F91FF90EF90D6
:100B20000895F62E0B8D10E00F5F1F4F0F731127E6
:100B3000E02E8C8D8E110CC00FB607FCFACFE88921
:100B4000F989808185FFF5CFCE010E942805F1CF7C
:100B5000EB8DEC0FFD2FF11DE35AFF4FF0829FB795
:100B6000F8940B8FEA89FB8980818062CFCFCF9286
:100B7000DF92EF92FF921F93CF93DF93EC016A0114
:100B80007B01122FE889F98982E08083C11481EE0C
:100B9000D806E104F104A1F060E079E08DE390E093
:100BA000A70196010E943E0C2150310941095109CB
:100BB0005695479537952795211580E1380798F088
:100BC000E889F989108260E874E88EE190E0A70175
:100BD00096010E943E0C2150310941095109569558
:100BE000479537952795EC85FD853083EE85FF8504
:100BF0002083188EEC89FD891083EA89FB89808126
:100C000080618083EA89FB89808188608083EA89AA
:100C1000FB89808180688083EA89FB8980818F7D60
:100C20008083DF91CF911F91FF90EF90DF90CF9065
:100C300008951F920F920FB60F9211242F938F9346
:100C40009F93EF93FF93E0918802F0918902808156
:100C5000E0918E02F0918F0282FD1BC09081809105
:100C600091028F5F8F7320919202821741F0E09181
:100C70009102F0E0E858FD4F958F80939102FF912B
:100C8000EF919F918F912F910F900FBE0F901F901A
:100C900018958081F4CF1F920F920FB60F921124F6
:100CA0002F933F934F935F936F937F938F939F9374
:100CB000AF93BF93EF93FF9388E792E00E942805DC
:100CC000FF91EF91BF91AF919F918F917F916F9124
:100CD0005F914F913F912F910F900FBE0F901F90FA
:100CE000189588E792E00E94DD0421E0892B09F441
:100CF00020E0822F0895E8E7F2E01382128288EE66
:100D000093E0A0E0B0E084839583A683B78382E478
:100D100092E09183808385EC90E09587848784ECD2
:100D200090E09787868780EC90E0918B808B81ECB8
:100D300090E0938B828B82EC90E0958B848B86EC99
:100D400090E0978B868B118E128E138E148E0895E1
:100D5000AF92BF92CF92DF92EF92FF920F931F93C9
:100D6000CF93DF936C017B018B01040F151FEB0107
:100D70005E01AE18BF08C017D10759F06991D601BE
:100D8000ED91FC910190F081E02DC6010995892B30
:100D900079F7C501DF91CF911F910F91FF90EF90EF
:100DA000DF90CF90BF90AF900895FB01019000209D
:100DB000E9F73197AF01461B570BDC01ED91FC9130
:100DC0000280F381E02D09946115710511F00C94F6
:100DD000D50690E080E0089562E571E00C94D506B8
:100DE0000F931F93CF93DF938C01D0E0C0E0611588
:100DF000710519F00E94D506EC01C8010E94EC06AD
:100E00008C0F9D1FDF91CF911F910F9108954F92ED
:100E10005F926F927F928F929F92AF92BF92CF928A
:100E2000DF92EF92FF920F931F93CF93DF9300D047
:100E3000CDB7DEB700919001109191019FB7F89462
:100E4000D80118962D913C91232B09F0A4C0882E2F
:100E500084E59AE09A8389830E94940AA090940181
:100E6000B090950181E090E0F801918780878286BB
:100E7000E0909C01F0909D01D12CC12CF4E08F9E5C
:100E800040011124E80CF91C370182E0680E711C46
:100E900046E0542EF30180819181C816D906E0F115
:100EA000E0909801F09099013801F2E06F0E711C0A
:100EB000D12CC12CE80CF91C270182E0480E511CF2
:100EC00088248394912CF20180819181C816D906DF
:100ED000E8F1D80118968D919C911997019731F4FA
:100EE00082E090E019969C938E931897F801808584
:100EF0009185029741F4D50112966D917C91AB01D9
:100F0000C5010E94D000F80180859185029709F4FF
:100F1000789490E080E042C0D701ED91FC915C9C18
:100F2000C0015D9C900D1124E80FF91FA081B181D3
:100F30002481358142815381BD0112968D919C910E
:100F40000E94410ABFEFCB1ADB0AA4CFD701ED9173
:100F5000FC91C601880F991FE80FF91F408151814C
:100F6000DA011496ED91FC9180818F5F80839382EA
:100F70008282F80164817581DB018D919C911197CA
:100F8000958384831D921C92C3010E94F108BFEFD8
:100F9000CB1ADB0A98CF9FBF81E090E00F900F90B3
:100FA000DF91CF911F910F91FF90EF90DF90CF9045
:100FB000BF90AF909F908F907F906F905F904F9079
:100FC0000895E0919001F09191010190F081E02D60
:100FD0008FB7F89460EF77E0828193810E94F000F0
:100FE000CF93DF9300D0CDB7DEB7AE014F5F5F4F39
:100FF00060E971E08EE791E00E948809BC01898177
:101000009A810E94BB0A0F900F90DF91CF910895B3
:101010000895EC01EC81FD8181818F3F09F0789486
:10102000E985FA8509958FB7F89460EF77E08A81B2
:101030009B810E94F0000F931F93CF93DF93CFB754
:10104000F89460E971E08EE791E00E94000ACFBF5A
:101050000091900110919101C0919201D091930162
:10106000F801808591858230910551F0809194013D
:1010700090919501DF91CF911F910F910C94D10A1E
:10108000209789F3FE010995EBCF0F931F93CF9320
:10109000DF93EC01A881B981EB01E881F981169613
:1010A000CD91DC9117972097C1F18A819B81309770
:1010B00009F43FC0EC010C811D8122813381E901DB
:1010C0004C815D81E8013981EA012981321788F577
:1010D00022E030E0E8013B832A8320813181EB016B
:1010E00039832883C281D3812C813D8116964D910D
:1010F0005C911797518340831796FC93EE93169754
:10110000CD93DC934C85F9015181541708F4418348
:10111000DF91CF911F910F910895309751F0EC011D
:101120008C819D81EC014C815D8122E030E0EA01FF
:10113000D2CF90E080E0ECCFCF92DF92EF92FF929F
:101140000F931F93CF93DF93EB01AA81BB8114967A
:10115000ED91FC9115974115510501F122813381E3
:1011600022303105D8F01B962C91DC01ED91FC91D9
:10117000B0E0A0E03097A1F4109769F16D937C93F3
:1011800090E080E0EB01F983E883DF91CF911F913C
:101190000F91FF90EF90DF90CF9008952181E5CFE0
:1011A00002811381E801CC80DD804115510581F079
:1011B000E601EA80FB80D2E0ED16F10448F0E80198
:1011C0003B853217C8F2DF010190F081E02DD2CFCC
:1011D000E6013981F6CFDC016D937C9381E090E0EC
:1011E000D1CFFB015383428341E050E00C949C0833
:1011F000EF92FF920F931F93CF93DF938C01FC012B
:10120000C081D181EE80FF80F701808191819F8331
:101210008E83C8010E944508892B41F4EE81FF812D
:10122000309761F08281938199838883C701DF9130
:10123000CF911F910F91FF90EF900895F801848155
:101240009581F2CFCF92DF92EF92FF920F931F938F
:10125000CF93DF93DA011496CD90DC901597E601D9
:1012600098811D968C91981708F04FC0DB01ED9185
:10127000FC9100811181E801EC80FD809F5FD60127
:101280009C93A481B5816D917C911197232B49F199
:10129000E7019981E6018981981718F575836483C0
:1012A00082E090E0E7019B838A8313965C934E93E0
:1012B00012978681978111969C938E93B783A6830C
:1012C00051834083BA01C8010E94A00A90E080E0E7
:1012D000DF91CF911F910F91FF90EF90DF90CF9012
:1012E0000895E6018A819B81892B21F481E090E0B9
:1012F0009B838A837583648311961C921E92BD0121
:10130000CF0102960E94F108E1CF84E090E0E0CFA7
:10131000AF92BF92CF92DF92EF92FF920F931F9303
:10132000CF93DF935B01DB01CD91DC91FE01019155
:1013300011917F01D8011496CD90DC90FA011183B0
:101340000083D60112968D919C910497A9F5B7015F
:10135000C5010E94F808AC01888199810817190716
:1013600031F1D8011496ED91FC9115971B962C91B3
:101370002183208121502083211114C013821282E5
:101380002C813D81DA012D933C935D834C83DF9169
:10139000CF911F910F91FF90EF90DF90CF90BF9072
:1013A000AF90089521E030E033832283E9CFF60146
:1013B000208121502083E4CF6E817F81FB018081D9
:1013C00091819F838E83D8011B968C91F601818336
:1013D00081E090E093838283A801C7010E94F10815
:1013E000B701C5010E944508892B39F4EE81FF81C0
:1013F0008281938199838883CACF88819981C7CF5D
:10140000CF93DF93CB01FB01C081D181BE016E5F21
:101410007F4F0E944508009749F0688179810E94BA
:10142000A00A81E090E0DF91CF91089590E080E004
:10143000FACFCF93DF93DB01ED91FC918081918115
:1014400026813781EC01AC81BD8162E070E01396AA
:101450007C936E93129751834083A481B5816D91E3
:101460007C91119775836483B783A68313965C93ED
:101470004E9312972D933C93BA01DF91CF910C9428
:10148000A00ADB01ED91FC91A481B581AB2B39F46D
:10149000378326830E94370B90E080E0089587E031
:1014A00090E00895F894FFCFE4EA08958F939F9316
:1014B00080E00E945E0A9F918F9118951F920F9273
:1014C0000FB60F9211242F933F934F935F936F9317
:1014D0007F93AF93BF93EF93FF93E0918001F091DF
:1014E000810190E0880F991FE80FF91F4081518119
:1014F000DA011496ED91FC9180818F5F808360E921
:1015000071E08EE791E00E94190AFF91EF91BF917F
:10151000AF917F916F915F914F913F912F910F907C
:101520000FBE0F901F90089568EE73E080E090E08A
:101530000C94E00B80919601909197010C94570BBD
:10154000FB01A481B58112962D913C91139744E043
:1015500050E013965C934E931297DC0112964D91D6
:101560005C9162817381CF012230310511F40C94BA
:1015700088000C94D000CB01DB011496ED91FC9116
:1015800015972281338144E050E0538342831296C1
:101590006D917C912230310511F40C94A8000C94CB
:1015A000C800DC0112966D917C911397ED91FC912E
:1015B00040815181DB01ED91FC9122893389211514
:1015C000310519F04217530729F4DB01ED93FC9321
:1015D0000C94A800F901F1CFEF92FF920F931F93A3
:1015E000CF93DF93DC018D919C91DC01ED91FC9117
:1015F000119712960D911C91DB01CD91DC9121E0A8
:1016000030E03D832C835B834A8330E020E03097D9
:10161000E1F0A081B1811296ED90FC9013970E1528
:101620001F0568F44E155F0518F40417150768F0D8
:10163000FC901196AC919F01EF2DFA2FE8CF041783
:10164000150718F04E155F0598F72115310519F0AB
:10165000D9018D919C91DC016D937C93F983E88392
:10166000DF91CF911F910F91FF90EF900895CF934D
:10167000DF93DC011296ED91FC9113970D90BC91D4
:10168000A02D12962D913C91DF01A41BB50BA21742
:10169000B30730F0420F531FDF91CF910C94EC0A47
:1016A00041505109420F531F4E1B5F0BF5CFAF92B4
:1016B000BF92CF92DF92EF92FF920F931F93CF933F
:1016C000DF93DC010D911C911197F8012281338188
:1016D00012964D915C912417350708F45FC0138270
:1016E000128230E020E0F801C081D181209709F416
:1016F0004AC0A881B98112964D915C914217530757
:1017000009F041C0DE012D913C91F901A081B18128
:10171000109749F06D917C911197FB016281738163
:101720004617570781F37C01F90111821082F801F5
:10173000B183A08308811981D801AC901196BC9027
:1017400011971696CD90DC902A853B852230310585
:1017500051F12330310561F1232B51F44E815F812A
:1017600030E020E060E971E08EE791E00E9422091C
:10177000C114D10409F1A601BE01C7010E94370BB3
:10178000E5012097B9F6DF91CF911F910F91FF905E
:10179000EF90DF90CF90BF90AF9008952F5F3F4FB5
:1017A00033832283A0CF888599850E94570BE0CF91
:1017B000EC81FD810995DCCFF80115821482E0CF20
:1017C0001092810010928000109282001092850089
:1017D00010928400611520E1720781059105A0F443
:1017E000E4E0660F771FEA95E1F76150710981E047
:1017F00092E096BB90936F0070938900609388008D
:101800008860809381000895611520E87207810542
:10181000910530F4660F771F6150710982E0E8CFBF
:101820006C3F2FEF720723E08207910558F442E0E6
:1018300096958795779567954A95D1F76150710987
:1018400083E0D6CF6115710520E18207910558F438
:1018500034E096958795779567953A95D1F76150DD
:10186000710984E0C5CF26E09695879577956795B1
:101870002A95D1F76150710985E0BACFA1E21A2EFD
:10188000AA1BBB1BFD010DC0AA1FBB1FEE1FFF1F24
:10189000A217B307E407F50720F0A21BB30BE40B74
:1018A000F50B661F771F881F991F1A9469F76095BB
:1018B0007095809590959B01AC01BD01CF01089575
:1018C000EE0FFF1F0590F491E02D0994AEE0B0E01B
:1018D000ECE6FCE00C94150F0D891E8986E08C83E4
:1018E0001A8309838FEF9FE79E838D83AE01475E46
:1018F0005F4F6F89788DCE0101960E94890C2F81F0
:101900003885020F131FF80110822E96E4E00C9424
:10191000310FABE0B0E0EFE8FCE00C94070F7C0186
:101920003B018A01FC0117821682838181FFC8C1B5
:10193000CE0101965C01F7019381F30193FD85913E
:1019400093FF81913F01882309F453C1853239F413
:1019500093FD859193FF81913F01853229F4B70171
:1019600090E00E94790EE7CF912C212C312CFFE1E1
:10197000F31538F08B3211F190F4803209F1833293
:1019800029F137FC3CC020ED280F2A3050F536FEF7
:1019900020C08AE0989E200D1124922E06C08D3220
:1019A00091F0803371F7689430F8F30193FD8591DD
:1019B00093FF81913F018111DACF21C0689431F802
:1019C000689432F8F2CF689433F8EFCF689434F823
:1019D000ECCFEAE02E9E200D1124222E689435F8DB
:1019E000E4CF8E3229F436FC04C1689436F8DDCF9A
:1019F0008C3619F4689437F8D8CF8836B1F2982F1E
:101A00009F7D95549330E0F08336A1F18337C1F187
:101A1000833509F063C02801F2E04F0E511CF80134
:101A2000C080D180692D70E036FC02C06FEF7FEF7F
:101A3000C6010E94630E4C01689437F882010AC007
:101A40000C5F1F4FFFE3F98388248394912C650179
:101A5000E89437F833FE2DC0522C8114910471F5AF
:101A6000552009F468CFB70180E290E00E94790E1A
:101A70005A94F6CFF801808189830E5F1F4FE4CF1F
:101A80002801F2E04F0E511CF801C080D180692D71
:101A900070E036FC02C06FEF7FEFC6010E946E0E51
:101AA0004C018201D5CFB70180E290E00E94790E0F
:101AB0002A942814190409F0B0F7CECFF60137FCA8
:101AC000859137FE81916F01B70190E00E94790EF8
:101AD00051105A94F1E08F1A9108BFCF843619F053
:101AE000893609F077C0F80137FE6BC060817181DB
:101AF000828193810C5F1F4FF32DFF763F2E97FF5E
:101B000009C090958095709561957F4F8F4F9F4F3D
:101B1000689437F82AE030E0A5010E94A90EC82E8B
:101B2000CA188C2C432C36FE0CC0E89440F8C9141B
:101B300040F434FE05C032FC03C0F32DFE7E4F2E70
:101B4000892C44FE95C0FE01EC0DF11D808180338F
:101B500009F087C0242D297E422E842D8870582EAE
:101B600043FC95C040FE8FC09C2C821418F42C0CB2
:101B7000922C981844FE91C0B70180E390E00E9437
:101B8000790E42FE09C088E790E041FE02C088E578
:101B900090E0B7010E94790EC91408F48AC0CA9473
:101BA000D12C9FEFC91AD90ACA0CDB1CF60182910D
:101BB0006F01B70190E00E94790EAC14BD04B1F73B
:101BC0004FCF60817181072E000C880B990B0E5F3F
:101BD0001F4F92CFD32CE894D4F82AE030E0853719
:101BE00039F1232D297FD22E8F3601F148F4883523
:101BF000A9F0F701868197812B96E2E10C94230FDF
:101C0000803749F08837A9F7D4FE02C06894D2F82B
:101C100020E130E00DC06894D4F8F6CF34FE03C064
:101C2000822F8660D82E20E132E002C028E030E02A
:101C3000F801D7FE0FC060817181828193810C5FB2
:101C40001F4FA5010E94A90EC82ECA183D2CE8946A
:101C500037F867CF6081718190E080E00E5F1F4FA1
:101C6000F0CF42FC02C0839478CF8394839475CFE5
:101C7000842D867809F471CFF6CFB70180E290E029
:101C80000E94790E83948214C0F3512C73CF522C8E
:101C90005818821408F46ECFF8CF842D867809F492
:101CA0007BCF8BE241FE80E247FC8DE2B70190E002
:101CB00071CFB70180E390E00E94790E9A946CCFC7
:101CC0008FEF9FEF99CFFC0105906150704001109C
:101CD000D8F7809590958E0F9F1F0895FC01615055
:101CE000704001900110D8F7809590958E0F9F1F3E
:101CF00008950F931F93CF93DF93182F092FEB01B4
:101D00008B8181FD09C01FEF0FEF812F902FDF9195
:101D1000CF911F910F91089582FF14C02E813F81B2
:101D20008C819D81281739073CF4E881F981CF0126
:101D300001969983888310838E819F8101969F836A
:101D40008E83E3CFE885F985812F0995892BA1F34F
:101D5000DACFFA01AA27283051F1203181F1E89435
:101D60006F936E7F6E5F7F4F8F4F9F4FAF4FB1E08E
:101D70003ED0B4E03CD0670F781F891F9A1FA11D89
:101D8000680F791F8A1F911DA11D6A0F711D811D8A
:101D9000911DA11D20D009F468943F912AE0269F4F
:101DA00011243019305D3193DEF6CF010895462FAE
:101DB0004770405D4193B3E00FD0C9F7F6CF462F8F
:101DC0004F70405D4A3318F0495D31FD40524193F8
:101DD00002D0A9F7EACFB4E0A695979587957795B5
:101DE0006795BA95C9F700976105710508959B013C
:101DF000AC010A2E06945795479537952795BA95C5
:101E0000C9F7620F731F841F951FA01D08952F929D
:101E10003F924F925F926F927F928F929F92AF927A
:101E2000BF92CF92DF92EF92FF920F931F93CF93C7
:101E3000DF93CDB7DEB7CA1BDB0B0FB6F894DEBF5E
:101E40000FBECDBF09942A88398848885F846E8484
:101E50007D848C849B84AA84B984C884DF80EE80CE
:101E6000FD800C811B81AA81B981CE0FD11D0FB6D7
:101E7000F894DEBF0FBECDBFED010895F894FFCFFB
:101E800000000A1F1F0E0400E80100001A010000F4
:101E90000000FF000000000000001E010000000024
:101EA00000000080000000010000010004000000AC
:101EB0000000A502A806FA00FD00546573742046D0
:101EC00061696C65642121212C206C696E653A3949
:101ED00036200D0A003D3D3D2044656D6F2048448D
:101EE0003434373830203D3D3D0048656C6C6F2000
:101EF0004F53454B2D41726475696E6F2100150378
:101F0000C6011A0103000200B8010100AA01010084
:101F10000801AB02E801BA01C0010100A001010003
:101F2000A4010100AC010100F401AC011603BA01E7
:101F30000000DA0100000000BA011E03FFFF0100EB
:101F4000C4010100DA01CC01DA01E801F601520214
:101F500022010002009A0A80FF01F60152022601C6
:101F60000100003B03017F01F60152022A01020336
:101F7000001B080000010000000044656D6F204C4C
:101F800043442D4844343437383000437573746FFC
:101F90006D20436861723A200049204C6F766501DC
:101FA00020534954210049204C6F76652020534925
:101FB000542100436F756E743A202533640000008D
:101FC00000006A05A8060B054A05DD04F704E904CC
:00000001FF
